:020000040000FA
:06000000020A820201C7A2
:03002B000208BD0B
:030033000206D9E9
:030043000207723F
:030053000200F8B0
:03006B000206BFCB
:1000830002015C0101FF05030148104810481048B4
:1000930010040FFE0E4810FF1D00000000C31E00D9
:1000A3000000000C0000000C00010000161200000C
:1000B30000000000D012000000000000000000005B
:1000C300FFFF0101010014050000006505E803645A
:1000D300006400B801020200080000050207051EC3
:1000E30002051E0A03B80B020102F1FF0296511822
:1000F3000002020612C0E074F21203E0A2AFE4337E
:10010300FED2AFE5A7FFE5A1F5085F541060061224
:10011300192475A1EFE5085F5408600812192A75C0
:10012300A1F7802BEFA2E0C0D0E508A2E092F01285
:1001330009BF158182F05017906198E0F890083E4E
:10014300E0C398A2D265D0335002E8F075A1FEEE69
:10015300A2E092AF7F0102043FC0E074F21203E019
:10016300A2AFE433FED2AF9061A4E0F8759B00E543
:100173009158540860087591F7121972802AE59115
:1001830058541060087591EF121978801BE8A2E0AB
:10019300C0D0E591A2E092F01209BF158182F05020
:1001A30007E0C2E0F0121ABC9061A3E0F8E5E95859
:1001B3005404600E121A9275E9FB906193E0A2E673
:1001C30040F2808BC0E074F21203E0A2AFE433FE8E
:1001D300D2AF9061A5E0F8E5BF585404600675BF3F
:1001E300FB121AD4020152C3E498F8E499F91202FB
:1001F3002B8026C3E49AFAE49BFBE920E7E9120289
:100203002BE498F8E499F922C3E498F8E499F912F5
:10021300022BE498F8E499F9C3E49AFAE49BFB22ED
:10022300EB20E7CFE920E7E0B90010BB0008E88A3C
:10023300F084F8AAF022E4FBC8FA22EB70227B10C8
:10024300C833C8C933C9335007C39AC3DBF2800626
:100253009A50012ADBEAC833F4C8C933F4C9FA2235
:1002630075F008E4C833C8C933C933C99AC99B5068
:1002730004C92AC93BD5F0ECFBC833F4C8E4C9FA76
:1002830022080808EAC0E0EBC0E086F0E7A4FA1809
:100293000986F0E7A42AFA180986F0E7A42AFA18CF
:1002A3000986F0E7A42AFA1986F0E7A4FBE5F02A09
:1002B300FA190886F0E7A42BFBE5F03AFA19088649
:1002C300F0E7A42BFBE5F03AFA18180986F0E7A447
:1002D300C5F02BFBE43AFA1908E7C5F0C6A426F6E5
:1002E300E5F03BFBE43AFA1886F0E7A4F6E5F008FC
:1002F30026F6E43B08F6E43A08F6D0E0FBD0E0FA51
:1003030022E4CFC0E0E4CEC0E0E4CDC0E0E4CCC062
:10031300E075F020C3E633F608E633F608E633F675
:1003230008E633F6181818EC33FCED33FDEE33FE14
:10033300EF33FFC3EC9709ED9709EE9709EF971990
:100343001919400FFFEC97FC09ED97FD09EE97FE95
:10035300191906D5F0BEECF709EDF709EEF709EF29
:10036300F7191919D0E0FCD0E0FDD0E0FED0E0FF92
:10037300222518C582C0E0E51934FFC583C0E0E536
:1003830018C3958224F810AF0885831985821880D5
:1003930008858319858218D2AFCEF0A3E520F0A398
:1003A3007808E608F0A3DEFAEFF0A3E58124FAF873
:1003B300E608F0A3E608F0A3E608F0A30808E608B9
:1003C300F0A3E608F0A315811581D0E0FED0E0F894
:1003D300158115811581E8C0E0EEC0E022C0D0256B
:1003E30018C582C0E0E51934FFC583C0E0E518C332
:1003F300958224F310AF08858319858218800885B8
:100403008319858218D2AFC8F0A3E9F0A3EAF0A359
:10041300EBF0A37908E709F0A3D8FAECF0A3EDF029
:10042300A3EEF0A3EFF0A3D0E0F0A3D0E0F0A3D0CD
:10043300E0F0A3E520F0A3E5F0F0A322851983857E
:100443001882E0C0E0A3E0F9A3E0FAA3E0FBA378FD
:1004530008E0F608A3DFFAE0FCA3E0FDA3E0FEA3B7
:10046300E0FFA3E0C0E0A3E0C0E0A3E0F5D0A3E099
:10047300F520A3E0A3F5F010AF0885831985821852
:100483008008858319858218D2AFD082D083D0E0CB
:10049300F8D0E032120AE4B900030204D9E490036D
:1004A300017895790A8002F0A3D8FCD9FA900C95CB
:1004B300AA82AB83900086787379018015E493A3B5
:1004C300AC82AD838A828B83F0A3AA82AB838C82B6
:1004D3008D83D8E9D9E775829375838F74031208E6
:1004E3003575826875831D74001208350875F01020
:1004F3008E1A8F1B85821F85831E8518828519831B
:10050300E0CEA3E0CF851F82851E83EBC9EAC8ED49
:10051300CBECCAC3E833C8E933C9EA33CAEB33CBFC
:10052300C3EA9EF51DEB9FF51CB35004AB1CAA1D3B
:10053300EC33CCED33CDD5F0DAAE1AAF1B22D0833A
:10054300D082ECC0E0EDC0E0E493A3FCE493A3FD10
:10055300ED4C600D120619EC24FFFCED34FFFD8019
:10056300EFE493A3FCE493A3FDED4C600D12071D90
:10057300EC24FFFCED34FFFD80EFD0E0FDD0E0FC88
:10058300E493A3C0E0E493C0E02285198385188235
:10059300E0A3FEE0A3F5207808E0A3F608DFFAE085
:1005A300A3FFE0A3C0E0E0A3C0E0E0A3C0E0E0A3BA
:1005B300C0E0E0A3C0E010AF0885821885831980EE
:1005C30008858218858319D2AFD083D08202083B75
:1005D300D083D082E9C0E0E493A3C386F0C5F0954D
:1005E300F0F908E493A386F0C5F095F0700BE4935B
:1005F300A3C3994005E9048002A3E475F002A4258E
:1006030082F582E5F03583F583D0E0F9E493A3C066
:10061300E0E493C0E022C0E0C3E49396087401933E
:100623009618400FE4936670080874019366187077
:10063300007019A3A3C3E49396087401939618A3B7
:10064300A3400DD0E0D0E0D0E002057DA3A3A3A397
:10065300A3A3D0E022D083D082C5F0E493A3C5F056
:10066300C395F0F5F0E493A3C395F04005E5F004DA
:100673008001E475F002A42582F582E5F03583F567
:1006830083E493A3C0E0E493C0E022740480047481
:10069300028000CCC0E0EDC0E0E518C39CCCAD19EE
:1006A30050011D10AF068C188D1980068C188D19FA
:1006B300D2AF1207B7D0E0FDD0E0FC22C0E074F265
:1006C3001203E0E589A2E150031217FE758900C207
:1006D300C57F0102043FC0E074F21203E0E58BA280
:1006E300E050031217FE758B00C2E880E4740280A9
:1006F30000CCC0E0EDC0E0E518C39CCCAD195001BF
:100703001D10AF068C188D1980068C188D19D2AF69
:10071300120795D0E0FDD0E0FC22C0E0C0F088F0E5
:10072300E4936670080874019366187000A8F0A338
:10073300A3700BD0F0D0E0D0E0D0E002057DA3A3FE
:10074300D0F0D0E022D083D082CCC0E0E493A36089
:10075300061208161470FAE493A36006120907142C
:1007630070FAD0E0FCE493A3C0E0E493C0E022C0BD
:10077300E074F21203E0A2AFE433FED2AFC2C0E5ED
:10078300D1A2E4500312189AEEA2E092AF7F0102C5
:10079300043FCAC0E0E493A3C582CCC582C583CD20
:1007A300C583F0A3C582CCC582C583CDC583DAE5F5
:1007B300D0E0CA22CAC0E0E0A3C582CCC582C5830B
:1007C300CDC583F0A3C582CCC582C583CDC583DAED
:1007D300E6D0E0CA22700908080822601618181823
:1007E300C6C333C608C633C608C633C608C633C62F
:1007F300D5E0EA22C008C3E096F50808A3E09642D4
:100803000808A3E096420808A3E09645087001D3C0
:10081300D00822C0E0E493A3D39C5010E493A3C375
:100823009C400AD0E0D0E0D0E0020765A3A3A3D0A8
:10083300E022C09FF59FE473D09F22D083D082C073
:100843009FE493C0E0740193C0E0740293F59F2288
:100853007404800A74038006740280027401C0E089
:10086300F40412086ED0E0120ABF222518F5821094
:10087300AF08F518400215198008F518400215193C
:10088300D2AF85198322BB0102E722C082C08389CC
:10089300828A83BB0003E08002E493D083D0822268
:1008A300C0D0251810AF08F518500205198008F5B7
:1008B3001850020519D2AFD0D022C0E0C0D0E8C092
:1008C300E0E5A8D2AFC2C7A2E792AFD0E0F8D0D09C
:1008D300D0E0326016080808C6C313C618C613C68C
:1008E30018C613C618C613C6D5E0EA22C3E0C696D7
:1008F300F608A3E0C696F608A3E0C696F608A3E0BA
:10090300C696F622C0E0E493A36C7009D0E0D0E071
:10091300D0E0020765A3A3D0E022251810AF08F5A5
:1009230018400215198008F51840021519D2AF2294
:10093300E76670100809E766700A0809E76670043D
:100943000809E76622E066701008A3E066700A08EB
:10095300A3E066700408A3E06622C3E09608A3E060
:100963009608A3E09608A3E096A2D265D03322C3EB
:10097300E096F008A3E096F008A3E096F008A3E061
:1009830096F022E026F008A3E036F008A3E036F064
:1009930008A3E036F022E627F60809E637F6080949
:1009A300E637F60809E637F622E026F608A3E0362E
:1009B300F608A3E036F608A3E036F622C0E0E8C066
:1009C300E0E58124FCF8E6A2E7D0E0F8D0E022E6F7
:1009D30047F60809E647F60809E647F60809E64731
:1009E300F622E657F60809E657F60809E657F60829
:1009F30009E657F622E056F608A3E056F608A3E008
:100A030056F608A3E056F622E056F008A3E056F0A7
:100A130008A3E056F008A3E056F022700422600D0C
:100A230018C6C333C608C633C6D5E0F41822E4C3D8
:100A330096F608E496F608E496F608E496F622603D
:100A43000D08C6A2E713C618C613C6D5E0F322C61F
:100A5300F4C608C6F4C608C6F4C608C6F4C622C35C
:100A6300E7960809E7960809E7960809E79622C377
:100A7300E09608A3E09608A3E09608A3E096227503
:100A8300D00075814075180175190300020497E0C1
:100A9300F608A3E0F608A3E0F608A3E0F622600C4C
:100AA30008C6C313C618C613C6D5E0F422E6F00879
:100AB300A3E6F008A3E6F008A3E6F022CAC0E0E646
:100AC300F0A308DAFAD0E0FA22E0FAA3E0FBA3E00D
:100AD300FCA3E0FD22EAF0A3EBF0A3ECF0A3EDF01E
:100AE30022E5C754F84401F5C77901222518F58298
:100AF300E43519F58322C2AF75D69F020000221296
:100B0300083EC0B20112083EB7B30112083E06B652
:100B13000112083E59B70112083EFCB70112083E04
:100B230047B90112083E65B90112083E99580012EF
:100B3300083EAB580012083EFD580012083E5E59AD
:100B43000012083EE8590012083E8C5A0012083E73
:100B5300E05A0012083EF95A0012083E1F5B0012C9
:100B6300083E5A5B0012083E9E5B0012083EC55BBE
:100B73000012083E165C0012083EC65C0012083ED6
:100B83007E5D0012083E465E0012083E235F00129F
:100B9300083EA95F0012083EB85F0012083EC35F1B
:100BA3000012083ECC600012083EDD600012083ED1
:100BB30053610012083EE5610012083E3D620012D7
:100BC300083E03630012083E34630012083E796353
:100BD3000012083E86630012083E1A650012083EA2
:100BE3007D660012083E99670012083E036A0012F0
:100BF300083E0E6A0012083E186A0012083E236A75
:100C03000012083E2D6A0012083E376A0012083EA1
:100C1300426A0012083E4D6A0012083E7E6A0012C4
:100C2300083EA26A0012083EC66A0012083E2B6BF9
:100C33000012083E6F6B0012083E8B6B0012083ED9
:100C4300026C0012083E3A6C0012083E866C0012D9
:100C5300083EE36C0012083EC56E0012083E4B6F5F
:100C63000012083E1C700012083E2C730012083E4E
:100C730081730012083EAD730012083EF97400122E
:100C8300083E49750012083E9E750012083E9F7685
:100C93000012083E37770012083EB9770012083E6B
:100CA30059780012083EE4200012083E1D2100126C
:100CB300083EF7220012083E36230012083E802326
:100CC3000012083E25240012083E84240012083E28
:100CD300B8240012083E25250012083E42260012C1
:100CE300083E4A270012083EE0270012083E272B41
:100CF3000012083ED02B0012083EAC2C0012083E16
:100D03000D2D0012083E2A2E0012083E5430001208
:100D1300083E0B310012083E15310012083E4831DF
:100D23000012083E0F320012083EAA320012083E9B
:100D33000F330012083E38330012083E5A330012B4
:100D4300083E89350012083E60360012083EA4367C
:100D53000012083E11370012083ECC370012083E3D
:100D6300FE370012083E42380012083E7538001262
:100D7300083ECA380012083E1F390012083EB33934
:100D83000012083E153A0012083E7D3A0012083E52
:100D9300263C0012083E0E3D0012083E503E001253
:100DA300083E7E400012083E3E410012083E6D435D
:100DB3000012083E10440012083E4E440012083E42
:100DC300FA450012083E0E460012083E184600126D
:100DD300083E42460012083E4E460012083E6D464B
:100DE3000012083E24470012083E63470012083EE3
:100DF3006D470012083E21480012083E20490012A8
:100E0300083E194A0012083EB64A0012083E584BE3
:100E13000012083E6F4B0012083EA64B0012083E1C
:100E2300C44B0012083E084C0012083E2D4C001221
:100E3300083E134D0012083E7F4D0012083EF94D47
:100E43000012083E084F0012083E47500012083EA9
:100E5300A9500012083E63510012083E8651001249
:100E6300083E5A520012083EA5520012083EE752AD
:100E73000012083E3E530012083E75530012083E0E
:100E8300A3530012083EDC530012083E0154001223
:100E9300083E89540012083EAC560012083E0B5718
:100EA3000012083E9F570012083E0B580012083EDE
:100EB3005F580012083E19B20312083E58B20312DB
:100EC300083EAABA0112083E04BB0112083E60BBE9
:100ED3000112083EACBB0112083EC7BB0112083E1B
:100EE300F8BB0112083E15BC0112083E21BC0112D9
:100EF300083E95BD0112083EAEBD0112083E15BE67
:100F03000112083E28BE0112083E36BE0112083EF9
:100F1300EABE0112083ECEBF0112083ED4C0011240
:100F2300083E5AC10112083E64C10112083ED1C1F4
:100F33000112083EE8C10112083E1AC20112083E1E
:100F430053C20112083E7DC20112083EDEC20112E5
:100F5300083EFEC20112083E1CC30112083E62C3D2
:100F63000112083E88C40112083ED5C40112083E8E
:100F730004C50112083E7AC50112083EA2C501123A
:100F8300083EDBC50112083EE9C50112083E41C611
:100F93000112083E90C60112083ECFC60112083E58
:100FA300FFC60112083E2BC70112083E36C70112C5
:100FB300083E54C70112083E16C80112083E20C855
:100FC3000112083E5BC80112083E71C80112083EB7
:100FD3007AC80112083ECFC80112083EE3C80112C5
:100FE300083EF1C90112083E04CA0112083E19CA9B
:100FF3000112083EBBCA0112083E3ECB0112083E55
:10100300FCCB0112083E07CC0112083E2DCD011284
:10101300083E49CD0112083E9BCD0112083EDACDB0
:101023000112083EEFCD0112083E31CE0112083EF7
:101033007ED00112083EFCD00112083E6FD101128E
:10104300083E91D30112083EA9D30112083EACD346
:101053000112083EB8D30112083ECCD30112083E58
:10106300D4D30112083E07D40112083EB7D40112AB
:10107300083E2DD50112083EA0D50112083E54D6D4
:101083000112083E09D70112083E28D70112083E73
:10109300C8D70112083ED4D70112083EFFD7011268
:1010A300083E02D80112083E6CD80112083E94D9BA
:1010B3000112083E6CDA0112083EF7DA0112083E0B
:1010C30010DC0112083ECDDC0112083E06DD0112E0
:1010D300083E37DD0112083ED7DD0112083E07DE68
:1010E3000112083EE2DE0112083E7BDF0112083ED8
:1010F30006E00112083EB7E00112083E39E1011291
:10110300083E6BE10112083EACE10112083E71D2C8
:101113000212083ED6D20212083E13D30212083E30
:1011230062D30212083E78D50212083E5BD7021240
:10113300083EC5DA0212083E00DB0212083E22DB3B
:101143000212083E85DB0212083EB9DB0212083E9A
:10115300DCDB0212083E09DC0212083E65DC0212E7
:10116300083E5BBC0212083ED9BC0212083E0FBD0A
:101173000212083E7BBD0212083EEEBE0212083E7A
:101183000ABF0212083E4FBF0212083EDDBF021221
:10119300083E36C00212083E63C10212083E75C201
:1011A3000212083ED2C20212083E3EC30212083E99
:1011B3009FC30212083EE0C30212083E8DC402120E
:1011C300083E9FC50212083ECAC50212083E15C654
:1011D3000212083E5CC60212083EEEC60212083E28
:1011E300A9C70212083ED9A50312083EEAA50312B5
:1011F300083E3BA60312083E80A60312083E2AA718
:101203000312083E57AE0312083EA5A20312083E7E
:10121300FDA30312083E20C80212083EC5C80212ED
:10122300083EE5C80212083E05C90212083E19C964
:101233000212083E71C90212083EA1C90212083EF9
:1012430022CB0212083EC8CB0212083EAACC0212DD
:10125300083EFBCC0212083E3ECD0212083E81CD71
:101263000212083EE7CD0212083E08CE0212083EE3
:1012730094CE0212083EC5CE0212083E39CF0212A6
:10128300083EE7D00212083EC1D10212083E03D243
:101293000212083E5DD20212083ED4A00312083E99
:1012A300F5A00312083E2BA20312083E55A2031217
:1012B300083ED18C0312083E4C8D0312083E578D15
:1012C3000312083E788D0312083E1EB00212083E38
:1012D30021B00212083EDBB00212083E06B1021230
:1012E300083E4DB10212083E72B10212083E93B19C
:1012F3000212083EC7B10212083E00B20212083EB3
:1013030029B30212083E60B30212083E80B30212F0
:10131300083E1BB40212083EE0B40212083E17B5A1
:101323000212083E8CB60212083E2FB70212083E84
:1013330028B80212083E51B80212083EA5B802129C
:10134300083E6BB90212083E99B90212083E2EBB41
:101353000212083EAFBB0212083EE2BB0212083E75
:101363002FF60112083E39F60112083E85F60112E6
:10137300083EF3F60112083E14F70112083E7BA95A
:101383000112083EDBF70112083E6FFA0112083E14
:1013930078FA0112083ECBFA0112083EF4FA011260
:1013A300083E5BFB0112083EECFB0112083E2EFCDB
:1013B3000112083E78FC0112083ED7FC0112083ED8
:1013C30068FD0112083EA7FD0112083EE6FD011269
:1013D300083E1BFE0112083E2DFE0112083EA4B278
:1013E3000112083E5EFE0112083E67FE0112083E2E
:1013F3001DFF0112083E5DFF0112083E12F40212A6
:10140300083EE5F40212083EFFF40212083E10F50E
:101413000212083E25F70212083E44F70212083E64
:10142300A29E0312083ED89E0312083E219F031278
:10143300083E71A00312083EE1E10112083E20E3D9
:101443000112083E5CE30112083E1BE50112083E4F
:1014530044E50112083ED7E70112083E1BE80112DA
:10146300083EA4E90112083E3CEA0112083EA4EA40
:101473000112083E45EB0112083E87EB0112083EBC
:10148300C7EB0112083E52ED0112083EC2EE0112F3
:10149300083EE7F00112083E15F10112083E3CF147
:1014A3000112083E45F10112083EA0F10112083E67
:1014B30033F20112083E51F50112083ED2F5011232
:1014C300083E85B30312083ECEB10312083E808363
:1014D3000312083E93830312083E30840312083E2E
:1014E3006B840312083E86840312083EAB84031206
:1014F300083EF0840312083E21850312083E5285FC
:101503000312083ED8860312083EA2A80312083E1F
:10151300D8A80312083EF4A80312083E36A9031202
:10152300083E46A90312083EDBA90312083EE5A9BB
:101533000312083EF8890312083EA38A0312083EE9
:10154300588B0312083E998B0312083ED98B031262
:10155300083E478C0312083E8FA00212083EE7A004
:101563000212083E91A10212083E39A20212083E5D
:1015730096A20212083EEFA20212083E03A3021231
:10158300083ECDA40212083E48A50212083E72A5E9
:101593000212083E2FA70212083E4AA70212083E73
:1015A30099A70212083EAFA70212083EBCA7021277
:1015B300083EF0A70212083E06A80212083E8CA8B5
:1015C3000212083E9BA80212083EF4A80212083E2B
:1015D3004EA90212083E9CA90212083EA6AA0212B4
:1015E300083E28AD0212083EC2AD0212083E04AE08
:1015F3000212083E99AE0212083EB6AE0212083E2F
:10160300B9AE0212083EBCAE0212083E2FAF021260
:10161300083E4AAF0212083E76AF0212083EB1AF4F
:101623000212083EB4AF0212083EC7AF0212083ED0
:10163300EEAF0212083E4BB10312083E57B103123C
:10164300083E91B10312083EBE900212083EE99093
:101653000212083EB5910212083E3A920212083E67
:10166300A3920212083EEF920212083E6E930212F8
:10167300083E00940212083E8C940212083ECE9457
:101683000212083E3A990212083EBA9A0212083E22
:10169300F99A0212083EC29B0212083E769C02127D
:1016A300083E269E0212083EB29E0212083E0080A9
:1016B3000212083EBA800212083E2C810212083E32
:1016C3003B810212083EB5810212083E24820212B7
:1016D300083E2E830212083E57830212083EF78308
:1016E3000212083E45840212083EB5840212083EE7
:1016F300E9850212083EC5860212083E36870212A9
:10170300083EB3880212083E75890212083E108A09
:101713000212083E6B8A0212083ED68A0212083E63
:10172300DA8B0212083E9B8D0212083E3A8E021299
:10173300083EAC8E0212083E698F0212083E589290
:101743000312083EAC920312083E04930312083EB0
:101753004F930312083EB1930312083E4A940312B7
:10176300083EB2940312083EBE940312083E4C9CFA
:101773000312083E7D9C0312083E379D0312083E68
:101783009D9D0312083E0E9E0312083E1E900312F7
:10179300083EAA910312083E4AAF0312083E5BAF0C
:1017A3000312083EFBAF0312083E417E0012083EBF
:1017B3004F7E0012083E9BB30312083EB5B00312DE
:1017C300083EC5B00312083EE0B00312083E41B123
:1017D3000312083E55AD0312083EDAAD0312083E6C
:1017E3003EAE0312083E43AC0312083E65AC03123F
:1017F300083ECFAC0312083EDAAC0312083E1EAD1E
:101803000312083E9DF80212083EABF80212083E8E
:10181300ECF80212083E06F90212083E90F9021291
:10182300083EB5F90212083ED2F90212083EEFF95A
:101833000212083E14FA0212083E3CFA0212083E53
:1018430084FA0212083EFFFA0212083EAFFB0212AC
:10185300083E6EFC0212083E7CFC0212083EF6FCB7
:101863000212083EDAFD0212083E93FF0212083EFE
:1018730045B30312083E0C790012083E7979001231
:10188300083E3A7A0012083EAA7A0012083EB37B59
:101893000012083E2B7D0012083E8F7D0012083E89
:1018A300E47D0012083EED7D0012083EFC7D00122F
:1018B300083E0F7E0012083E257E0012083E2E7E53
:1018C3000012083EEDE50212083E42E60212083E0F
:1018D3003EE80212083E70E80212083E92E8021245
:1018E300083EABE80212083EC4E80212083ECEE905
:1018F3000212083E69EA0212083E41A70312083E9B
:1019030065A70312083E7EA70312083EB1A7031280
:10191300083EE2A70312083E10A80312083E72A86D
:101923000312083E81A80312083E8BA80312083E47
:1019330098A80312083EF9940312083E1F95031258
:10194300083E5C950312083E6B950312083E8A9588
:101953000312083EF2950312083EFB950312083E5C
:101963005A960312083E7E960312083E3D970312D1
:10197300083E4A970312083E5B970312083EA6B23D
:101983000312083EC3B20312083EE0EA0212083E05
:101993003EEC0212083E4BEC0212083E5EEC0212D1
:1019A300083E7DEC0212083E93EC0212083EA7ECBF
:1019B3000212083E1CED0212083E81ED0212083E9F
:1019C30031EE0212083E06EF0212083E16EF021233
:1019D300083E25EF0212083E1CB00312083E40B039
:1019E3000312083E68B00312083E90B00312083E8B
:1019F30089970312083EB0970312083ED19703124A
:101A0300083E36980312083EEF990312083E089ADF
:101A13000312083E149A0312083E289A0312083E42
:101A2300469A0312083E509A0312083E5A9A03122A
:101A3300083E6D9A0312083EC09A0312083EF99AB3
:101A43000312083E289B0312083E769B0312083EAE
:101A5300C59B0312083EE09B0312083EEA9B031258
:101A6300083EFB9B0312083E419C0312083E86FF7F
:101A73000112083EB1DC0212083EDBDC0212083E12
:101A8300F7DC0212083E0ADD0212083E20DD0212D4
:101A9300083E7DDD0212083EB0DD0212083EECE195
:101AA3000212083E12E30212083E45E30212083E08
:101AB30091E30212083EBDE40212083EE5E402127D
:101AC300083EFAE40212083E0AE50212083E4EE519
:101AD3000212083EAFE50212083EBFE50212083EBD
:101AE300FDA90312083E18AA0312083E41AA0312D5
:101AF300083E5BAA0312083E80AA0312083E9FAA6F
:101B03000312083EB7AA0312083EE5AA0312083ED1
:101B1300FFAA0312083E62B20312083E00800312BA
:101B2300083E07800312083E13810312083E4381D7
:101B33000312083E69810312083E8C810312083E9A
:101B4300AE810312083EE8810312083E4E8203125F
:101B5300083E87820312083ED3820312083E0083A5
:101B63000312083E20830312083E4CA40312083ECE
:101B73005EA40312083E49A50312083ED6A503122C
:101B8300083E30AB0312083EA2AB0312083EE0ABA3
:101B93000312083E21AC0312083EE5860312083EF9
:101BA30001870312083E50870312083E6C87031215
:101BB300083E9D870312083EAD870312083E9988AD
:101BC3000312083EA3880312083EB0880312083E9E
:101BD300C0890312083ED4890312083EDD8903122B
:101BE300083E5EEF0212083EA3F30212083EA8F37A
:101BF3000212083E18B30312083EE2B20312083E73
:101C0300D7FF0112083E67B30312083ECFA80112A3
:101C1300083E20A70112083EDBA40112083E62A47D
:101C23000112083E09A40112083E9DA30112083EB9
:101C330074A30112083E67A10112083E33A10112E9
:101C4300083E00A10112083EE4A00112083E0AA0CA
:101C53000112083EC29F0112083EF79D0112083E81
:101C6300779D0112083E749D0112083E7B9C011270
:101C7300083E499C0112083E869B0112083EB19919
:101C83000112083E42990112083E14990112083EBE
:101C930034B20112083EEBB10112083EA3B10112A6
:101CA300083EE1B00112083E54B00112083E1199FA
:101CB3000112083EFE980112083E96980112083E52
:101CC30085980112083E47B00112083E669701123B
:101CD300083E30970112083EF3960112083E94968F
:101CE3000112083E55AD0112083E3FFE0112083EA7
:101CF30063960112083E1E930112083E0F920112D1
:101D0300083E9E910112083E63910112083E2E91F6
:101D13000112083E22910112083E82900112083EF0
:101D2300C98F0112083E9C8D0112083E288B0112B7
:101D3300083EE68A0112083EB1890112083E66890F
:101D43000112083E98880112083EEF870112083EEF
:101D53008B870112083EC5870112083EA7AA01120C
:101D6300083E2BF70100000080FBE47300013636C8
:101D73000101000102010001030100010401060643
:101D830005020000070100340801000F09040101E6
:101D93000D0100FF0E08000017020000190100FFEB
:101DA3001A0100011B0100FE1C0100081D020000B6
:101DB3001F01000120010001210200002301000F87
:101DC300240200002601000127010008280200FF69
:101DD3002A0100072B0102402C0100002D01000104
:101DE3002E0100012F0100FF30010B1C3108000000
:101DF3003A0100083B01000F2F01000003007100AE
:101E03003001600011007000310220035004800093
:101E13001000610000001400630073007200620090
:101E2300430000001300060000000000040012003D
:101E33000000000000000000040004003700370029
:101E43003C024400000000000000000065000000A8
:101E5300350081000000050000008300000003023C
:101E630071023001600211027002010202020202D9
:101E73008002100261023A0041006302730272029F
:101E8300620243020002130238000002000204024D
:101E930012020002000200020002040204023700E0
:101EA30037003C02440200023900000200026502CE
:101EB300000235028102000205028202830200024F
:101EC300010371030103010301030103010322035E
:101ED30002030103100300030003000300030003D4
:101EE300000300034203000324030603000300036B
:101EF3000403120325032303250323030403040319
:101F0300000300030003440300030003230300034F
:101F13006503210035038103000305030003000368
:101F230000030101710101010101110101013101ED
:101F3300010101018001100161013B0014006301F3
:101F430073017201620143010001130106013D01A6
:101F53003500040112010001000100010001040128
:101F63000401330133013C01440132013600000115
:101F730000016501000135008101000105018201B5
:101F83008301000136000100060000000F0000007D
:101F93000000000000000000000003FFFF00000439
:101FA30003FFFF0000FFFF0FF4010005C40403203B
:101FB300000100030B000000000000000003010FFC
:101FC3000100EA16020060160300661604006C1690
:101FD3000500721606007E161100961614009C1654
:101FE30015009016FFFF000003EAF5E5D5D5C5B54A
:101FF300A59595858575756565555545453535258E
:10200300251515055E0F8E0F640F6A0F880F7C0F61
:10201300760F940F9A0FA00FAC0F700F580F520F3B
:102023000A2A0D02F40C05060D07FA0C0CD60C0D4A
:10203300E80CFF000000160F00000B150B02000256
:10204300220F3200000648105A106010280F661045
:10205300220F2E0FA810C610CC10AE10BA10B41059
:102063000C0E020B040B0A0708000F303016181968
:1020730020231A1C1E3000011916181616152303E7
:102083000000034948424D181725050200383C3E1D
:10209300363B3B352B432C303017181921301B1D91
:1020A3001F309C106C1072107E107810820FA60FD8
:1020B300C010B20FB80F02040201010101090200AE
:1020C300000000000000BE040A0E00E8030400152F
:1020D300002800040C05030908FF1E1E0A040F1044
:1020E3000C74F7120374E99003B0F0900365E4F005
:1020F300121B6A9003B5E4F0A3F09003B1F0A3F0D0
:10210300120E62121B70900334E4F0A3F09020E1EE
:1021130093FA7902121BD0024D7A74F2120374EA15
:10212300FEEBFF548060699003B0E0F91213A28ABA
:10213300088B09EA4509604F7C0080010CEC75F0BF
:1021430003A4F8A9F0742328F582742039F583E4F5
:1021530093F4602CE493F88508828B83E06870DC49
:10216300AA08EC75F003A4F8742428F582742039C6
:10217300F583E493C0E0740193F583D082121D6D5F
:10218300AA08AB09121396EEFAEF6480FB0222EA67
:10219300EF5420601D120D848A088B09EA450960FB
:1021A3000A120CE8AA08AB09121396EEFAEF6420A0
:1021B30080DAEEA2E0501A90036AE0640F700B79A4
:1021C30000120CB2E960031222EDEE6401FAEF8013
:1021D300BB542070030222B8750C001237BF8B0961
:1021E300EA450970107C027D007A207B009003B0E1
:1021F300E0F91214EC7C0079047A007B00120D6084
:102203008A088B098018850882850983A3A3A3A361
:10221300A3A3A3A3A37401F0850A08850B09E5080A
:102223004509606D7C007904AA08AB09120D608A28
:102233000A8B0B750C01E5082404F8E509123563D4
:1022430024FFF0A3E034FF12585670CC8508828532
:102253000983A3A3A3A3A3A3A3A3A3A3E0640170DC
:10226300A5850882850983A3A3A3A3A3A3E054049C
:102273007094850882850983A3A3A3A3A3A3A3A31F
:10228300A37406F07AB7850882850983122419801E
:1022930087120D307C0079017A007B00120D608B70
:1022A30009EA45097009E50C70057A20124719EE11
:1022B30064200221D0EF5402600B120E5CEEFAEFA1
:1022C300640202218FEF540460191248B01247D000
:1022D3007901900363124B34120BF8EEFAEF6404A6
:1022E30002218F7A007B00022520900CDF122BB78E
:1022F300120CCA22C082C08374EA12091D85188297
:10230300851983AA82AB83794B121BA67408120A20
:10231300EF7402F07409120AEFAA82AB83795012A8
:102323001BA67413120AEFE4124D03121BC4741696
:10233300023CDD74F712037474E112091DEAFEEB2B
:10234300FFEE4F6033851882851983AC82AD83120B
:102353000DA87406120AEFE0601E7417120AEFE06C
:10236300FD7401120AEFE0FCEEFAEFFB7900120BA9
:1023730020E9600479A480027900024D7574F61295
:102383000374EAFEEBFF8E828F83A3A3A3A3A3A30D
:10239300E05440601B1251F21224E760067AFF7B7F
:1023A300FF801A8E828F83123969FAA3E0FB8003C0
:1023B300120DCC74FE6A700374FF6B60411251F20C
:1023C30012475D120E20E98E828F8360061224125B
:1023D300E480051224127401F07CB87D0C8E828F88
:1023E30083124B34121BCAE9F5087015EE4F6009CE
:1023F3007901EEFAEFFB120D3CA90802478E75082E
:10240300CDAA088E828F83122419E960DF80EAE067
:10241300240D123E3822E0240C123E38E0F9120C4F
:10242300C42274F6120374E9FEEAFF7A0F7B0012EA
:102433001390EA4B60198A828B83740CF0EEA3A38A
:10244300F0EF8A828B83A3F01247B97900802FEED5
:10245300F9120D668A088B09A808A909E849601CC6
:1024630088828983A3A3A3A3A3A3A3A3A37406120C
:10247300547DE0F9120C7CEEF9120D4279100247FB
:102483008EC082C08390036AE0640F7014EA4B60CD
:1024930010900365E064086005E06404700312248F
:1024A300A7023D07EAFCEBFD7A017B009003B0E055
:1024B300F91214E622C082C0837900EA241DF58252
:1024C300EB12396624FD600B14600824FD600424BC
:1024D300FD700109023D078E828F83A3A3A3A3A3EB
:1024E300A3A3A3A31224EB221239AEFB120E20E9FD
:1024F300228E828F83A3A3A3A3A3A3A3A3A31224A4
:10250300EB6402228E828F83A3A3A3A3A3A3A3A31B
:10251300A3123CFE900356E068221208A37F060232
:10252300058D74F412037474FD12091D8A088B0956
:102533008A828B83A3A3E0F9120D668A0A8B0BAE02
:102543000AAF0BEE4F700302262C850882850983A0
:10255300A3E064F16030850882850983A3E064CD3C
:102563006024850882850983A3E0641A60188508BE
:1025730082850983A3E064E9600C85088285098369
:10258300A3E064E170087900120D3CE9706C8508E2
:1025930082850983A3E0C0E07402120AEFD0E0123F
:1025A3003CE2EEF0A3EF12300D851882851983AA61
:1025B30082AB837005120BE08003120E08740212C3
:1025C3000AEFE064E970338E828F83122638750A2E
:1025D30001780A12085F750AE9780A12085FE508AC
:1025E300240CF582E509122AFF122FEAFCA3E0FD71
:1025F3008A828B831230041208A38E828F83A3A353
:10260300A3A3A3A3A3A3A3E0640270108E828F836A
:10261300A3A3A3A3A3A3A3A3A37406F085088285FE
:102623000983A3A3E0F9120D42120D30900CE312BB
:1026330022F0022BBCE0F8A3E0F9E8FAE9FB2274EC
:10264300F4120374EAFEEBFF7508008E828F83A3F6
:10265300A3A3A3A3E060427508088E828F83A3A37C
:10266300A3A3A3A3A3A3123C118B0BEA450B6010F6
:1026730075082C8E828F83A3A3A3A3A3E0D2E0F0DB
:102683008E828F83A3A3A3A3A3E0540364016003F7
:1026930002272B43081102272BEE2418122BC960A3
:1026A30033EE241A122BC9700F1225077003A3E00F
:1026B3006970757508228070EE241BF582EF12276E
:1026C30030241AF582EF123015EE24191252261215
:1026D3000C6A80541224F4700375080112250770E4
:1026E30003A3E0697006E508D2E1F508E508601583
:1026F3008E828F83A3A3E07006E508D2E58004E50C
:1027030008D2E6F5081224DA64017006E508D2E07F
:10271300F5088E828F83A3A3E0600D12273E640128
:102723006006E508C2E0F508A908022BC112395476
:1027330012273722E0FCA3E0FDEE2212394E1239B4
:1027430086F9120E0EE922C082C08379018A828B38
:1027530083A3A3E0C394024001198A828B83A3A3BA
:10276300A3A3E0C39402400279008A828B83A3A3CC
:10277300A3A3A3A3A3A3A3E064F87003A3E0F4605B
:10278300458A828B83A3A3A3A3A3A3A3A3A3E064E8
:10279300F97003A3E0F4602E8A828B83A3A3A3A31F
:1027A300A3A3A3A3A3E064FA7003A3E0F460178ACE
:1027B300828B83A3A3A3A3A3A3A3A3A3E064FB701C
:1027C30003A3E0F4700279008A828B83A3A3A3E0BE
:1027D300F8900353E06860027900023D0774F01239
:1027E300037474DE12091DEAFEEBFF8E828F83A34E
:1027F300A3A3A3E0600E900CE11247856006900C42
:10280300E11222F07403120AEFAC82AD838E828F41
:1028130083A3A3A3124807125040E9600F74031265
:102823000AEFAA82AB83120CE2E970087901121B4A
:102833007C022AF4EE241B1239597410120AEF1287
:1028430047D07409120AEFE06021741A120AEFE00C
:10285300FD7404120AEFE0FC8E828F83124B3279EF
:1028630001120B20E96004790280C37403120AEF9A
:10287300AA82AB83120CDCE9F50A7409120AEFE0B1
:10288300702A90034DE060247422550A6422601C70
:102893007442550A644270CF7420120AEF122B124D
:1028A300600A7420120AEF122B0B70BBE9A2E650E8
:1028B300417403120AEFAA82AB83120CD0E97003AE
:1028C30002282F7420120AEF1239696403700F74FF
:1028D30020120AEFA3124777A3E0640D6014740378
:1028E300120AEFAA82AB83120E32E964017003026B
:1028F3002AF4EE242C122AFC122E207003A3E06982
:10290300701C750800780812085F780812085FEEDB
:10291300242E125226122B181230041208A3740903
:10292300120AEFE070030229D1122B18124B341252
:102933000E868A088B09EA45097003022A6E74041D
:10294300120AEFE0F88E828F83A3A3E028F8A3E0B6
:102953003400F9E8240D122B038A828B83A3A3A3EB
:10296300E068601CE88A828B83A3A3A3F090874866
:10297300120ACC850882850983A3A3A3A3120AD8CC
:102983007904E9120AEF12501D2AF8A3E0340088F3
:1029930082F583A3AA82AB83121D628A0C8B0D8CF2
:1029A3000E8D0F850882850983A3A3A3A3780C1238
:1029B30007F74003022AF4908780780C1209AC854C
:1029C3000882850983A3A3A3A3780C120AB09003FA
:1029D30065E064046008E064096003022AF4E50A20
:1029E300A2E54003022AACEE242E122BC9851882DD
:1029F300851983F0EE242F122BC9C0E07401120A4B
:102A0300EFD0E0F0EE2430122BC9C0E07402120ABA
:102A1300EFD0E0F07414120AEFE064017027740E33
:102A2300120AEF12395FEE2412122BC9687003A346
:102A3300E0697011740C120AEF1225017007741407
:102A4300120AEFE4F0EE2424122AFC12068E740418
:102A5300120AEFAC82AD837407120AEFAA82AB832A
:102A6300120BE674041208A3022AF49003AAE0648A
:102A73000160030229D17420120AEF122B1270098C
:102A8300E50AA2E650030229D17410120AEFE0F41A
:102A93007003A3E0F4605AEEFCEFFD7403120AEF37
:102AA300AA82AB83120CEE8048A2E6504474201233
:102AB3000AEF124B43701A741A120AEFE0640270A1
:102AC300307403120AEFAA82AB837900120DFC80E3
:102AD300207420120AEF122B0B7016741A120AEFCD
:102AE300E06404700C7403120AEFAA82AB83120D24
:102AF300F67422024EEFEE240BF582EF12395422C4
:102B0300F582E91247E9F822125204E0640722121F
:102B13003986640622EE242A1239511227372412E9
:102B23001239512274F4120374EAFEEBFF8C088D00
:102B3300099005C2E0600F1225077003A3E06970D6
:102B430005120C58804F7900124B27120C888A8289
:102B53008B83E58245836035A3A3A3A3A3A3E0549A
:102B630018602AE508241BF582E509122AFF1206DC
:102B7300921231FD122AFF120692EE2418125226E7
:102B8300122B9A120C9A74041208A380087900126B
:102B93002B9A120C5E80278E828F83A3A3A3A3A3F9
:102BA300A3A3A3A3122737240BF582EF122BB3227F
:102BB3003400F5831239AEFB2274031208A37F0499
:102BC30002058DEE2417F582EF1247E92274F712FE
:102BD300037474F712091DEAFEEBFF900365E064CA
:102BE30003600DE064016008E064096003022C9A4D
:102BF3008E828F83A3E0707E7C007D007A027B004F
:102C0300121B76EE2402FAEF12356A12395F900333
:102C1300561247D07953121BAC7900122C9FE064F3
:102C230009600312303285188285198374011247B3
:102C3300A69003657404F07401120AEFAA82AB83B1
:102C4300794A121BA67401120AEFAC82AD837A5B38
:102C53007B03121B949003561250367A0312303CB6
:102C6300900350E0A2E35004D2F08002C2F0124776
:102C7300931222ED801E8E828F83A3AE82AF83FCDC
:102C83007D007A037B10121B768E828F83E0F9120C
:102C93002C9FE4F0120D187409024D779003631210
:102CA3002BB7120BF890036522C082C083900334C4
:102CB300124785701F900365E014600924FC600AC5
:102CC30014600C800F90033C8032900338802D9069
:102CD300033A8028E8496008900335122FE4700C0A
:102CE3008A828B83A3E0F9120BEC801B90033512CD
:102CF30032997005120E50800E9003D212478560F0
:102D030006124777121D6D023D0774F412037474A3
:102D1300FB12091D8A088B097A0F7B001213908A14
:102D23000A8B0BAE0AAF0BEE4F7003022E148E828A
:102D33008F83124D017950121BA685088285098362
:102D4300A3E06003022DFC900363E0F47003A3E0AF
:102D5300F46034900363E064FE7003A3E0F460273F
:102D6300851882851983122E207003A3E0696017EA
:102D7300850882850983A374EA12301A7A637B0378
:102D83007950121BAC80728518828519831251E524
:102D93001247D07A567B037953121BA6900356121F
:102DA30048011247D07A597B03794B121BA67A58F4
:102DB3007B0379E1121BA690036AE0C3940F5021B1
:102DC300900358E0C0E07402120AEFD0E0F07404FC
:102DD300120AEF7401F004120AEFAA82AB83121BEA
:102DE300BE750A00780A12085F780A12085F900D10
:102DF30005E0F9122FFB1208A385088285098312C7
:102E03002E19A3F09003657403F0EEFAEFFB12475B
:102E1300B97405022BBEA3E08E828F83221251E97F
:102E2300E06822123E3F2274F512037474D812092B
:102E33001D8A088B098A828B83A3A3A312398B74FF
:102E430015120AEFAC82AD838A828B83A3A3A3A35B
:102E5300A3A3A3A3122FEAFAA3E0FB120D1E74157A
:102E6300120AEFE0706B850882850983A3A3A3A3ED
:102E7300A3A3A3A3E0C3940B40578E828F83A3A382
:102E8300A3A3A3A3A3A3E064027046EE240B122B17
:102E9300C9F4703D900365E06402603AE064066043
:102EA300359003341247856005122FE4604F900379
:102EB30065E064086005E0640470167417120AEF95
:102EC300E0F9741C120AEFAC82AD83124B27120D8A
:102ED300247428025703900334124785701F750822
:102EE30000780812085F780812085FEE2410122A8F
:102EF300FC12523E1236521230041208A38E828FF5
:102F030083124AA312357C12395F7402120AEF123C
:102F130047D0EE240D122BC9C0E07404120AEFD07F
:102F2300E012300DF508A3E0F509740F7808120AD2
:102F3300A17405120AEFE508F07419120AEFE0C054
:102F4300E07406120AEFD0E0F0741B120AEFE0C03F
:102F5300E07407120AEFD0E0F07416120AEFE0C033
:102F6300E07409120AEFD0E0F07417120AEFE0C020
:102F7300E07408120AEFD0E0F0EE2410122BC9C05F
:102F8300E0740A120AEFD0E0F0741A120AEFE0C0FC
:102F9300E0740B120AEFD0E0F07427120AEFE0C0DE
:102FA300E0740C120AEFD0E0F0741C120AEFA9824D
:102FB300AA8389088A09750A0078081208577C08C9
:102FC3007D007410120AEFAA82AB831243341208F5
:102FD300A3851882851983AA82AB83120BF2022E72
:102FE300D412329F640122E0F98A828B83A3A3A3C4
:102FF300A3A3A3A3A3A3E02290036312503A9003D5
:1030030059122BB7120DDE740222F0EE240B124775
:10301300E6221247E9FA22F07A567B0379531230FB
:103023002522121BAC7A597B03794B121BAC2290DD
:103033000363122BB7120E80227B00121B769003C0
:103043005912503A7A047B00121B7622F01252492D
:103053002274F212037474F812091DEAFEEBFF8C5A
:103063000A8D0B890C851882851983AC82AD837513
:10307300838775821874081207B7F50DEEFCEFFD10
:10308300851882851983AA82AB83124A047003755B
:103093000D019003B1803BEEFCEFFDE508240BFA34
:1030A300E5093400124A03601E850882850983A35B
:1030B300A3E0650C7011850882850983E0650A70B9
:1030C30004A3E0650B6038E5082414F582E50912D2
:1030D3002AFF123574E50845096024E50DA2E04096
:1030E300B6850882850983E0650A7004A3E0650B51
:1030F30070D5850882850983A3A3E0650C70C8AAEF
:1031030008AB09740802251DC082C0839003B10275
:103113003D0474F71203749003B11239AE8012EABE
:103123002414F582EB122AFF12398B121432EEFAB1
:10313300EFFBEA4B70E99003B1E4F0A3F0024D7AA0
:103143007F0702058D74F1120374EAFEEBFF890A0F
:103153008C088D098E828F83E08C828D83123C1BB9
:10316300AE82AF83E01243F4124365C41243F412F8
:103173003206E054038C828D83124363A2E2E4336C
:103183008C828D83124362131313541F1243F41260
:103193004361A2E7E4338C828D83A3A3A3A31232FA
:1031A300068E0C8F0D750E00780C1208577C087D67
:1031B30000E5082407124FA91208A31250148E0C1D
:1031C3008F0D780C1208577C037D00E508240F123D
:1031D3004FA91208A3E50AC3940F40148E828F836C
:1031E300A3A3A3E0C0E01231FD122AFFD0E08006C2
:1031F3001231FD125471F0023143E5082412F582B5
:10320300E50922A3A3123C1F0EAF832274F4120319
:103213007474F912091DEAFEEBFF89089003341256
:103223004785600E1232997009EEFAEFFB120E4ACF
:10323300805F900363E06E7003A3E06F70537401CB
:10324300650860097A777B03124A0470447A007B2D
:10325300021237C38B0BEA450B7036900366120AD2
:10326300CC851882851983120AD890036CE0C0E0DC
:103273007404120AEFD0E0F07405120AEF7401F03F
:103283007406120AEF124D01120BBCE9609B120B7C
:10329300C27407022BBE12329F640222125205A38C
:1032A300A3A3A3A3A3E02274F51203748A088B09D2
:1032B3008A828B83A3AE82AF83E0F9120C108E82D5
:1032C3008F83E064EB600C850882850983A3E06447
:1032D300E17009850882850983A3E4F01222ED7564
:1032E3000A01780A12085F850882850983A3E0F53D
:1032F30008780812085F7900122FFB1208A3120D39
:1033030030025706EAF0A3EBF0023D0774F612030E
:10331300749003B4E0701B7C0079017A007B001287
:103323000D60EA4B600C8A828B831247856003121F
:103333000CBE02478EC082C0831237AB401079FFA8
:10334300120D5AE9F89020E3E493C39850047901ED
:1033530080027900023D0774F01203748A088B0916
:10336300890B750C008A828B83A3A3A3A3A3A3A3B6
:10337300A3E0F9120D668A0E8B0FAE0EAF0F750A1E
:1033830001EE4F6003023438850882850983A3A3C5
:10339300A3A3A3A3125036850882850983A3A3A3FD
:1033A300A3A3A3A3124134124B34120D4E8A0C8BE8
:1033B3000DAE0CAF0DEE4F700302355B8E828F8323
:1033C300A3A3A3A3E4F0A3F0E508240B123567E05D
:1033D300C0E0122AF9D0E0F0120E26EE240CF5829A
:1033E300EF124759E508240EF582E50912395CEE20
:1033F300240EF582EF1247CD750C01EE2406F8EF8B
:10340300123563547FF0A3E054FC12529BE0540442
:1034130060030234BE900CE712412574077808124A
:103423000A1E8E828F83A3A3A3A3A3A3E04508F060
:10343300A3E04509F08E828F83A3A3A3A312357261
:1034430074077808120AA1E5085407F508E50B602C
:103453007A8E828F83A3A3A3A3A3A3A3A3A374029C
:10346300124366240D123E34E0A2E2500B90035146
:10347300124801A3A31247D0E5087003023530EECA
:103483002406F8EF3400F9E8FAE9FB8A828B83E03B
:10349300547FFCA3E054FCFDE50824FFF508E43465
:1034A300FFF50974077808120A1EEC4508F8ED4584
:1034B30009F98A828B831247D080728E828F83A30D
:1034C300A3A3A3A3A3E04480023437E508700575E2
:1034D3000A0080598E828F83A3A3A3A3A3A3E054DE
:1034E30020601212138AEA547F245F8E828F83A393
:1034F300A3A3A380238E828F83A3A3A3A3A3A3E069
:103503005410600A12138AEA540F240A80DD8E8253
:103513008F83A3A3A3A37401F0A3E412357C7404E3
:103523001237BA8B09EA4509700312474CE50CA21E
:10353300E050288E828F83A3A3A3A3124D67F9EED5
:10354300FAEFFB120D54E9601212477B6003123944
:1035530044EEFAEFFB121432750A00A90A024EF286
:103563001248C422FAE5093400FB8A828B8322A322
:10357300A3E0F508A3E0F5092212358022124FC516
:10358300A3A3A3A3A32274F412037474F712091D53
:103593007E00120D66EA4B700302364B8A828B83E0
:1035A300A3A3A3A3A3A3A3A3A3E064066003023678
:1035B3004B8A828B83A3A3A3A3A3A3A3E0FF8A8243
:1035C3008B83123E47E0C0E07408120AEFD0E0128A
:1035D300397F124A0A1247D0120D78EF54086066F9
:1035E3008518828519831250367A007B00120D48A4
:1035F3008B0BEA450B704F900363123A6F121BD685
:103603007C007D007A007B0080288E828F831239B4
:1036130069F47003A3E0F4602D9003631236521231
:103623004B341218CAE9641A601C7C007D00EEFA60
:10363300EFFB120D488A0A8B0BAE0AAF0BEE4F70ED
:10364300C97900121BDC7E01EEF97409022BBE124C
:10365300365622E0FCA3E0FD8E828F8322C082C017
:1036630083EA4B70059003B580068A828B83A3A3FC
:1036730012386F60258A828B83A3A3A3A3A3A3A37A
:10368300E0540860E5EC4D60158A828B831239693A
:103693006C7003A3E06D70D280047A007B00023D5E
:1036A3000774F2120374EAFEEBFF890A8C088D0992
:1036B3007A107B0012142CEA4B603F8A828B83A31F
:1036C300A3A3A3A3A3A3A3A3E412396DA3E50A129F
:1036D300520BA31237078A828B83A3A3A3A3E4F01D
:1036E300A3123979A3F012509FEA240CF582EB124E
:1036F3003C0B123700A3A3F0A3F0022520A3F08A0A
:10370300828B8322A3A3E508F0A3E509F02274F4D6
:10371300120374EAFEEBFF89088C0A8D0BEE4F60EF
:10372300557401650870147901120D5AE9F8902057
:10373300DBE493C398500F7911806A7404650870B1
:103743002F1237AB40F18E828F83A3A3A3A3A3A32E
:10375300A3A3A3E508123C1BA31257908E828F8369
:10376300A3A3E4F0A3F09003B51247856021800D75
:103773007402650860D079C1802BE0F8A31247FA80
:10378300A3A312386F88828983A3A370ED8003906B
:1037930003B5EEF0A3EF1237BA8B0BEA450B7003B8
:1037A30012474C7900022BC17904120D5AE9F890A3
:1037B30020D8E493C39822F01237BF227A207B00EB
:1037C3009003B0E0F91214F822C082C083E9F879BB
:1037D300009003B5801D8A828B83A3A3A3A3A3A315
:1037E300A3A3A3E068600574FF687001098A828B54
:1037F30083A3A312386F70DE023D0774F7120374BC
:10380300EA4B70059003B580068A828B83A3A312CB
:10381300386F60248A828B83A3A3A3A3A3A3A3A348
:10382300A3E06970E4EC60148A828B83E0240D12B8
:103833005027A2E240D380047A007B00024D7AC075
:1038430082C0839003B580068A828B83A3A3123838
:103853006F60128A828B83A3A3A3A3A3A3A3A3E072
:103863006970E580047A007B00023D07122BB7EAFA
:103873004B2274F21203748A0A8B0B8C0C8D0D7518
:103883000800750900EA450B602E9003B580068E8B
:10389300828F83A3A31238C2601EAC0CAD0DEEFA67
:1038A300EFFB850A82850B83121D6DE9640170DFCE
:1038B300EEF8EFF988088909AA08AB09022520E088
:1038C300FEA3E0FFEE4F2274F71203749003B512C8
:1038D300395F7C007D00800DE8FCE9FD88828983E7
:1038E300A3A312395FE8496030EA687002EB69709C
:1038F300E79003B5124B34E86A7002E96B8882895A
:1039030083A3A3700812395F9003B5800912395F4E
:103913008C828D83A3A31247D0024D7A74F71203CE
:1039230074EAFEEBFFEE4F6015120D72123991121D
:10393300477B6003123944EEFAEFFB121432024D57
:103943007AEE240C1239511239A622EE241DF58287
:10395300EF3400F58322F582EF123954123CFE2234
:10396300F582EF123954123986221239712212521A
:1039730013A3A3A3A322123971A3A3221237011203
:103983003986221251FEE022E0FEA3E0FF228E825E
:103993008F83E0241C123E381239A68E828F831245
:1039A30039A6221239AEFB12143222E0FAA3E02226
:1039B300C082C083EAFCEBFDEC4D700479058044C2
:1039C300EC24FBF582ED34FF1247837007123A0AA9
:1039D300E0F4600512139680E39003B0E0C0E012B8
:1039E3003A0AD0E0F09020DFE493F97AB77B031230
:1039F30013C0E96401700B7A007B201247507900F1
:103A030080027904023D07EC24FFF582ED34FFF5D3
:103A1300832274F4120374A2AFE433F508C2AF90A7
:103A230003B71238C26038EE24FBF582EF34FF127D
:103A330047837A007B209003B060051247538005CB
:103A4300E0F91213CCE4F50AF50B780A12085BEEE1
:103A5300FCEFFD7AB77B031213BA74021208A3E5D5
:103A630008A2E092AFEEFAEFFB022BC112503A85A7
:103A73001882851983AA82AB832274F212037474A9
:103A8300FC12091DEAFEEBFF750AFE750BFF120D12
:103A930036E960057911023C00EE2415122BC9604A
:103AA30037900CFBE0C43354E0F8E0333354FC4864
:103AB300C0E0EE2415122AFCD0E0123C1B123C118C
:103AC3008B09EA45096011750AFFEE240F122BC911
:103AD30044041247DED2E0F08E828F831224E56025
:103AE30006EE2412123C08EE2413122BC970109018
:103AF30020DEE493C0E0EE2413122AFCD0E0F08E23
:103B0300828F83E0A2E750045403801CEE24141236
:103B13002BC97015900342E0C0E0EE2414122AFC76
:103B2300D0E0F0900342E004F0EE2411122BC964BC
:103B33000170169005B9E0600D90034DE0700A8E98
:103B4300828F83E07003123C058E828F83E06401D1
:103B53007013EE240B12396364027009EE240F1202
:103B63002BC94440F0851882851983AC82AD83EE5E
:103B7300FAEFFB120D9C8A088B0974FE650A700329
:103B830074FFF470098E828F83A3A3124FB5EA45A5
:103B93000960668E828F83E0C0E07401120AEFD061
:103BA300E0F07402120AEF1250A37401120AEF85B7
:103BB300820C85830D780C12085BEE240F122AFC0D
:103BC300120692EE240E122BC9F50C780C12085F24
:103BD3009003561206927407120AEFE0F9AC0AAD8D
:103BE3000B120D9674071208A3E9FE74106E700B86
:103BF300AA08AB0912143280027E10EEF974040293
:103C0300251DEE2411F582EF123954E4F022A3129C
:103C13002BB779FF121C9C22123C1F22F08E828F3D
:103C230083A322C082C08374DE12091D8A828B8320
:103C3300A3A3A3A312395F740E120AEFE8F0A3E95A
:103C4300123CF5740C120AEF123CEE240DF582EBD4
:103C5300122BCCC0E0741A120AEFD0E0F0124F021C
:103C6300EB12395C7420120AEF123CEE2415F58234
:103C7300EB122BCCC0E07408120AEFD0E0F0EA2478
:103C83001CF582EB12395C7412120AEF123CEE241B
:103C930011F582EB122BCCC0E07409120AEFD0E0CD
:103CA300123CE274FFF07401120AEF74FFF0740225
:103CB300120AEF74FFF090874812068E7404120AFA
:103CC300EFAC82AD837407120AEFAA82AB83120BA7
:103CD300E674041208A3790074221208A380251243
:103CE3003CE622F085188285198322E8F0A3E9F0E7
:103CF300EA22123701A3123CFD22A3E0F8A3E0F964
:103D030022124B34D083D08202083B74EC1203742A
:103D130074EE12091D8A128B13ECFEEDFF890974F0
:103D230026120AEF124FB57428120AEFE0F5107449
:103D330029120AEF123E29742B120AEFE0F50EA3A3
:103D4300E0F50F7508107A1E7B0012142C74021212
:103D53000AEF12475D7402120AEF124785700302DD
:103D63003E22851882851983AA82AB837950124635
:103D730038124B347402120AEF123E47A312475D06
:103D83007410120AEF1257927402120AEFE0240B16
:103D9300123E347402F0120AEF123E477402F0121C
:103DA3000AEF1251F61250A37402120AEF124B4992
:103DB300E509F07402120AEFE0240C123E34E51018
:103DC300F07402120AEF123E31E512F0A3E513F08C
:103DD3007408120AEFE50CF0A3E50DF0740A120A59
:103DE300EFE510F0850E82850F83C082C083740DCA
:103DF300120AEFAC82AD83D083D08274031207B76B
:103E0300F97402120AEFAA82AB83120D3CE9640132
:103E1300700575080080087402120AEF12394AA966
:103E2300087412024FCCE0F50CA3E0F50D22E02458
:103E33001C123E3822F8A3E0123E3F223400F988D8
:103E430082898322124B3CA3A3A3A3A32274EE1261
:103E53000374EAFEEBFF8C088D098E828F83A374B3
:103E630008124819E060088E828F83A37410F01241
:103E73002BC660098E828F83A3E02408F0EE2415FD
:103E8300122BC960088E828F83A3E004F08E828F89
:103E930083A3A3A3A3A3A3E060198E828F83A3A309
:103EA300A3A3A3A3A3E0C3332402F88E828F83A327
:103EB300E028F0EE2411122BC96005750B0E800368
:103EC300750B008E828F83A3C082C083EE240D12F4
:103ED3002BC9D083D082F8E028250B8C828D83F008
:103EE300EE2411122BC9600512434428F085088281
:103EF300850983E0C39475400975080075090002BC
:103F03004032E0FA7B001251517003024032EEFA64
:103F1300EFFB120DA2EA85088285098312475EEE44
:103F23002402F8EF122E2612412C12406EF0EE24DA
:103F3300040808EF122E2612456EA312406EA3A3A7
:103F4300F0EE2413124054F0EE2414124054A3F064
:103F5300750A08EE2416122BC96010EE24181250AD
:103F630033E5082408125234750A10122BC6601662
:103F7300EE241A125033850A0CE508250C1252342C
:103F83007408250AF50A8E828F83A3A3A3A3A3A390
:103F9300E06059EE2407F510EF3400F51185108227
:103FA300F583E0C0E012403B122AFFD0E012405EEE
:103FB300E0C0E012403B122AFFD0E012405EA312A1
:103FC3004047120857851082851183E0C333FCE410
:103FD30033FD850A0CE508250C124FA91208A385A9
:103FE3001082851183E0C333250AF50AEE241512E6
:103FF3002BC9600BC0E012403B122AFFD0E0F01245
:104003002AF9124047120857EE240D122BC9FC7DE2
:1040130000850B0A8E828F83A3E0F8E50828F8E574
:10402300093400F9E8250AFAE9124FAC1208A3AAE9
:1040330008AB097F0A02058D850A0CE508250CF5F6
:1040430082E50922E0F50CA3E0F50D750E00780C6E
:1040530022123951124078A3A3A322F0050A8E82BB
:104063008F83A3A3A3A3A3A3A3A322A3A312529FB8
:10407300A312407822124572A3A32274F61203748A
:104083008A828B83E0FC90035312412574027808E3
:10409300120A1EEC4508FCAD09EA241212411F74F2
:1040A300067808120A1EEC4508FCED4509FDEA24D2
:1040B30015F582EB122BCC6004780180027800E4C2
:1040C300C8F9ED49FDEA2411F582EB122BCCF50872
:1040D300880974097808120A1EED4509FDEA2416B9
:1040E30012411F740B7808120A1EED4509FDEA24DC
:1040F3001712411F740C7808120A1EED4509FD8A38
:10410300828B83A3A3A3A3A3A3124125740A7808D4
:10411300120A1EECFAED4509FB02478EF582EB12FB
:104123003954E0F50875090022E085088285098382
:1041330022A3E0F98508828509832274EE120374B1
:104143008A0A8B0BECFEEDFF750F01E9C39408504F
:104153000579000243318E828F83E9F0124597E996
:104163006003750F0012457B8E828F831245C5EE67
:10417300124F03EF1245BAC0E0EE2411122AFCD00D
:10418300E01245B2C0E0EE2412122AFCD0E0123C49
:104193001B7408124FBDA3A3A3E06015124563EE81
:1041A3002413F582EF1247CD8E828F83A3E0240878
:1041B300F08E828F83A3A3A3A3A3A3A3A3E0602171
:1041C3008E828F83A38582088583091245A6EE24F8
:1041D30015F582EF1247CD850882850983E024080F
:1041E300F08E828F83A3A3A3A3A3E0601A8E828F92
:1041F30083A385820885830912458A8E828F83A3D0
:10420300A3A3A3A3124356EE2419123C08EE241BC6
:10421300123C08A3124811E070030242C5EE2419B0
:10422300F8EF3400F98E828F83A385820885830992
:10423300E0FAE50A2AF582E50B122BCC8882898302
:10424300124356FAE50A2AF582E50B122BCCC0E09D
:10425300EE241A122AFCD0E012435688828983E0A6
:104263006059F89020D7E493C398500575110C80DA
:1042730008EE2419122BC9F5118E828F83A3E0F85F
:10428300E50A28F50CE50B12433A120857E511C36A
:1042930033FCE433FD7A997B0B1243341208A3EE0B
:1042A300241B122AFC7499F0A3740BF0E511C33399
:1042B300F8850882850983E0288006EE24181254C5
:1042C3006EF08E828F83A3E0F88E828F83E0C39893
:1042D3005003024154A3E0FA8A08E50A2508F8E5E9
:1042E3000B3400F9EE241DF582EF1248D912436610
:1042F300C39AC0E0EE2417122AFCD0E01247D6601E
:104303002BEE2417F8EF3400F9880889098882F521
:1043130083E024F21248BA240EFAA3E03400FB88A7
:1043230082898312475D124344C398F0A90F024068
:10433300361213667403223400F50D750E00780CE3
:104343002290034EE0F9120B26E9F88508828509CD
:1043530083E022F0850882850983E004F022A3A389
:10436300A3A3A3F08E828F83E02274F41203748AD2
:10437300088B09EA1243FBF0EA1313543F1243F488
:10438300A3A3A3F0EAC413131243FBA3A3F0EB12FA
:1043930043ED1244057409780A120AA11243EB1281
:1043A3004404740A780A120AA1E50A5401C0E0EC35
:1043B3002418F582ED122AFFD0E012440A740B7818
:1043C3000A120AA11243EBA3124404740C780A12D2
:1043D3000AA11243EBA3A3A3A3A3A3A3A3F0740D66
:1043E3007808120AA102272BE50A54018C828D83D7
:1043F30022540F8C828D832254038C828D83A3A33A
:1044030022A3A3A3A3A3A3F08A0A8B0B22C082C077
:104413008379008A828B83A3A3A3A3A3A3E090033E
:104423004D600FE070228A828B83A3A3E070190989
:104433008016E060138A828B83124B2B900356E025
:104443006A7003A3E06B70E7023D0774F012037414
:104453008A0A8B0B890C8C088D0912459712457BB0
:104463008508828509831245C5E508124F03E509CE
:104473001245BAC0E0E5082411F582E509122AFFC6
:10448300D0E01245B2C0E01231FD122AFFD0E01293
:1044930048E174081248FA6011124563E5082413D1
:1044A3001248D51248E1E02408F085088285098383
:1044B300A3A3A3A3A3A3A3A3E060178508828509ED
:1044C30083A31245A2E50824151248D51243662496
:1044D30008F0850882850983A3A3A3A3A3E0601939
:1044E300850882850983A3AE82AF8312458A850836
:1044F3008285098312436104F0AA08AB09120DB443
:10450300E9F50D7056850882850983A3A3A3A3A3A8
:10451300A312456E7014E0FA8A0EE50A250EF8E53B
:104523000B1247C2E50CC39A80211245A2E8240E60
:10453300F8E91247C290034EE0F9120B268E828FE0
:1045430083E0F8E50CC39824F2C399C0E0E508249E
:1045530017F582E509122AFFD0E0F0A90D024EF209
:10456300E50A2408F8E50B3400F92212457222E02B
:10457300850882850983A322850A82850B83A3A3E9
:104583001245DBE0F9EA22E0F8E50A28F582E50BBB
:104593001247E9228A828B83124EF7120DAE22AEA6
:1045A30082AF83E0F8E50A28F8E50B3400F922121C
:1045B30045EEA3A3A3E022123954E81245E7A3A3CF
:1045C300E022A3A3A3A3A3A3A3A3A31245E7124596
:1045D300DBA3A3E0F9EAF822E0FA850A82850B83DC
:1045E300A3A3A322F0A3E91245EE22F0850A828554
:1045F3000B83A3A3A3A322C082C0837AC57B0379C1
:10460300E2121BA67AC57B03023D07C082C08390DA
:104613000356023D04C082C08374FE12091D85182F
:1046230082851983AA82AB83794B124638124B34A5
:104633007402023CDD121BA685188285198322C0F1
:1046430082C083794A121BA6023D0774F6120374D3
:104653009003CDE0FE04F0EEF9120D668B09EA45F6
:104663000970EDEE60EAF902478E74F0120374EA02
:10467300FEEBFF8C088D09890A7410120AEFE0F52E
:104683000B7411120AEFE0F50C120E86EA4B70134D
:10469300E50C7042A90AAC08AD09EEFAEFFB120E65
:1046A3009E806EE50A6021EA2402F582EB122BCC90
:1046B300850A082508F8E4340013E813F070098A22
:1046C300828B83A3A37401F0E50C6045E50B7006B0
:1046D3008A828B83E4F07401650C7035E50B9003DB
:1046E300D47004E4F0802AE004F0900CE8E0F89041
:1046F30003D4E0C398401AE4F0900359E06E7003CA
:10470300A3E06F700CEEFAEFFB7901120C0A12476B
:1047130017024EF27A017B009003B0E0F91214F213
:1047230022C082C08374016A7001EB70077A0112A0
:10473300474E8012900CDF12475DEA4B600512244E
:10474300A78003124717023D077A207B009003B02E
:10475300E0F91213C6223400F583EAF0A3EBF0224A
:10476300C082C083900CE1023307C082C083900CE7
:10477300E302330712520522EE240CF582EF3400D4
:10478300F583123CFEE849221208A37F0202058D3D
:10479300A2F0E4338518828519831247AF79521248
:1047A3001BAC221247AF7942121BAC22F0AA82AB98
:1047B3008322AA08AB099003B0E0F912139C2234B8
:1047C30000F9E508241DF582E509123954E8F0A340
:1047D300E9F022124FC1A3A3E022A3F0EE241512A5
:1047E30047E622F582EF3400F583E0221247F322F5
:1047F3003400F583E0F8A3E0F98882898322E0F8A6
:1048030012480722A3E0F98E828F83A3A322F0EE3E
:10481300241812395122F0EE24161239512274F45D
:10482300120374EAFEEBFF7A007B0412471B124863
:10483300B01247D09003657409F0120DC08A088B3B
:1048430009AC08AD09EE2413122AFC124B34124AA8
:1048530004640170487A0F1248A360418A828B83F3
:1048630074021248BAFAA3E0FB8A828B83A3E0FCAA
:104873008A828B83A3A3E0FBEC850882850983A34B
:10488300A312475E88828983124B3812412C124748
:10489300DDFAA3E0FB794A121BAC1247B5022BC128
:1048A3007B001213908A088B09EA4509229003368C
:1048B300123CFE900CE322F0EE241DF8EF1248C4E4
:1048C30022123E3FE0221248CD223400F5837401C8
:1048D300F022F582E509123954E8F0A3E9221248DF
:1048E300E5221248E922F0850882850983A3221272
:1048F30048E9A3A3A3A3221248F2A3A3E022124DE3
:104903000B120E1422EE2417F582EF1248CD120D6E
:10491300C0EE241A123951EAF0A3EBF02274F41218
:10492300037474F312091D8908EAFEEBFF7C0D7D05
:10493300007900851882851983AA82AB83121372CA
:10494300EE241D122AFC1251F6A3E0F8741F5860DE
:104953000A7901121B7C79000249FBE8A2E55008A1
:10496300740C120AEF7401F0E8A2E75008740B12FA
:104973000AEF7401F0E8A2E6740A5008120AEF7411
:1049830001F08008120AEFE064017005EE24138041
:1049930003EE24151250337402120AEFAA82AB837A
:1049A300121B94122AF9124A091247D0740A120AE6
:1049B300EFE0640170331224DA703B120DCC8A0AE3
:1049C3008B0BA80AA90BEE240B122BC9687003A347
:1049D300E0697022120DC0EAFCEBFD7402120AEFCB
:1049E300AA82AB83124A04600D851882851983AAB3
:1049F30082AB83120C04A908740D022BBEEEFAEFEE
:104A0300FB121B8EE922E0124A0E22F8A3E0F9857D
:104A130018828519832274F612037474F312091D24
:104A23008A088B09ECFEEDFF7C0D7D00790085186B
:104A330082851983AA82AB8312539BA3A3A3A3A347
:104A4300A3A3A3A3124AA3124AACF8A2E550087485
:104A53000B120AEF7401F0E8A2E75008740A120A75
:104A6300EF7401F0E8A2E6EE50042413800224154B
:104A73001250337402120AEF124A95A3A3E0C0E066
:104A8300740C120AEFD0E0124D03120BFE740D02E8
:104A9300478BAA82AB83121B9485088285098322E4
:104AA300E0124A0EE8F0A3E922F012394E1251FA4D
:104AB300A3E02274F712037474E112091DEAFEEBFA
:104AC300FF8E828F83124B38A3A3A3E0A2E0505141
:104AD3008E828F8312263A8A828B83A3A3A3A3A3F6
:104AE300A3E054FE124B508A828B83124B49E0F9A8
:104AF3008A828B83E0241CFAA3E012356A124B34BA
:104B0300120DBAE9701B741D120AEF124B43701198
:104B1300851882851983AC82AD83EEFAEFFB120E02
:104B230002024D758E828F83A3A3A3A3A3A3A3A382
:104B3300A3122BB722124B3C221251FEA3A3A32292
:104B4300123986640422E0241B123E3822123CE60A
:104B5300AC82AD8322E9F87900740468600A740AB0
:104B630068600574036870010902083B74F6120358
:104B7300748A828B837420F0A3A37401F0120BB0A8
:104B83008A088B09AE08AF09EE4F60108E828F83BF
:104B93007401F09003A3E07003124908EEFAEFFBEF
:104BA30002478EC082C0839003B97401F0E9A2E387
:104BB30050037403F0E9A2E15004E0D2E2F0023DB5
:104BC3000774F612037479007C008A088B0978084D
:104BD3001205D3F8FF07F74BF54BF54BF54BF54BA8
:104BE300EE4BF24BF74BEB4B0C80097C0480050C2E
:104BF30080F67C089003B9E05C6003098003EC60F5
:104C0300010902478E74F61203748A828B83E07063
:104C130012A3124785600C8A828B83124B33121CBA
:104C2300CC80047A007B0002478E74F512037474FF
:104C3300F312091D8A088B09ECFEEDFF750A12EACF
:104C4300450970057900024CFC900356E065087035
:104C530004A3E065097014120DC0EAFCEBFD124ACF
:104C6300007005750A018003750A0085188285198D
:104C730083E4F004120AEFE508F0A3E509124D03FB
:104C8300120B74E960277403120AEFAA82AB831232
:104C93000B56E964017016750A017403120AEFAC2E
:104CA30082AD83124A006021750A00801C7412656C
:104CB3000A70169003A2E06402700EEEFCEFFDAAE8
:104CC30008AB09120B8CE970DFEEFCEFFDAA08AB11
:104CD30009120E8CE9F8740A687005750A018017C9
:104CE30074A0687012EEFCEFFDAA08AB09120E98CF
:104CF300AA08AB09120EAAA90A740D02570374027B
:104D0300124D0722124D0B22123CE6AA82AB8322DC
:104D130074F7120374EAFEEBFF8E828F83A3A3A3BF
:104D2300A3A3A3A3A3E06015EE2415122AFC122B60
:104D3300A7120E2CE964017004790180258E828FFD
:104D430083A3A3A3A3A3A3A3E06015EE2413122AB2
:104D5300FC124D67FAA3E0FB120E2CE9640160D943
:104D630079008013123656A3A3A3A3A3A3A3A3A3DB
:104D7300E022741F1208A37F0102058D74F0120351
:104D83007474FD12091D8A088B09ECFEEDFF890B73
:104D93007413120AEFE0F50C750A017401120AEF9D
:104DA300740412522E6048E50C601DEA2417F58244
:104DB300EB12547112521C8A828B83E0D2E7F0EA21
:104DC3002414F582EB123C0B124F02EB1247EF74E3
:104DD30003125794EE88828983A3A3F0EF88828914
:104DE30083A3A3123700123707120BAAE9F50AA906
:104DF3000A7403024EEF74EC12037474F512091D66
:104E03008A0A8B0B890C8C0E8D0F741F120AEFE02C
:104E1300F50D7420120AEFE0F510A3E0F5117E0101
:104E2300EE120AEF740AF0E97007E50DC333240AA2
:104E3300F0124FD47003024ED6124FE97409F0A357
:104E4300E50CC43354E0450D124FFBE50C702D7C8B
:104E5300008023ECC333F8E433F9E51028F8E511B7
:104E630039F988828983124EE388828983122E1945
:104E7300F0A30EAF830CECC3950D40D7E5082417C0
:104E8300F582E5091248C9120DC0E508241AF58216
:104E9300E5091247597403120AEFAC82AD83AA0ADB
:104EA300AB0B120B5CE96019E5082416F582E509E2
:104EB300124EDD120AEFA882A983E50824181247CF
:104EC300C9850882850983125790AA08AB09120B7A
:104ED300AAE9FEEEF9740B024FCC1248CD740322FB
:104EE300E08E828F83F0A3AE82AF83221208A37F6A
:104EF3000802058D1239AEF9EA2400E439FB22EAEF
:104F0300240BF5822274EE1203748A0C8B0D890E26
:104F13008C088D097412120AEFE0F50F7413120A4C
:104F2300EF124FB59005281247856077E50FC3331D
:104F3300F8E433F9E8240EFAE93400FB1213908AFB
:104F4300108B11AE10AF11EE4F60588E828F8374A9
:104F5300D4F0A3A3E50CF0A3E50D124FBDE50EF0CD
:104F6300AC08AD09EE2405FAEF125237EE240D1208
:104F73002AFCE50FF0850A08850B09750A007808F5
:104F8300120857E50FC333FCE433FDEE240EFAEFAA
:104F9300124FAC1208A3EEFAEFFB9005281251F65C
:104FA300121D6D024036FAE5093400FB12136674D4
:104FB3000322E0F50AA3E0F50B22124FC122124FA0
:104FC300C522123C1FA3A3A3221208A37F0C020530
:104FD3008D851882851983AA82AB83120E148A08E1
:104FE3008B09EA450922EA240BF582EB1247E9FE15
:104FF300A3E0FF8E828F8322F0A3AE82AF83AC0E39
:10500300AD0FEEFAEFFB12500D22121B9412501447
:1050130022EE2408FEEF3400FF22E0FA8E828F8313
:10502300A3A3E022FEA3E03400FF8E828F83E0225D
:1050330012395112503A22E0FCA3E0FD22122BB7A1
:10504300120DA82274F6120374EAFEEBFF9003BA62
:10505300801388828983E06E7003A3E06F603A88CF
:10506300828983A3A312478570E87A047B00121414
:105073002C8A088B09A808A909E849601C88828939
:10508300831250A39003BA124B3488828983A3A35B
:1050930012475D9003BA1247D002478E8A828B83F0
:1050A300EEF0A3EFF02274F41203747E009003BABF
:1050B30080070E88828983A3A312478570F4EEC309
:1050C30033FAE433FB125151607E7F009003BA80C0
:1050D3002488828983125036EFC333FAE433FBE525
:1050E300082AF582E5093BF583ECF0A3EDF00F8880
:1050F300828983A3A312478570D79003AB1225142B
:105103007003A3E0697808701912085BEEF50A785A
:105113000A12085F7C777D0379009003AB12515C20
:10512300801A12085BEEF50A780A12085F7C777D15
:105133000379009003AB124B34120E3E7403120832
:10514300A3AA08AB09121432120BC2022BC1121408
:105153002C8A088B09EA450922122BB7120E442226
:10516300C082C08380128A828B83A3A312395F908B
:1051730003BA1247D01214329003BA12386F70E692
:10518300023D0774F612037490036312398B900384
:10519300CE1251E51247D07ACE7B037950121BAC65
:1051A3009003CE122733FAEFFB120EA49003CE1214
:1051B300398B90052A12478560257A067B001213E6
:1051C30090EA4B601A8A828B8374D5F0A3A3E4120E
:1051D300520B0412521C90052A1251F6121D6D0235
:1051E300478E1251E922E0F8A3E0F9900363228E7F
:1051F300828F831251FA221251FE22E0F8125204D6
:1052030022A3E0F58388822212520F221252132224
:10521300F08A828B83A3A3A32212520FA3EEF0A3DF
:10522300EFF022F582EF1247E9F922124901EA4B26
:1052330022FAE5093400FB121B9422124808A3A3A7
:10524300A3A3A3A3A3229020D9E4932401F8E434D5
:1052530000F97A027B002274F71203747E00800443
:105263001258470E12536B40F77E00EE12528674AB
:10527300FEF0A30412529BE4F00EEEC3940340EB42
:10528300024D7A75F003A4F8A9F074BC28F87403EE
:1052930039F988828983A32212529F22F088828956
:1052A300832274F71203747F0080010F9020D6E4E9
:1052B30093F8EFC3985026EF1254576A7003A3E094
:1052C3006B70E81257F46C7003A3E06D600A74FF0F
:1052D3006C700374FF6D70D312536280047A007B89
:1052E30000024D7A74F61203747CFF7DFF7AFE7B15
:1052F300FF120E68EA4B70407508008036E50875AA
:10530300F017A4F8A9F0743428F582740A125469CA
:10531300600C743328F582740A125469701374256F
:1053230028FE740A39FF8E828F83125476EEFAEFC9
:10533300FB05081253D140C502478E74F41203745F
:105343008A088B09ECFEEDFF800B120E7AEEFCEF60
:10535300FDAA08AB09120E68EA4B70EE022BC1746A
:105363002528FA740A39FB229020D6E493F8EEC379
:10537300982274F7120374EAFEEBFFEE4F601012EB
:10538300539574FEF0A30412579A14F0A304F00289
:105393004D7A7C177D0079001213728E828F8322DF
:1053A30074F7120374EAFEEBFF7508008018E50832
:1053B30075F017A4F8A9F01257FF7003A3E06F600C
:1053C3000312584F05081253D140E3024D7A90203F
:1053D300D6E493F8E508C3982274F6120374120E08
:1053E300688A088B09A808A909E849600AE8240D16
:1053F300FAE93400FB80047A007B0002478E74F4E0
:105403001203748A0A8B0BECFEEDFF750800750915
:1054130000802EE50975F017A4F8A9F012583A6038
:105423001EE509125457650A7004A3E0650B700367
:1054330075080AEEFCEFFD1256F660034308A0055B
:10544300099020D6E493F8E509C3985004E5086071
:10545300C202272B75F017A4F8A9F0125462227424
:105463002528F582740A39F583E022F582EF123993
:1054730054E422122BB7120CA02212529FA3A3A30F
:10548300A3A3A3A3A32274F21203748A088B09ECC7
:10549300FEEDFF740E120AEF124FB5750C007C007F
:1054A3007D01801012138AE50CF5F0EA84ACF075E7
:1054B3000C007D0078007900800312563312568F5A
:1054C3004003025555E8FAE9FBEA75F017A4FA859B
:1054D300F00D75F017EBA4250D12566B7003A3E0C6
:1054E300F460D712564965087004A3E0650960CAE1
:1054F3001256496E7003A3E06F60BF125649650AE6
:105503007004A3E0650B60B2E8FAE9FBEA75F017F3
:10551300A4FA75F017EBA4250DFB74332AF58274F6
:105523000A12562A509474016D050C608DE50CC364
:105533009C4087E875F017A4F8AAF075F017E9A462
:105543002AF9742528F582740A39F583124B34023B
:10555300562778007900800312563312569C400375
:1055630002560EE8FAE9FBEA75F012A4FA85F00D8B
:1055730012567B64FE7003A3E0F460DC125671657F
:10558300087004A3E0650960CF1256716E7003A31F
:10559300E06F60C4125671650A7004A3E0650B6086
:1055A300B7E8FAE9FBEA75F012A4FA75F012EBA476
:1055B300250DFB74B42AF582740812562A5099E813
:1055C300FAE9FBEA75F012A4FA75F012EBA4250DC3
:1055D30012563C64016081E06402700302555B74FF
:1055E300016D050C700302555BE50CC39C5003026F
:1055F300555BE875F012A4F8AAF075F012E9A42A35
:10560300F974AB28F582740802554CE50C6011EC73
:10561300700E7401650C60030254A77C010254B23E
:105623007AFE7BFF0225203BF583E014C394062218
:10563300E8240108E93400F922FB74AF2AF58274E7
:10564300083BF583E022E8FAE9FBEA75F017A4FAD0
:1056530075F017EBA4250D12565E22FB74252AF56F
:1056630082740A3BF583E02212565E64FE22E8FA56
:10567300E9FBEA75F012A4FA75F012EBA4250DFB11
:1056830074AB2AF58274083BF583E0229020D6E4BC
:1056930093FAC3E89AE99400229020D2E493FA742F
:1056A3000193FBC3E89AE99B2274F51203748A08F9
:1056B3008B09ECFEEDFF750A008002050A9020D6E7
:1056C300E493F8E50AC3985028EEFCEFFDE50A756C
:1056D300F017A4F8A9F01256F660E0E50A75F01782
:1056E300A4F8A9F0742528F582740A39F5831237D2
:1056F300098010742728FA740A39FB121B8EE922D9
:105703001208A37F0302058D74F01203748A088BB9
:10571300098C0A8D0B890C120E6E8A0E8B0FAE0E3E
:10572300AF0FEE4F6055125395E508F0A3E509124C
:10573300579A125792E50C600AEE240F122AFCE5E1
:105743000C8006EE240F12578AF09003D01247857F
:10575300601A9003AAE064017008EE240E12546EDE
:105763008010EE240E122AFC74078006EE240E121B
:10577300578A12304F120223125781024EF2EE243F
:105783000D123951E8F022123951740122A3A3E515
:105793000AF0A3E50BF022123580A32274F512035D
:1057A300748A088B09ECFEEDFF750A00800F12570F
:1057B300FF7003A3E06F600312584F050A9020D6D1
:1057C300E493F8E50AC3985025E50A75F017A4F8A1
:1057D300A9F01257F465087004A3E0650970CF744B
:1057E3002F28F582740A39F5831250A380CD02570E
:1057F30006742F28F582740A12546922742F28F52F
:1058030082740A1254696E2274F7120374EAFEEB6F
:10581300FF7508008019E5081254576E7003A3E062
:105823006F700A12583A7005E508125848050812B5
:1058330053D140E2024D7A742728FA740A39FB12D5
:105843000B56E922EE75F017A4F8A9F01253621271
:105853000E7A2212529F123CFEE84922C082C08374
:1058630074F812091D851882851983AC82AD83757E
:10587300838775821074081207B785188285198388
:10588300AC82AD83124A046401700479008002790A
:10589300017408023CDDC082C0838A828B83E0D21C
:1058A300E7F012160002632DC082C0837900125DF7
:1058B30065127306C082C083900330126F28D083B1
:1058C300D082C3E09CA3E09D500C1274D5FAA3E0F0
:1058D3001258DC60010902632DFBEA75F00BA4FA90
:1058E300A8F075F00BEBA428FB900332E02AF8A391
:1058F300E03B8882F583E0540F2274F71203748926
:1059030008125D65125E0BACF075F00BE9A42CF97F
:10591300900332E028FEA3E039FF740165086006B6
:105923007402650870208A828B83125DF71269DB2B
:1059330074026508701B125CB6125E3E70138E8291
:105943008F83E4F0800BEA2403FCEB125DD9125D34
:10595300E5EEFAEFFB120B2C02666074F41203748B
:105963001278C979008E828F83E06076890A890B69
:105973008065E50A75F00BA4FAA8F075F00BE50B4A
:105983001258E97046E50A75F00BA4F8AAF075F011
:105993000BE50B125E1D8E828F83E08508828509DD
:1059A30083125EFF850882850983A31269DBEE24D7
:1059B30003FCEF125DE2126504127280AA08AB09C0
:1059C300120B2C7901900330126F43E50A2401F581
:1059D3000AE50B3400F50B125CBEE50A9AE50B9B56
:1059E300409002679474F5120374EAFEEBFF740BA4
:1059F300120AEF126509750A01EC4D602BEC12785F
:105A0300E5ED1273061269D37901120B38E50845E7
:105A130009606F850882850983A31278D37902AA66
:105A230008AB09120B38805AE5084509602B12733D
:105A33000A126BFD126505125E28700CEEFAEFFB7D
:105A4300120B3EE9F50A80CBEE2403FA125D607077
:105A5300317903EEFAEFFB80CA8E828F83A3E06471
:105A6300FE7003A3E0F4700BEE24030A0A0A125D2E
:105A730060700CEEFAEFFB120B3EE9F50A8003753A
:105A83000A00A90A7F0302058D74F71203749003B9
:105A930030126665EA4B602FEA75F00BA4FAA8F0A2
:105AA30075F00BEBA428FBEAFEEBFF12142C90031A
:105AB30032126665900332126F2F6012EEFCEFFD17
:105AC30079001213728007900332E4F0A3F00266A8
:105AD30060900330126EB3C3EE98EF9922C082C078
:105AE30083EC4D6005121B9480097C087D007900CE
:105AF30012137202632D74F61203747900EA4B6079
:105B0300187800880812748CEB1274D16004790140
:105B1300780808E8C3940840EA02667874F7120329
:105B23007474F312091DECFEEDFF85188285198349
:105B3300E4F004120AEFEAF0A3EB127010740312FC
:105B43000AEFAC82AD83EEFAEFFB120B50EEFAEFE5
:105B5300FB120B5602665B74F712037474F312099B
:105B63001DECFEEDFF851882851983E4F0EAFCEB5A
:105B7300FD7403120AEF125EF87401120AEF126643
:105B8300718E828F831269DB74FE68700374FF6900
:105B9300600479018002790002665B74F712037472
:105BA300EAFEEBFF125BFC7014125C078E828F839C
:105BB300E0F4F88A828B83E058F0120B2CA90802D8
:105BC300666074F7120374EAFEEBFF7508008E82B9
:105BD3008F83E06022125BFC701D125C078A828B4C
:105BE30083E08F838E82F8E058700CE0F88A828B12
:105BF30083E048F0120B2C80C4120B32E9F50874D1
:105C0300016508221278DE125E0F125D51FAA3E0DD
:105C130039FB2274F41203748A088B097C007D001B
:105C2300125CB6125DE5125D761278D079008508B4
:105C330082850983A3E064FE7003A3E0F460717EB0
:105C4300007F008062EEFAEF1258DC6057EEFAEF45
:105C5300FBEA75F00BA4FAA8F075F00BEBA428FB94
:105C6300900332E02AF50AA3E03BF50B8508828511
:105C73000983A3127006850A82850B83A3E06A70E9
:105C830003A3E06B701EE50A2403FAE50B125D61C2
:105C9300700AE50A2403FCE50B125DE2125D6A79E2
:105CA3000112731C126099125CBEEE9AEF9B409531
:105CB300026794EA24030A0A0AEB22900330127261
:105CC300C1C32274F31203748A088B098A828B83FB
:105CD300A31278D3125D651278D0750C00125CB6EE
:105CE300125D6170547E007F008049125D43FAA308
:105CF300E0398A82F583E0540F6036125D43F50A7A
:105D0300A3E039F50BE50A2403FCE50B125DEC3443
:105D130000FB121B8EE964017017850A82850B83D1
:105D2300A31272D4A31269DB125D6A750C0112739C
:105D33001C126099125AD440B2A90C7F0502058D3A
:105D4300EEF8EFF9E875F00BA4F8125D5122AAF012
:105D530075F00BE9A42AF9900332E02822EF125ED2
:105D630038221278E4EB22125D76127317EEF0A359
:105D7300EFF022E5081278E5E5092274F5120374C1
:105D8300EAFEEBFF8E828F83A31278D37C007D0023
:105D9300EE24030A0A0AEF125DE5EEFAEFFB120B9B
:105DA30032E9F50A7401650A70291278DE125E0B76
:105DB300AAF075F00BE9125E1D850882F583125D6A
:105DC300F7125E28700DE5082403FCE509125DD97E
:105DD300125DE5025A853400FDEE2403FAEF221228
:105DE3005DEC3400FB120B50223400FDE508240364
:105DF300FAE50922A3125DFC22125E0022E0F8A359
:105E0300E0F98E828F83A322125E0F223400F58382
:105E1300126EB7E875F00BA4F822125D57F508A3CC
:105E2300E039F50922E8F0A3E9F0E5082403FAE5EF
:105E330009125E3822125E3E6401223400FB120B0B
:105E430056E92274F312037474E612091D1278C919
:105E5300750C01750800750900750A00750B00853E
:105E63001882851983E4F0EE2403FCEF3400FD74FB
:105E730003120AEF125EF8E964017023740B120A2D
:105E8300EF1269D37401120AEF12700A7003A3E0D0
:105E93006960518518828519838582088583097411
:105EA3000D120AEFE4125EFF740E120AEF1269DBA1
:105EB300740D120AEFAA82AB83120B74E9640170AA
:105EC3000B740D120AEF85820A85830B780A120878
:105ED3005BAC08AD09EEFAEFFB120B447402120837
:105EE300A3E9F50CEEFAEFFB120B6EA90C741A1270
:105EF30008A3025D3E125F97120B7A22F08E828F07
:105F030083A3126EB322126088C3E89AE99B22E846
:105F1300240108E93400F922E493F8740193F92287
:105F230074F212037474F312091D8A088B09ECFED0
:105F3300EDFF750A00EEFAEFFB120B988A0C8B0D3E
:105F4300A80CA90DE849603E88828983E065087042
:105F530004A3E06509602F88828983A3A3A3A3E038
:105F6300C3940550211272F7851882851983740131
:105F7300F0120AEF1272FBEEFCEFFD7403120AEF4C
:105F8300125F90750A01A90A740D026B23125F97C1
:105F9300120B8622AA82AB83120B508518828519B5
:105FA30083AA82AB8322C082C083EAFCEBFD7A0022
:105FB3007B0002632AC082C0837C007D0002632AC7
:105FC30074F412037474F312091DEAFEEBFF8C0AD6
:105FD3008D0BC3EC94F8ED94FF4007EE4F70030272
:105FE3006078750800750900802A851882851983F1
:105FF3007401F01260B2120AEF1260C060137403EE
:10600300120AEFAC82AD83EEFAEFFB121B8EE9703E
:10601300451264F79020D2E41274F0E50898E5097C
:10602300995052E50875F012A4F8AAF075F012E53C
:1060330009A42AF91274E360D8EE4F70AD74FF65BA
:106043000A700474FF650B60C81260A2650A7004CD
:10605300A3E0650B70BBE50875F012A4F508A8F082
:1060630075F012E509A428F50974AB2508FA74083C
:106073003509FB80047A007B0002678F126F0BC324
:10608300EA9CEB9D22E493FA740193FB22EA240138
:106093000AEB3400FB22EE24010EEF3400FF221240
:1060A30060A62274AB28F582740839F583E0227464
:1060B300AD28F582740839126EB1740B22E8F0A38F
:1060C300E91269F7120B80E922C082C08390033C76
:1060D3007400F0A3740DF002632D74F7120374EAD5
:1060E300FEEBFF900365E06408601BE06404601648
:1060F3008E828F83E0540364017048126504126A30
:1061030075E06406703D8E828F83A3A3E064FE7006
:1061130003A3E0F4602D8E828F83A3A31266719094
:106123000356E0687003A3E069700BEE2415F58253
:10613300EF1274D16008120D8AE9F5088008120D78
:106143009080F67508C2EEFAEFFB121432025BC0C0
:1061530074F41203748A088B098A828B83E0F8A390
:10616300E0FAE82AFAE43400FB12142C8A0A8B0BB7
:10617300AE0AAF0BEE4F6063850882850983E0FCAE
:106183007D0079001213728E828F83A3A31278D3BA
:10619300120DC68E828F83A3A3A3A31266658508FF
:1061A30082850983E0F8EE28F8EF34001269D78579
:1061B3000882850983A3E0C0E0EE240D127303D0A7
:1061C300E0F0120DD8EE240E127303E9126FF8E01B
:1061D300C0E0EE2411127303D0E0F0EEFAEFFB02FD
:1061E300679474F412037474EB12091D8A088B0903
:1061F3008C0A8D0BE9FE900365E064046005E0649E
:1062030008700479C2802EA37808120AB0EE9003B6
:106213006C12636B120AB07405120AEFE9F074048E
:10622300120AEF7401F07407120AEFE4F0900365A9
:106233007402126323741502679174F61203747463
:10624300EB12091DEAFEEBFF126F2C60030262E101
:106253007A077B0012142C900334126665126F2C9C
:1062630060788E828F83120ACC900335126A78127B
:106273000AD81277A5C0E01262EDD0E0F0EE240553
:10628300FAEF3400FB8A088B098A82F583E0C0E0C9
:106293001262E8D0E012678BE0C0E01262E8A3D09C
:1062A300E01262FD120ACC851882851983120AD87E
:1062B30088828983E0C0E07405120AEFD0E0F0859C
:1062C3000882850983E0C0E07404120AEFD0E0F08D
:1062D3007407120AEF126322800679108002790193
:1062E30074150266751262EDA322900334E0FAA3DB
:1062F300E0F5838A82A3A3A3A322F08E828F832255
:10630300C082C083126F2C600D9003341272B6905A
:106313000334E4F0A3F0120D18120E5602632DE4B9
:106323001269F7121BB822120B9ED083D082020887
:106333003B74F412037474EB12091D8A088B098CE5
:106343000A8D0B900365740112636B120AB0740516
:10635300120AEFE9F07404120AEF7403F0740712DF
:106363000AEF126322026238126371780822F08501
:1063730018828519832274F71203747C01120BD4DB
:1063830002666074F212037474FC12091DE9851825
:1063930082851983F0EAFEEBFF8C0A900363126F88
:1063A30028120D0C8A088B09EA4509700579CA027F
:1063B30064F28A828B83A3A3A3A3A3A3A3E064FEB3
:1063C3007003A3E0F4700579C30264F290036312CF
:1063D3007006120E80850882850983A3A3A3A3A355
:1063E300A3A3A3A3A3E00490037612664E74021240
:1063F3000AEF7402F014120AEFAA82AB83120E148E
:106403008A0C8B0DAE0CAF0DEE4F70030264E912D4
:106413006504126BF17406F0A3A882A9839003505C
:106423001272C7126E90F0EE2413127303740112EA
:1064330072607440F0A3E4126FF1A3A3126511120A
:1064430069DBEE2411127303E50AF0EEFAEFFB1297
:106453000BAAE9FE60030264EB9003657409F0E59F
:106463000824071264FBAA08FB794B121BAC8508AE
:10647300828509831266401269DB900358E0F88530
:106483001882851983E068600CE09003581269F361
:1064930079E1121BAC900CE3126671900CE5E06895
:1064A3007003A3E069601A9003361269DB900CE570
:1064B300127006120DF0900CE5126F287A01126F1C
:1064C300137A007B049003B0E0F91214F2900CE508
:1064D30012650974027808120A1EAC08AD09FA7B2A
:1064E30004126F1580027E109004FDE4F0EEF9743F
:1064F30004026B23E5082401F508E5093400F509D6
:1065030022EE12731222E0F508A3E0F509221265C8
:106513001522125E00A32274F612037474E21209A8
:106523001D851882851983ECF0A3EDF0EAFEEBFFDD
:1065330089087428120AEFE0F509900365E0640402
:106543006005E06408700579C202663B7429120A8B
:10655300EFE064FE7003A3E0F4700579C302663BC9
:1065630090036574031269F37950121BAC742912FA
:106573000AEFAA82AB83794B121BAC85188285196B
:10658300831266471269DBE508900358F0742912F9
:106593000AEF1266401269DBE50990035012664E5A
:1065A30074CE55094480C0E07412120AEFD0E0F0B3
:1065B300740F120AEF7402F07429120AEF12667153
:1065C3007407120AEF1269DB12666B7410120AEF7A
:1065D3001269DB7405120AEFE508F0741B120AEF67
:1065E300E4F090036B740FF07A6B7B037954121B06
:1065F300AC90036A740FF07A6A7B037947121BAC81
:1066030090036AE0C3940F50237405120AEFE0C0AD
:10661300E07402120AEFD0E0F07404120AEF74017E
:10662300F004120AEFAA82AB83121BBE7405120A8E
:10663300EFAA82AB83121BB2741E026675126EB38D
:1066430090035922126EB390036322F0EEFCEFFD28
:106653007A777B03121B9422740D1208A37F010225
:10666300058DEAF0A3EBF022851882851983126E5B
:10667300B3221208A37F0202058D74F41203748AF5
:10668300088B098A828B8312731FEE4F7003026794
:1066930089900310126F2F60158A828B83A3A3E066
:1066A300F9EEFAEFFB900311126A78121D6D8E82D8
:1066B3008F83A3A3A3A3A3A3A3A3A3E064027074E0
:1066C3008E828F83A3A3A3A3A3A3E0540270030228
:1066D300675B850882850983A3A3E064E960798EFB
:1066E300828F83A3A3A3A3A3A3A3A3A3A3E0701451
:1066F300900CF6E0048E828F83A3A3A3A3A3A3A38A
:10670300A3A3A3F08E828F83A3A3A3A3A3A3A3A373
:10671300A3A3E01412678BA3A3A37404F0900CF754
:1067230012725AE8F0A3E91275378B0BEA450B7026
:10673300031274978E828F83A3A3A3A3A3A3A3A3FC
:10674300A3E0640260128E828F83A3A3A3A3A3A3F7
:10675300A3A3A3E06406702E8E828F83A3A3A3A3B7
:10676300A3A3E0A2E0501F850882850983A3A3E0C9
:10677300F9EEFAEFFB121C428E828F83A3A3A3A32D
:10678300A3A3E054FEF080091269E922740D1208F4
:10679300A37F0402058D74EC12037474DD12091DCA
:1067A300EAFEEBFF8C088D097437120AEF780C129E
:1067B3000A92750A007405120AEFAC82AD83120BBC
:1067C300087412120AEFE070087415120AEFE06001
:1067D300207405120AEFE0A2E6501E8E828F83A377
:1067E300A3A3A3A3A3A3A3A3127006120E20E9607D
:1067F300087903121B7C0269C17405120AEFE05485
:106803000C64047005750B018003750B00E0A2E5B1
:106813005035750A01E50BA2E0402C120DC68A1013
:106823008B11A810A911126504E0687003A3E06935
:1068330060157405120AEF1278DA127002121C4EF8
:10684300E96004790480AC7405120AEFE0A2E65013
:10685300227406120AEFE0540370187405120AEF4B
:10686300E0540C640C600CE0540C64086005751073
:106873000180037510007405120AEFE05403F874E5
:106883000268700C1278DA127002120B1A0269C1D4
:10689300740168703AE510A2E050031269C97405E7
:1068A300120AEFA882A9837403120AEFE8F0A3E99E
:1068B300126EA78518828519831269E1E0C0E0741E
:1068C30002120AEFD0E01269F3121D440269C1E813
:1068D30060030269C190034DE0640170108E828FE2
:1068E30083A3A3A3A3A3A3E07003026846742212A5
:1068F3000AEF7402126EA7741A120AEF1269DBE52B
:1069030010A2E050087405120AEF1269C9E50BA240
:10691300E0EE5069240FF582EF1274D1C0E07417D2
:10692300120AEFD0E0F0900312126F2F7003026986
:10693300C1120DC68A128B13A812A913741A120A54
:10694300EFE0687003A3E0697074780C1208537861
:106953000A12085F780812085BA910740C120AEF78
:10696300AC82AD837421120AEFAA82AB8390031227
:10697300126A75121D6D74071208A38041FAEFFBAA
:10698300121CFCE96038780C120853780A12085F6D
:10699300780812085B900363120692EE2412F582C4
:1069A300EF1274927423120AEFAC82AD83740E1249
:1069B3000AEFAA82AB83121C3674091208A374234C
:1069C3001208A302752A1278DA1272BD120B0E2274
:1069D300E0F8A3E0F9127311E8F0A3E9F022E8F07C
:1069E300A3E91269E9221269ED221274ADA3A3226D
:1069F3001269F722F0851882851983AA82AB832254
:106A030074F71203741215D0026660C082C0831239
:106A130015DC02632D74F71203741215E20266602B
:106A2300C082C0831215E802632DC082C083121591
:106A3300EE02632D74F71203741215F40266607488
:106A4300F71203741215FA02666074F7120374EAFC
:106A5300FEEBFF89087401650870147900120C704D
:106A63009020DDE493FC7900EEFAEFFB120C520266
:106A73006660E0F8A3E0F58388822274F71203745A
:106A8300900C99E0F97E00800B1274BD540D6401E3
:106A93007001190E126C7F5003E970ED0266607489
:106AA300F7120374900C9AE0F97E00800B1274BD08
:106AB300548D64817001190E126C7F5003E970EDDF
:106AC30002666074F2120374890BE975F006A4245C
:106AD3000CF508E5F01264FF8A0CE508250CFAE5CD
:106AE300093400FB12142C8A0C8B0DAE0CAF0DEE87
:106AF3004F6027AC08AD097900121372126504E5E3
:106B03000BF0EE2508F8EF3509F98E828F83A3A3E6
:106B1300A3A3A3A3A3A3A31269DBEEFAEFFB800352
:106B23001208A37F0602058D74F6120374EAFEEBC6
:106B3300FF120C34900C98E0F8E9C39840099003D5
:106B43003E127006120C3AEE2402F8EF1272DE9037
:106B530003401272C7900340E004F0EEFAEFFB1219
:106B63000C40850882850983E00273A9C082C08333
:106B7300790090033E8001091270068A828B83E5B7
:106B830082458370F202632D74F7120374EAFEEBFD
:106B9300FFEE4F605690033E126F2F604E8882893E
:106BA300837A007B00EE65827003EF6583600FAA32
:106BB30082AB83126BF1E5824583602F80E79003FC
:106BC3003E126BFD687002EF698E828F837008122C
:106BD300667190033E800312752F1269DBEEFAEFA4
:106BE300FB121D14EEFAEFFB121432026660126BF5
:106BF300F522126EB78882898322126EB3EE22C009
:106C030082C08390033E800488828983126F2F6041
:106C13000B88828983126F28EC4D70EC8A828B83F8
:106C2300E4F0A3F0E8496006888289838003900337
:106C33003E12666502632D74F712037490033E805F
:106C4300048A828B83126C7A4B60257E0080010E4E
:106C5300126C7F50ECEE75F006A4FCADF0EA2CFC50
:106C6300EB3DFDEC2410F582ED126CCF70E1800456
:106C73007A007B000266601272C1EA22126CD8EEBF
:106C8300C3982274F71203747D0080010D126CD433
:106C9300EDC3985034ED75F006A4FEA8F0E8FFEAC2
:106CA3002EFEEB3FFFEE2410F582EF126CCF70DC6B
:106CB300ED75F006A4FEE8FFEA2EFAEB3FFBEA24AB
:106CC30011F582EB1274D14CF00266601274DD6927
:106CD30022126CD8221278E4EB3400F583E0F82218
:106CE30074F012037474F512091D8A088B09890A5A
:106CF3008C0BE9A2E050147508FC7509FFA2E15062
:106D030005D2E4026DA5D2E3026DA5126FE0700314
:106D1300A3E06970057900026E72AC0A7902AA08D1
:106D2300AB09120C8EE960EDE50AF50C780C12083C
:106D33005F79027CFE7DFFAA08AB09126F3312084C
:106D4300A3E96003026E70E50AC2E5F50A9003A3A6
:106D5300E07051E50AA2E6404B7403120AEFAC82DD
:106D6300AD83AA08AB09120B5CE97032126F1E8A5D
:106D73000C8B0DA80CA90DE8FEE9FFE8496025EE90
:106D830024020A0AEF125E3E601AEE2402FCEF347C
:106D930000FD7403120AEFAA82AB83121B94E50A67
:106DA300D2E5F50A900341E0F50C900356E0F50EA9
:106DB300A3E0F50F780E12085B7D017C0090034180
:106DC300E0F9AA0EAB0F120C7674021208A3E9F8CD
:106DD300900341E004F0E86003026E70E50AA2E567
:106DE3005004740E80027406C0E07401120AEFD0DE
:106DF300E01273258A0E8B0FAE0EAF0FEE4F606954
:106E0300126E90126EA7888289837401F07478558C
:106E13000AA31278EAE50C1278EAA3E508F0E5097B
:106E2300126E7FE4F0E50AA2E5500F7403120AEF35
:106E3300AC82AD83E82406126E768E828F83A3A381
:106E430074FDF0A374FFF0E50B60159020DEE4936E
:106E5300F8E50BC3985009EE2413127303E50BF006
:106E6300EEFAEFFB120BAA80067910800279C77441
:106E73000B8047FAE93400FB121B94228882898332
:106E8300A3A3A3A3126E8B221272EDA322EE2417E7
:106E93001273147401F0120DC0EE241A127314EA63
:106EA300F0A3EB22F01278DE3400126EB122F583E8
:106EB300126EB722E0F8A3E0F9221208A37F0802BA
:106EC300058D74F61203747A007B101274A46008A3
:106ED3009003B37401F080299005C4E06401900C21
:106EE300F57006E0FC79018004E0FC79037A007B0D
:106EF30000120C529020CE126F077A007B10126F93
:106F030015026678126F0B22E493FC740193FD2241
:106F13007B009003B0E0F91214E622900363126F32
:106F230039120E6822127274229003341272CE2226
:106F3300120C64740122E0FCA3E0FDAA08AB092251
:106F4300E0F50AA3E0F50B2274F21203748A088BAE
:106F530009ECFEEDFF890A7900126FE07003A3E0EC
:106F630069700479018073750B01900356E065081D
:106F73007004A3E06509601F750B00780B12085FAE
:106F8300A90AEEFCEFFDAA08AB09120E3874011230
:106F930008A3E9F50B80417900EEFAEFFB120C88A8
:106FA300EA4B602B8A828B83A3A3A3A3A3A3E054FE
:106FB30018601C7508FE7509FF780812085B8A8241
:106FC3008B83A3A31206921277901208A3800979E8
:106FD30001EEFAEFFB120C16A90B026B26120C94AE
:106FE3008A0C8B0DA80CA90D900356E06822126F32
:106FF300F8A3A3A322F0850882850983A3A32234DF
:1070030000F5831272C122125DFCE068221269F757
:10701300120B74227F0A02058D74F2120374EAFEC6
:10702300EBFF8C0A8D0B8908740E120AEFE0F50949
:1070330074FC6E700374FF6F70057900026B267920
:1070430000120C948A0C8B0DAE0CAF0D900356E01E
:107053006E7003A3E06F7006E509A2E650DCA90990
:10706300127721706179007AFE7BFF1277217056C7
:107073007418550970030271537800790080031264
:107083005F129020D4125F094003027153E8FAE9BA
:10709300FBEA75F007A4FAACF075F007EBA42CFB40
:1070A30074872AF582740A3BF583E0541870D0E89C
:1070B30075F007A4F8AAF075F007E9A42AF974811A
:1070C30028F8740A39F988828983A3A3A3A3A3A305
:1070D300E05418600974185509700302703D8882E2
:1070E3008983EEF0A3EFF074FE650A700474FF6504
:1070F3000B600312727A88828983A3A3A3A3A3A339
:10710300E509F0A2E0500D88828983A3A3A3A3A37A
:10711300A3D2E2F07401650888828983A3A3A3A3A1
:10712300A37038740112729EE0541860289020DC1A
:10713300E49388828983A3A3A3A3127268120E86A1
:107143008B0DEA450D600302703D780079008039AC
:10715300790202703F900355E080D7E06401700329
:1071630002703D88828983A3A3A3A3A3A3E0541839
:1071730060079020DCE4938004900354E0126E7F58
:10718300E508F002703D125F129020D6E493FAC333
:10719300E89AE99400400302703D7A007B00804B3B
:1071A300EAFCEBFDEC75F007A4FCAEF075F007ED1F
:1071B300A42EFD74832CF582740A3DF58312731F8C
:1071C300E8FCE9FDEC75F017A4FC85F00975F017F0
:1071D300EDA42509FD74252CF582740A3DF583E0A1
:1071E3006E7003A3E06F609E1260909020D41260D3
:1071F3007F40AD126F07EC6A7002ED6B7088E87523
:10720300F017A4F8AAF075F017E9A42AF974252851
:10721300FE740A39FF7C177D007900EEFAEFFB124A
:1072230013728E828F8312728090036312725AA339
:10723300A3A3A3A3A3E8F0A3E91272607401F0EE81
:10724300240E1273037401127288120223EE240DAA
:10725300127303E8027185126515A3A322F0EE24CD
:107263000F12731422F0127271AA0AAB0B2290034D
:1072730063E0FCA3E0FD2288828983A3A3E50AF0EF
:10728300A3E50BF022F012728D229020D9E493240F
:1072930001F8E43400F97A027B0022126E8BA322F8
:1072A300125F1BE822ECFEEDFF9020D7E493F8E990
:1072B300C398221272C1121432223400F583E0FA09
:1072C300A3E0FB22E088828983F022126EB7E849AB
:1072D30022126EB3850882850983223400F9880857
:1072E300890922F0A3041272ED22F088828983A314
:1072F300A3A3A32288828983E508F0A3E509F022EA
:10730300F582EF12731722125D7612731722EE24A1
:107313000BF582EF3400F58322900330E0FEA3E007
:10732300FF221269F7120E142274F21203748909F0
:107333008A0A1272A840047900804075080080020E
:107343000508E508C39509502AE508C333F8E43373
:10735300F9EE28F582EF39F583C082C083120DC69A
:107363008A0C8B0DD083D082E0650C7004A3E0659A
:107373000D70CDE50A650870BE7901026B2674F6BF
:10738300120374E9FE7900120C94EEF9120C888A48
:10739300088B09A808A909E84960061278F6F9805C
:1073A300027904026678F902667874EE120374EACD
:1073B300FEEBFF890A8C0C8D0B7412120AEF126517
:1073C300091274771272AF5051890E750F0074034E
:1073D300780E120A1E74B7250EF582740B350FF55D
:1073E30083E0F8E50CC398502DE50B60247511007C
:1073F30074037810120A1E74B12510F8740B35113A
:10740300F988828983A3A3A3A3A3A3E50C127481A0
:10741300F07900027017790380F979007AFE7BFF17
:10742300127477E49365107004790280E6E50B60CB
:10743300E0890E750F007403780E120A1E74B125CD
:107443000EF8740B350FF988828983A3EEF0A3EF4E
:1074530012748112729EE50C126E8774FF1277B359
:10746300E50AF0900354E088828983A3A3A3A3A32E
:10747300A3A3809C120C82E9F5109004EF221278EA
:10748300EEA3E508F0A3E50922EA2508F582221216
:1074930074DDF9227A207B009003B0E0F91213C661
:1074A300221275408B09EA450922F08E828F83A34D
:1074B300A3A3A322E4125F1CC322EE75F006A4FC6F
:1074C300ADF0EA2CFCEB3DFDEC2411F582ED1274DA
:1074D300DD221278E4EB1274DD223400F583E0221E
:1074E30074AF28F582740839F583E0F4221274B876
:1074F3002239F583E02274F4120374750A008002C2
:10750300050A9020DAE493F8E50AC398500D850A3A
:1075130008127521126CCF70E7E4F002679474F1DE
:107523002508F582740B227F0C02058D126EB38A37
:10753300828B8322F07A2012753E227B009003B067
:10754300E0F91214F82274F6120374E9FC7900804E
:1075530001099004EF1272AF50398908750900745C
:10756300037808120A1E74B212748D740B12759983
:10757300E06A7003A3E06B70D8890875090074038F
:107583007808120A1E74B112748D740B127599E087
:107593006C70BE0266783509F5832274F7120374A2
:1075A30089085308407E007F008056EEF8EFF9E823
:1075B30075F007A4F8ACF075F007E9A42CF9748111
:1075C30028F582740A1274F46A7003A3E06B702EB8
:1075D30074FE6A700374FF6B7003027672EEF8EF49
:1075E300F9E875F007A4F875F007E9A42CF9748796
:1075F30028F582740A1274F45440650860711260AD
:10760300999020D412769740A21276927002E96F75
:10761300707674FE6A700374FF6B706C7E007F007B
:1076230080031260999020D4127697505BEEF8EFA6
:10763300F9E875F007A4F8AAF075F007E9A42AF9A8
:10764300748528F582740A1274F470D6A908EEFAC8
:10765300EFFBEA75F007A4FAA8F075F007EBA4288E
:10766300FB74812AF582740A3B127004120C70EECB
:1076730075F007A4FEA8F075F007EFA428FF748146
:107683002EFA740A3FFB80047A007B0002666012C4
:1076930072A36E221274B7EE98EF992274F212035A
:1076A300748A088B09890B8C0A7900120C94A90A35
:1076B300127721601988828983A3A3A3A3A3E0651A
:1076C3000B700B88828983A3A312731F800A740132
:1076D300650B7045AE08AF0974FE6E700374FF6FDF
:1076E300603712772F120E86EA4B60239003D01275
:1076F3006F2F600C8A828B83A3E060137900801B59
:107703009020D9E493F88A828B83E0C39840EDE517
:10771300086E7003E5096F70BB7901026B26120CCA
:10772300888A0C8B0DA80CA90DE84922127271EE00
:10773300FAEFFB2274F4120374EAFEEBFFE9A2E60C
:10774300501B79FF121C9C8B0BEA450B60099003BD
:1077530056E0FAA3E080327AFE7BFF802D120B9273
:107763008A0A8B0BA80AA90BE849601A88828983C5
:10777300A3A3A3A3E0640160D588828983A3A3A301
:10778300A3E0640260C8EEFAEFFB0267947900900D
:1077930003561272748A828B831272C1120C9A740A
:1077A3000422EE2404F8EF3400F988828983E0226E
:1077B300F0888289832274EC1203748A108B11EC93
:1077C300FEEDFF7414120AEFE0F50CA3E0F50D745F
:1077D30016120AEF126F43E9600C7508007808125D
:1077E300085F790B80657900EEFAEFFB120C888A4B
:1077F300088B09EA4509605B8A828B83A3A3A3A351
:10780300A3A3E0A2E0504C781012085BAC0CAD0DC2
:10781300AA0AAB0B120E9274021208A38A0A8B0BEC
:10782300A80AA90B74FE68700374FF6960258508B4
:1078330082850983A3A31269DB75080078081208FF
:107843005F790CAC10AD11EEFAEFFB120E38740138
:107853001208A302752A74F71203747881790A7CDB
:10786300007D00804D88828983A3A3A3A3A3A3E003
:10787300A2E0402E88828983A3A3E06A7003A3E079
:107883006B701F88828983A3A3A3A3A3E064017001
:107893001188828983A3A3A3A3A374031278EA1292
:1078A30078D3EC24010CED3400FDE82407F8E93427
:1078B30000F99020D4E493FE740193FFC3EC9EED92
:1078C3009F40A2026660EAFEEBFF1278DE12731796
:1078D30074FEF0A304F022AC82AD83EE1278E5EFE0
:1078E30022EA240BF582221278EE22F08882898321
:1078F300A3A3228882898374FEF0A3041278EE1472
:107903001272E6E4126E8BF022C082C08353FF3FF3
:1079130085FFFF53F1FE43F30C53F2F37586807535
:10792300C4809005F17470F0A374C1F0A3E0541FF8
:10793300F09005F5740FF0A3744AF09005E77470A6
:10794300F0A374C1F09005EBE0541FF09005ED74C3
:10795300CEF0A3E0540F4410F074069005E9F0A3B1
:107963007424F09005EC7480F09005EBE4F090053E
:10797300EE7412027DDCC082C083EA241BF582EB25
:107983003400F583E0F8A3E0F9900830E8F0A3E9C8
:10799300F08A828B83A3E06403600A8A828B83A3C9
:1079A300E06404700575C2D8800375C23B8A828B7C
:1079B30083A3E0600B146012146019146020802804
:1079C30075C50890082C7423802675C50990082C6A
:1079D3007412801C75C50A90082C7409801275C531
:1079E3000A90082C7406800875C50B90082C740344
:1079F300F08A828B83A3A3E0600D75C44243F31026
:107A0300C28543FD20800375C4029070C1E09006D7
:107A130024F0A3E4F075D1F775D608FC7D01E5C227
:107A2300F4F97A247B0612137243864090082FE4FC
:107A3300F090082E027DDC74F6120374780079004E
:107A43008031127A9FE08A828B83F0A3AA82AB8370
:107A5300E5C2F4F509127A91E4F0A3E509F0900781
:107A630024E004F0C394804002E4F0E8240108E930
:107A73003400F9C3E89CE99D5009127A91A3E065AB
:107A8300C260BFC285E8FAE9FB7F0202058D900759
:107A930024E0C333FEE433FF127A9F2274242EF5CD
:107AA3008274063FF5832274F2120374EAFEEBFF3D
:107AB300127D18F8EC28F8ED3400F9C3E89481E955
:107AC300940040077A007B00027B6BE5A8F8C2AF05
:107AD30090082A127B92E8A2E792AF7A007B00809B
:107AE3001A127B70C0E0850D0875090074077808C9
:107AF300120A1E127B7AD0E0127BA7C3EA9CEB9D8D
:107B030040DFA2AFE433F508C2AF90082AE0650D69
:107B13006038E508A2E092AF127B927A007B008086
:107B23001A127B70C0E0850D087509007407780888
:107B3300120A1E127B7AD0E0127BA7C3EA9CEB9D4C
:107B430040DFA2AFE433F508C2AF850D82A88212ED
:107B53007DBDE50CF0E8127DBAE0700690082F7445
:107B630001F0E508A2E092AF7F0602058DEE2AF54B
:107B730082EF3BF583E022850C0A7428250AF8740A
:107B8300073400F9E82508F582E93509F58322E091
:107B9300F50DF50874282508F58274083400F5837B
:107BA300E0F50C22F0050CEA24010AEB3400FB2279
:107BB30074F61203747E00127D72706B900724E0DA
:107BC300FAEA127D7A70100AEAC3948040027A00BE
:107BD300900724E06A70EA900725E06A6011EAF0F2
:107BE300A3E07004E595A3F090072674C68020A354
:107BF300E0601DA3E0F8E595C398F8900726E0F947
:107C0300E8C3995009E0C398F0E595A38001E4F037
:107C13001218948A088B09A808A909C3E89470E983
:107C23009400400A0E8022900726E4F0801BC3E8EC
:107C33009440E9940040060E0ED285800CE849601A
:107C430008900726E070027E0490082BE06006E4AB
:107C5300F0EED2E4FE90082EE06019E595F9900865
:107C63002DE0F8E9C398F890082CE0C398500590EC
:107C7300082EE4F090082FE0605690082EE0705034
:107C8300A3E4127D1C120A1E742825087407350903
:107C93009005EF127D1C120A1E742825089005F02A
:107CA300127DCD9005F4F09005F3E054E0F09008D8
:107CB3002AE0E06401F0A2AFE433F8C2AF75D61056
:107CC30000E5D6A2E450F975D1EF75D710E880230B
:107CD300A2AFE433FAC2AF127D186016E5D6A2E470
:107CE3004010E5D1A2E4400AEAA2E092AF12189A4A
:107CF3008005EAA2E092AFEE6018900830E0F8A3A6
:107D0300E0F9E849600CEEFA7900E0F58388821225
:107D13001D6D027A8C127DD222F090082AE0F508BC
:107D23007509007407780822C082C0837A007B003B
:107D3300127D72703878007900E8FCE9FDECC333FA
:107D4300FCED33FD74242CF58274063DF583A3E02A
:107D530065C27008EA24010AEB3400FBE824010839
:107D6300E93400F9C3E89480E9940040CC806B9037
:107D73000724E0127D7A22C333F8E433F97424280C
:107D8300F582740639F583A3E065C222C082C083FD
:107D930075D1EF90082AE0127DBAE4F090082B0425
:107DA300F0E59590082DF0A37401127DCD60069047
:107DB300082F7401F080236401F8127DC122742816
:107DC30028F58274083400F58322F0127DD22290C4
:107DD300082AE0F8127DC1E022F0D083D0820208A5
:107DE3003BC082C08312187680F074F7120374E9E3
:107DF300700312187C7900802474F7120374E970FD
:107E03000512188280047A007B00801174F7120334
:107E130074E9700512188880047A007B007F0102E0
:107E2300058DC082C08312188E80AF74F71203745D
:107E3300E9700512189480047A007B0080DFC08209
:107E4300C0831217B0D083D08202083B74F41203AC
:107E53007474F612091DC2AF53BEFBE59DA2E65032
:107E6300FA0078F8790100E824FF18E934FFF9E80B
:107E73004970F375C600E59E70FC43BE04906270C2
:107E83007408F0C29043FE01C29143FE02C29443C0
:107E9300FE10438F01C290C291C2948017C2900B0F
:107EA30074086B6003027F887B000AEAC394065060
:107EB30003027F88C2907900908748120ACC740627
:107EC300120AEF120AD880129087807808120A9259
:107ED3007406120AEF78081209867406120AEFC0B4
:107EE30082C08390875C7808120A92D083D082780C
:107EF30008120A7240D2A2905004C2908002D2901B
:107F0300A2915004C2918002D291A2945004C294CF
:107F13008002D2949005CEE0600CE4F0740A12085B
:107F2300A37F0402058DA281508C09740A697088AD
:107F3300C290C291C294C29078007900A281500489
:107F430078007900127FE440F39061A3E0C0E0740D
:107F530004120AEFD0E0F09061A4E0C0E0740512CF
:107F63000AEFD0E0F09008A3E0C0E07402120AEF39
:107F7300D0E0F090088EE0C0E07403120AEFD0E086
:107F8300F07B007A00A28150FCD290D291D294EB84
:107F93007004D2908002C29078007900A2815004CC
:107FA30078007900127FE440F3C290C291C294C278
:107FB300907508017509007407C39B7808120A1E9F
:107FC3008A0A851882851983E582250AF582E58365
:107FD3003400F583E055087003027EA0D290027E40
:107FE300A2E8240108E93400F9C3E894F4E9940110
:067FF300A2D265D033228A
:108000000000000000000000000000000000000070
:10801000000000F800000000000000333000000005
:1080200000100C06100C060000000000000000000C
:1080300040C07840C0784000043F04043F0404007E
:10804000007088FC08300000001820FF211E00008E
:10805000F008F000E018000000211C031E211E00A3
:1080600000F00888700000001E2123241927211029
:1080700010160E00000000000000000000000000CC
:10808000000000E018040200000000071820400073
:1080900000020418E0000000004020180700000063
:1080A000404080F0804040000202010F01020200C7
:1080B000000000F0000000000101011F01010100AB
:1080C000000000000000000080B070000000000010
:1080D0000000000000000000000101010101010199
:1080E0000000000000000000003030000000000030
:1080F0000000000080601804006018060100000005
:1081000000E010080810E000000F102020100F0001
:10811000001010F8000000000020203F2020000088
:1081200000700808088870000030282422213000E0
:1081300000300888884830000018202020110E00E8
:108140000000C02010F8000000070424243F240091
:1081500000F80888880808000019212020110E0066
:1081600000E0108888180000000F112020110E0078
:1081700000380808C83808000000003F0000000070
:108180000070880808887000001C222121221C0031
:1081900000E010080810E0000000312222110F005A
:1081A000000000C0C00000000000003030000000EF
:1081B000000000800000000000008060000000005F
:1081C0000000804020100800000102040810200078
:1081D00040404040404040000404040404040400C3
:1081E0000008102040800000002010080402010058
:1081F000007048080808F000000000303601000058
:10820000C030C828E810E0000718272423140B000A
:108210000000C038E0000000203C23020227382084
:1082200008F8888888700000203F202020110E0068
:10823000C03008080808380007182020201008005F
:1082400008F808080810E000203F202020100F0048
:1082500008F88888E8081000203F20202320180014
:1082600008F88888E8081000203F2000030000007C
:10827000C03008080838000007182020221E02001D
:1082800008F808000008F808203F210101213F20DC
:10829000000808F8080800000020203F2020000007
:1082A00000000808F8080800C08080807F000000F7
:1082B00008F888C028180800203F20012638200030
:1082C00008F8080000000000203F20202020300097
:1082D00008F8F800F8F80800203F003F003F2000B1
:1082E00008F830C00008F808203F200007183F00B9
:1082F000E01008080810E0000F10202020100F00E8
:1083000008F808080808F000203F210101010000DA
:10831000E01008080810E0000F18242438504F001F
:1083200008F8888888887000203F2000030C3020DF
:1083300000708808080838000038202121221C001D
:10834000180808F8080818000000203F2000000066
:1083500008F808000008F808001F202020201F004F
:108360000878880000C83808000007380E010000AF
:10837000F80800F80008F800033C0700073C030079
:10838000081868808068180820302C03032C3020DF
:108390000838C800C83808000000203F200000004E
:1083A00010080808C83808002038262120201800A6
:1083B000000000FE020202000000007F404040007A
:1083C000000C30C000000000000000010638C000B2
:1083D00000020202FE000000004040407F0000005A
:1083E000000004020202040000000000000000007F
:1083F000000000000000000080808080808080807D
:108400000002020400000000000000000000000064
:1084100000008080808000000019242222223F205A
:1084200008F8008080000000003F112020110E009D
:108430000000008080800000000E1120202011002C
:10844000000000808088F800000E112020103F20DE
:108450000000808080800000001F22222222130062
:10846000008080F0888888180020203F20200000AD
:108470000000808080808000006B94949493600062
:1084800008F8008080800000203F210000203F206D
:1084900000809898000000000020203F202000006D
:1084A000000000809898000000C08080807F00005D
:1084B00008F8000080808000203F24022D3020003A
:1084C000000808F8000000000020203F20200000E5
:1084D0008080808080808000203F20003F20003FFF
:1084E0008080008080800000203F210000203F200D
:1084F0000000808080800000001F202020201F00BE
:10850000808000808000000080FFA12020110E00EC
:108510000000008080808000000E112020A0FF80DD
:10852000808080008080800020203F21200001008A
:1085300000008080808080000033242424241900DF
:10854000008080E0808000000000001F20200000EC
:108550008080000000808000001F202020103F202D
:10856000808080000080808000010E3008060100BD
:1085700080800080008080800F300C030C300F0062
:1085800000808000808080000020312E0E3120008D
:10859000808080000080808080818E7018060100BD
:1085A00000808080808080000021302C22213000DB
:1085B00000000000807C020200000000003F4040FC
:1085C00000000000FF00000000000000FF000000AD
:1085D0000002027C800000000040403F00000000DC
:1085E0000006010102020404000000000000000077
:1085F0005465786173496E737472756D656E7473CA
:1086000000527370204E6F6E204D61746368656414
:10861000000610AC0CC817A0124A1DA81C5E153A23
:1086200015537461727444657669636520455252CE
:10863000004173736F6320436E66206661696C004E
:108640004D61746368204465736320526571004511
:108650006E65726779204C6576656C004D4F4445B8
:1086600020756E6B6E6F776E005363616E2046618E
:10867000696C656400696E73656375726974790A03
:10868000004E6F6E204D6174636865640014080FBE
:10869000010000025487025487456E644465766980
:1086A00063653A0053616D706C6541707000000045
:1086B00000000000000000000000000000000000BA
:1086C0000000000000000000000000004173736F14
:1086D0006320436E66006C6564206F70656E0052A7
:1086E00073702053656E740047726F75702031008F
:1086F0005375636365737300000800040002000192
:10870000506172656E743A006C6564206F66660035
:108710000000000000000000FFFFFFFFFFFFFFFF61
:10872000FFFFFFFFFFFFFFFF494545453A2000825D
:10873000003A003B00020002050103060300007935
:10874000657370003000000000000000100E000093
:108750003C000000010002006E6F70000058000035
:1087600000E1F50564000000FEFFFFFF00000C00C3
:1087700000F8FF07000000FF1027000080510100F3
:10878000010000000200020030000874F7120374B8
:10879000E9FE121162EE900C96F090030C743EF01C
:1087A000A3741DF090030E7438F0A3741DF09003B1
:1087B000107432F0A3741DF0900312742CF0A374A3
:1087C0001DF0029CCE74F7120374E9FE900302E4DC
:1087D000F0EE900301F07CC57D057A037B03121B4C
:1087E00094900CFAE090030BF0121D08029CCE74DA
:1087F000F41203748A088B09EB5480605B900301C8
:1088000012B0B5604A8E828F83E06401703212A28A
:10881000BB12068EEE241212B986F50A780A1208E7
:108820005F12888B12085BEE240B128ADF1206920D
:10883000EE241712B0C512112074091208A3800883
:10884000E064027003121C60EEFAEFFB121396AAAA
:1088500008E5096480FB8030EA5402600C900C95B6
:108860007401F0EA6402FA801FEA54046005EA64C5
:108870000480F3EA5408600C121D02E5086408FA4B
:10888000AB0980047A007B00028961EE240FF50AAF
:10889000EF3400F50B780A2274F41203748A088B03
:1088A000098A828B83A3A3A3E02410129CDAFA1214
:1088B000A34270030289478E828F837402F0A3E47F
:1088C00012A330A3A3A3A3E8F0A3E912A06EA3A36D
:1088D000A3A3A3A3A3F0E5082403F8E50912989B3A
:1088E0002410129B418E828F83A3A3A3A3F0EE24B6
:1088F00009FA128949129D19F5838882E0A2E58E52
:10890000828F83A3A3A3A3A3500474018001E4F086
:10891000E5082403F88882898312B19FEA12B8BD62
:10892000EB128AE212895412085712B8E1EB129D39
:108930006C8E828F83A3A312A2C81208A3EEFAEF53
:10894000FB90030112A3528018EF3400FB8E828F3C
:1089500083A3A322E0F508A3E0F509750A007808CF
:10896000227F0402058D74F21203748A088B09ECCD
:10897000FAEDFB740E120AEFE0FC1211928A0C8BD6
:108980000DAE0CAF0DEE4F6023AC08AD0912118097
:10899000E96019AC08AD09EEFAEFFB121186E97037
:1089A00007EEFAEFFB12117A7900800279B4029790
:1089B0002B74EE12037474F712091D8A0A8B0BECE8
:1089C000FEEDFF750FB3750E00750C00750D008080
:1089D0000CE50C2401F50CE50D3400F50D9020D0CC
:1089E000E493F8740193F9C3E50C98E50D994003FD
:1089F000028AD0AA0CAB0D1211E08A088B09EA4555
:108A00000960CE8A828B83A3A3A3A3A3E0250EF5DE
:108A10000EF510C3E50A9510E50B940050B37C15D4
:108A20007D007900EEFAEFFB12A0BFA3A3A3A3E59C
:108A30000AC3950EF8E028C333F8E433F9E50828B3
:108A4000F582E50939F583A3A3A3A3A3A312A71075
:108A5000A3129D07EAFCEBFDEEFAEF1298EFA3E0FC
:108A60006401700A12A2BB74011298178043851822
:108A700082851983AC82AD8385088285098312B112
:108A80009D1211C8E9602D7408120AEFE0C0E012CF
:108A9000A2BBD0E0F07408120AEFE06403851882EC
:108AA000851983700CAC82AD83EE240B12980A807A
:108AB00003129D59850882850983129892A3A312F7
:108AC000A318C0E0EE2414128ADFD0E0F0750F0086
:108AD000A90F74091208A37F0A02058DEE240CF574
:108AE00082EF12A30C2274F7120374E9FE8A828BC0
:108AF00083A3A3A3A3A3A3E0540860298A828B8342
:108B0000A3A3A3A3A3A3E0540260178A828B83A329
:108B1000A3A3A3A3A3A3A3A3E06406600574E96EC3
:108B20007003121D20029CCE74E812037474F712B5
:108B3000091D7407120AEF12A0D1E9851882851960
:108B400083F0ECFEEDFF7424120AEF780C120A9207
:108B50007513008E828F8312B1998E828F83A3A3A7
:108B6000A3E0F912119E8A148B15EA4515700302D1
:108B70008D42EE241012A8AAA914120C288A168B72
:108B800017EA45177003028D42EE2406F510EF3404
:108B900000F5117C00851082F583128D888E828FFE
:108BA00083A3A3A3E0851682851783A3A3A312AD95
:108BB0001FF8A3E0F9851682851783A3A3A3A3E872
:108BC000F0A3E9129319851682851783A3A3A3A3A3
:108BD000A3A3A312A8CA851682851783A3A3A3A360
:108BE000A3A3F0EE12B8BDEF128FA2120857EE1237
:108BF000B8E2EF129D6C851682851783A3A3A3A309
:108C0000A3A3A3A3A312A2C81208A3751000028CE9
:108C1000C2850A82850B8312B19D1211CE8508820E
:108C2000850983A3EAF0A3EB12A2E1A3A312A09CFF
:108C300012A369E0A2E6500F850882850983A3A3E9
:108C4000A3A3A3E0D2E1F0E5137063850882850950
:108C500083A312AD09900356E0687003A3E0697026
:108C60004D850882850983A3A3A312A8B6780C12A8
:108C700008537427120AEFE0F50A780A12085F74A5
:108C800026120AEF1206929003631206927900747C
:108C900010120AEF12A059121C3674091208A3858B
:108CA0000882850983A3A3A3A3A3E04405F074016C
:108CB0002510FC8E828F83A3A3A3A3A3A3128D8868
:108CC0000510E50A450B6052851008C3E5089514A8
:108CD000E495155045E51075F006A4F8A9F0E516E1
:108CE00028F8E51739F9E8240CF508E912986AE440
:108CF00012A2D764016003028C11751301850882EA
:108D0000850983740112A2DCF8A3E0F98508828545
:108D10000983A3E8F0A3E9028C28AA16AB17120C6A
:108D20002E781612085B7425120AEFE0FC7402120A
:108D30000AEFE0F9EEFAEFFB121D2674021208A307
:108D400080418E828F83A3A3A3E0C0E07404120A43
:108D5000EFD0E0129319C0E07405120AEFD0E0F0F2
:108D6000E514451570097406120AEF74B98007748A
:108D700006120AEF7410F07401120AEFAA82AB8394
:108D8000121C3C740902B8ED12A2D18E828F83A30B
:108D9000A3A3E0F91211A48A0A8B0B2274EA12032E
:108DA0007474F312091D8A0A8B0B89158C147423B1
:108DB000120AEF12B93BAA0CFB120C1CE9F513AA1C
:108DC0000CAB0D120C22E5137003028F8F750E0091
:108DD000800F8E828F83A3A3A3A3A3E0D2E3F00529
:108DE0000EE50C240BF582E50D12911DE50EC398DE
:108DF0004003028F86E5137003028F86E50E75F03F
:108E000006A4F8A9F0E50C28F8E50D39F9E8240CDA
:108E1000FEE912B92BA3A3A3A3E0A2E040C1750F02
:108E200000750808750900E5146003750F2012A08D
:108E300084E060339003A6E064017017E50FD2E38D
:108E4000F50F7509108E828F83129D34129CFB746E
:108E5000FF8024430F0C75080C8E828F83A3128F22
:108E6000AE12B8CEA38010E5156009E50FD2E6F585
:108E70000F75080A128FBCF07402120AEFE50F1288
:108E8000AD3EC0E07404120AEFD0E0F07405120A9F
:108E9000EF129CEC120AEFE06003028F6974081273
:108EA0000AEF12987B8E828F83A3A3A3A3F074088A
:108EB000120AEF12963FF583E508F0A3E509129F29
:108EC000A3E060119003A6E0C0E07408120AEF125C
:108ED0009638D0E0F0850C82850D83A3A3A3E0C073
:108EE000E07408120AEF12B71CD0E012B754C0E0C9
:108EF0007408120AEF12964AD0E0F07408120AEFD2
:108F0000128FAEA3A312B72312AD28A3A3E012B70A
:108F100007EAF0A3EB12AD34C0E0E8242EF582E9B5
:108F2000128AE2D0E0F07408120AEF12B19F850AAB
:108F300082850B83128F992424F582EB129D621295
:108F4000B8BBE50B128FA2120857129D69EA242BB9
:108F5000F582EB128AE212A2C81208A38518828554
:108F60001983AA82AB83121C548E828F83A3A3A37E
:108F7000A3A3E0D2E0F0740C120AEFE06003028DCC
:108F8000D21513028DDF7900AA0CAB0D121D1A74D5
:108F90000D1208A37F0E02058DA3A3A3A312AD0D8E
:108FA000EA2212A30C12ACE875120078102212AD5E
:108FB0000D850A82850B83A3A3A3A322A3128FC1CD
:108FC0002212A03EE8F0A3E92274F212037474EBBB
:108FD00012091DEAFEEBFF89088E828F83A3A3A3EB
:108FE000A3A3A3A3A3E0F9120C468A0A8B0BEA45BC
:108FF0000B607FE50870047C0480027C088E828F01
:1090000083A3A3A3A3A3A3A3A3E0F9120C4C128AE6
:10901000DC12A0FB605C8882898312B19B7406120B
:109020000AEF12907712B19F7408120AEF1290772C
:10903000A3A3E0C0E07410120AEFD0E012AD4E120C
:10904000B19F740E120AEF12A0D17411120AEFE44C
:1090500012AA89F9780A12085B742059FC744059E5
:10906000F97402120AEFAA82AB83121D267402124F
:1090700008A37415029728EAF0A3EB129CC4A3A3DB
:10908000A32274F712037474FA12091DE9FE7F011A
:109090008F087D0080047508000D129CD312911D6D
:1090A000EDC3985025ED75F006A4F8A9F0EA28F86C
:1090B000EB39F9E812B8B6E912A6F950D9540C60A8
:1090C000D5E0A2E250D37F0080CF8A828B83A3A316
:1090D000A3A3A3A3E0703EE508A2E0400574016EDF
:1090E00070338A828B83A3A3A3A3A3A3740112B5B5
:1090F000CBE0C0E07403120AEFD0E012B5C3E0C0C9
:10910000E07404120AEFD0E0F07405120AEFEF12D7
:109110009D3F121C3C7406029CCBF582EF12AA996B
:10912000F822C082C0837901121D1A0297F2C08210
:10913000C083EA4B60189003A2E064027010900CA8
:1091400095E4F0EAFCEBFD7A021297FF8012900C96
:10915000957401F07A027B00900301E0F91214F299
:109160000297F2C082C083900D06E075F005A4FC62
:10917000ADF079007A327B0C1213727B008012EB17
:1091800075F005A4F8A9F012930E74FEF0A304F094
:109190000B900D06E0F8EBC39840E40297F2C08212
:1091A000C0837C007B0080037C010B900D06E0F8FF
:1091B000EBC398504FEB75F005A4F8AAF0EAF9124A
:1091C00093077003A3E0F460E11292FEE824030821
:1091D0000808E912989B24FFF0A3E034FF12AA8943
:1091E000F8A3E0F9E84970C0EB75F005A4F8EAF9D6
:1091F0001292FE8882898374FEF0A30412B5DCA368
:10920000E4F080A6ECA2E050031297F90297F27402
:10921000F6120374EAFEEBFF900D06E07003029273
:10922000F9EE241112B98670030292F98E828F83AF
:10923000A3A3A3A3A3A3A3A3A312A0616402600F8B
:109240008E828F83A3A3A3A3A3E070030292F97C71
:109250000080010C900D06E0F8ECC3985045EE2418
:109260000B128ADF12AD09EC75F005A4FAABF074AD
:10927000322AF582740C3BF583E0687003A3E06941
:1092800070D1EE241212B986FBEC75F005A4F8A992
:10929000F0743428F582740C39F583E06B70B4797E
:1092A0000080587C0080010C900D06E0F8ECC3981B
:1092B00050EDEC75F005A4F8A9F01293077003A324
:1092C000E0F470E31292FEEE240B128ADF129F7616
:1092D000EAF0A3EB12931988828983A3129CBF74CE
:1092E0000C12A8CA7A08FB900301E0F91214F88B5B
:1092F00009EA450970031297F9790102983074322E
:1093000028F8740C39F92212930EE064FE227432AC
:1093100028F582740C39F58322129856E02274F2F3
:1093200012037474F312091DEAFEEBFF8E828F8321
:10933000A3A3A3A3A3A3A3A3A3A3E0F50A900C95BF
:10934000E0700579BA029633750801750900750C4D
:1093500000750D007C087D007900851882851983D1
:10936000AA82AB831213727405120AEF740112966B
:109370005B540460127402120AEFE0D2E612965BAC
:1093800054087003750803E05410600674404508E3
:10939000F508E0540860227402120AEFE044C0129B
:1093A000965B5420600A7403120AEFE0D2E0800852
:1093B0007403120AEFE0D2E1F08E828F83A3A3A39D
:1093C000A3A3A3A3A3E07018120DC6851882851964
:1093D0008312A0D17402120AEFE0D2E2F002948567
:1093E000640F70157402120AEFE0D2E312A36A123E
:1093F000A0B94508F5080294858E828F83A3A3A3A4
:10940000A3A3A3A3A3E064028E828F837005128FAF
:10941000BD80C9A3A3A3A3A3A3A3A3E06403701364
:10942000851882851983AC82AD83EEFAEFFB121C9E
:10943000D280528E828F83A3A3A3A3A3A3A3A3E06E
:10944000640170419003A6E0601C7402120AEFE010
:10945000D2E312A358851882851983129D65750978
:1094600010750AFF80187402120AEFE0440C12B75C
:109470004174FDF0A374FFF074044508F5088E8272
:109480008F8312B93B12A6F3503A7402120AEFE02E
:10949000540C701B8E828F8312B19F121768E97073
:1094A0000579BB0296337402120AEFE0D2E5F0129E
:1094B000A6F350107402120AEFE0540C6404700416
:1094C000E0D2E5F0EE241112B986C0E07404120A6D
:1094D000EFD0E0129CEE120AEFE0600302962C74CB
:1094E00008120AEF12963F129651EE241812B9860E
:1094F000C0E0E812B8A7E9128AE2D0E0F0EE241941
:1095000012B986C0E07408120AEFE02413129873AF
:10951000D0E0129D14640170119003A6E0C0E074C5
:1095200008120AEF129638D0E0F07408120AEF120F
:109530009B192417FAEF129B48FCE8241CF582E9DA
:10954000128AE2EC12A8CA8E828F83A3A3A3A3A3DC
:10955000A3A3A3A3E0C0E0E82422F582E9128AE2F3
:10956000D0E0F07408120AEF12964AE50AF0740887
:10957000120AEF129B1E2424F582E912AFD8A3E54C
:109580000D12B031FCA3E0FDE82426F582E9128A31
:10959000E2ECF0A3ED12983512A0A6E82428F5829B
:1095A000E9128AE212B299C0E0E8242FF582E912AA
:1095B0008AE2D0E0F0EE241B12B986C0E0740812F3
:1095C0000AEF12B715D0E0F0EE241A12B986C0E007
:1095D0007408120AEFE0242E129873D0E012B73903
:1095E000128955120857EE2411128ADF12A0A674B0
:1095F0000B120AEF12A2C21208A3EE241512B986AA
:109600005440601B90032412A0FB601385188285D0
:109610001983AA82AB839003251298B3121D6D851E
:109620001882851983AA82AB83121C54740C120A07
:10963000EFE0F9740D029728E024151298772212B2
:109640009B22240FF582E9340022E024231298772C
:1096500022F583E508F0A3E509F022F0EE241512C7
:10966000AA962274F71203747E638A828B83E06069
:109670000C7905120B26E9F87456C398FE90034E38
:10968000E0600CF9120B26E9F8EEC39824F2FEEE26
:10969000F9029CCE74F612037474FE12091D85182B
:1096A0008285198312A0D1E9FEECFAEDFB740C124D
:1096B0000AEFE0FC90045B12A0FB60328518828503
:1096C0001983858208858309780812085B7D01EE7D
:1096D000F990045B1298B0121D6D74021208A38BEE
:1096E00009EA450960047900800679B2800279B6FA
:1096F00002982B74F7120374E9FE7409120AEFE062
:10970000FF90030C12A0FB601AEFF508780812080E
:109710005FEEF990030C1298B0121D6D74011208DF
:10972000A3800279B6029CCE1208A37F0602058DA3
:1097300074F5120374EAFEEBFF8C088D09750A01BB
:1097400012B90C129813700B9003561298E5129DE3
:1097500065800EAC08AD09EEFAEFFB120B62E9F57D
:109760000AA90A02B3B274F6120374EAFEEBFF7A96
:109770000C7B0012142CEA4B606BEE242012B9868D
:109780008A828B83F0EE24211297E8F0EE242212D5
:1097900097E8A3F0EE24231297E8A3A312A30112E3
:1097A000AD11E8F0A3E912AA8E12AD12A3A3E8F05E
:1097B000A3E912A8BC8A828B83A3A3A3A3A3A3A318
:1097C000A3F0EE242F12B986C0E0129CD3128AE2D5
:1097D000D0E012A0D78A828B83A3A3A3A3A3A3A3C1
:1097E000A3A3129D6502983012AA968A828B83A346
:1097F00022F0D083D08202083B7CF47D017A087B82
:1098000000900301E0F91214E622FAEF3400FB1293
:109810001B9422129D002212981B2212981F2212C2
:10982000A328A3A32212A07CA3E02274021208A3FF
:109830007F0202058DF012983D12A30C22EE240F38
:10984000F582EF22F582EF12A30CE422E0F9121365
:10985000C62212985622F0EE2412F582EF3400F55B
:1098600083221208A37F0802058D12B8C9850882D9
:10987000F58322129877221298CC221298C5E02202
:1098800012A328E022C082C08312A12D12984702A1
:1098900097F112A07522790102083B129D2F22F840
:1098A000EF3400F98808890922EEFAEFFB90031CD7
:1098B000E0F8A31298BF22E0F81298BEA322A3E01A
:1098C000F583888222E0240E1298CC221298D022AE
:1098D000F8A3E01298D7223400F9888289832212F3
:1098E0009DF264052212AD0D85088285098322FB55
:1098F0001298F422121B9485088285098322C08263
:10990000C08312A12D12990B0297F112A30C7401BE
:1099100022029896C082C08390031A74C0F0A37488
:109920001CF090031C74B4F0A3741CF090031E741C
:10993000AEF0A3741CF090032074BAF0A3741C0260
:1099400097F174F4120374EAFEEBFF1299A7F5087D
:10995000120DC68A0A8B0BA80AA90B8E828F83125E
:10996000999AE0687003A3E069602CE508A2E550CD
:10997000268E828F83A3E0FB90031A1298B0121DEB
:109980006D8E828F83E0F8A312A4C8A312A0FB708F
:10999000061299A7C2E5F002896112999E22E0FAA7
:1099A000A3E0F5838A82228E828F831298B7A3E088
:1099B0002274F5120374129B07129B1E2420F58259
:1099C000E912B989FE74035EF50A129F60128AE2F9
:1099D000129B1988828983F0A3A882A983E50A6073
:1099E000097402650A6003029A78740C5EFF6015C0
:1099F00074086F601074046F701D7402650A70053E
:109A0000EEA2E4402D8A828B83A3A3A3A3A3A3A3E6
:109A1000A3E02423129B69740C6F7010129B022424
:109A200024129B512424129B14129B6C7402650A0D
:109A30007005EEA2E44041129B022426129B5124A1
:109A400026129B27A3129B7B129B27129B7B129BA8
:109A500014129B6CEF600F74086F600A740C6F60D7
:109A60000574046F70128A828B83A3A3A3A3A3A39C
:109A7000A3A3E02422129B698A828B83A3A3A3A3BE
:109A8000A3A3A3A3129B377005EEA2E150178A820D
:109A90008B83A3A3A3A3A3A3A3A3E0242E129F6756
:109AA000129B62800E900302129B62900302E004FC
:109AB000129D29A3A882A983EEA2E75042129B021D
:109AC0002421129B27129B6C8C828D83129B376002
:109AD0002E8A828B83A3A3A3A3A3A3A3A3E02430F2
:109AE000129B69EEA2E150178A828B83A3A3A3A3E2
:109AF000A3A3A3A3E02431129B4188828983F002AF
:109B0000B3B2129B07E022EA2408FCEB3400FD8C80
:109B1000828D8322129F6BA32212AD0DEE22129B27
:109B2000222212A363E822129B2B22F508A3E03421
:109B300000850882F58322E02421129F6BE0540304
:109B400022FAA3E0129B48223400FB8A828B83E036
:109B500022129B2B129B62A3A882A9838C828D83E5
:109B6000E022E088828983F022129F6B129B702290
:109B7000E088828983F0A308A98322129B708C82DB
:109B80008D83E0242822C082C0838A828B8312992D
:109B9000ABF8740358F98A828B83A3A37401F0E9AC
:109BA00060057402697061740C58FC601474086C70
:109BB000600F74046C70137402697005E8A2E440CD
:109BC0001D8A828B83A3A37402F0740C6C700A8AC2
:109BD000828B83A3A3E02402F07402697005E8A2DB
:109BE000E440258A828B83A3A3E02404F0EC600F79
:109BF00074086C600A740C6C600574046C70098ADB
:109C0000828B83A3A3E004F0E8A2E750318A828B21
:109C100083A3A3E00412B29DF9A3E0F5838982A394
:109C2000A3A3E0540360178A828B83A3A3E004F00C
:109C3000E8A2E150098A828B83A3A3E004F08A8220
:109C40008B83A3A3E0040297F1C082C0838A828B36
:109C500083A3A3A3A3A3A3A3A3A3A312A0FB60090D
:109C60008A828B83A3A3129C6C0297F2A3A3A3A363
:109C7000A3A3A3A312A2D11214322274F712037465
:109C8000EAFEEBFF12AD0588828983A3A3A3A3A3F9
:109C9000A3A3A3E4F0129CBFA3A3A3A3A3A3A3F035
:109CA000A3F0E812AFC2E9129CB9121C78EEFAEFE9
:109CB000FB121C848018F582ED12A30CE4F022A3A1
:109CC000129CC422129D29A3A3A3221208A37F01E0
:109CD00002058DEA240BF582EB2212B885240922B5
:109CE00012A30C12B93F750E00780C227401129D5C
:109CF00043129CF522121C5A740C2212A04FA3226C
:109D0000121B8EE9640122A3A3A3A3E8F0A3E9F048
:109D1000120DC022129F9DE022129D20F8A3E02286
:109D2000EAF0A3EB129D29E022F0888289832212B7
:109D300098D7E022A312AD0D8518828519832212CF
:109D40009D4322F0851882851983AA82AB8322AABB
:109D500082AB8312136674032212AD0DEE240BF551
:109D600082EF12A30C12A0382212AD4612A30CE00F
:109D7000FC7D002202083BC082C0838A828B83A3C1
:109D8000A3A3A3A3A3A3A3E070528A828B83A3A35C
:109D9000E0F8129DEE64016043129DE86402603CAD
:109DA000129DE864036035129DE86404602E8A8287
:109DB0008B83A3A31298DF6023129DE8640A601CC2
:109DC000129DE8640B6015129DE8640C600E129DF4
:109DD000E8640D60077904121B7C8009900322124D
:109DE00098B0121D6D0297F28A828B83A3A3129DF5
:109DF000F2221298BEE02274F612037474FA120969
:109E00001DEAFEEBFF7403120AEFEEF0A3EFF0740D
:109E100003120AEFAA82AB83121C6C12B98360038F
:109E2000029F5B8518828519837432F07405120ACB
:109E3000EFC082C0838E828F83A3A3A3A3E0D083CD
:109E4000D082F8E028C0E07401120AEFD0E0129F3F
:109E5000B7C0E07402120AEFD0E0129F96F8A3E0B8
:109E6000F9E8496026E82417F582E9128AE2C082FF
:109E7000C083E82416F582E912B989D083D082F82C
:109E8000E028F87401120AEFE028F085188285199D
:109E900083AA82AB83120BB08A088B09A808A90990
:109EA000E8497003029F4E8E828F83129F76A3A390
:109EB000EAF0A3EB129FA3A3A3E0C0E0E82420F5FF
:109EC00082E9128AE2D0E012B754C0E0E82421F51A
:109ED00082E9128AE2D0E0129FB2C0E0E8242AF5BB
:109EE00082E9128AE2D0E0F07405120AEFE0FA1279
:109EF0009F6012B9892A12A6FFE8242BF582E91285
:109F00008AE212A0D17405120AEFE0C0E0E8242D25
:109F1000F582E9128AE2D0E0129F96FAA3E0FBEA0A
:109F20004B6019E8242BFAE912894AA3A3A3A3A33F
:109F3000A3A3A3E02416129F67129F7E8E828F83B5
:109F4000A3A3A3A3A3A3A3A3E8F0A3E9800CEEFA21
:109F5000EFFB121C72128ADC7410F0740602982D4A
:109F6000E8240BF582E922129F6B22FCA3E0340067
:109F7000FD8C828D832212A2D18882898322E0FC0B
:109F80008A828B83E02CFCA3E03400FD8A828B83E1
:109F9000ECF0A3EDF022129F9DA3A3E02212A402F5
:109FA000A3A322F0E812B8A7E912A30C740112A32C
:109FB0006A22129FBDE022129FBDA3E02212B3A02D
:109FC000A32274F7120374EAFEEBFF12B983701E2A
:109FD000129FF812A0FB60061298A9121D6D12B90B
:109FE00083700B12B193120BAA128ADCE9F0EEFA1D
:109FF000EFFB121C72029CCE121C7E8E828F83A3FA
:10A00000A3A3A3A3A3A3A3A3A32274F6120374EA96
:10A01000FEEBFF8C088D09121768E9700479018046
:10A0200011AC08AD09EEFAEFFB9003201298B012C4
:10A030001D6D02983012A03EE8F0A3E9F022E0F88E
:10A04000A3E0F98518828519832212B745E022E83A
:10A05000F0A3E912A36EA3A32212A0AAEEFAEFFBCB
:10A060002212A2D1120E20E9221298D0E0221298D8
:10A070001712A07522E08E828F83A32212A311A350
:10A08000A3A3A3227C087D0079008518828519830B
:10A09000AA82AB831213728E828F8322E08508829C
:10A0A000850983A3A32212A0AA22E0FCA3E0FD223B
:10A0B000740112A36AA3A3E02212A0357404221231
:10A0C0001372850882850983A3221215048E828F5C
:10A0D00083EAF0A3EBF02212A0DB2212A36EA3A36B
:10A0E00012A36322C082C08312A0F47466F0A3742A
:10A0F0001C0297F1121C8A90032222129B224922F1
:10A1000074F7120374E9FE12A12D128AE212A0FB69
:10A11000601888828983A3E05403700EEEFB129FBF
:10A1200060128AE212A15E12A158029CCEEA12AF1E
:10A13000C2EB22C082C083EAF8EBF988828983A34C
:10A14000A3A3A3A3E0FB88828983A3A3A3A312A153
:10A150005EA312A1580297F2E0F912111A22E0FA56
:10A1600088828983A3A32274E81203748A088B0966
:10A170008C168D178914741A120AEFE0F50AA3E001
:10A18000F50B741C120AEFE0F513741D120AEF7838
:10A190000C120A9212B8E1EB12B989242DFA7B0055
:10A1A0001213908A108B11AE10AF11EE4F70030294
:10A1B000A2A98E828F837401F0850810850911751C
:10A1C000120078101208577C157D00EE241812A298
:10A1D000AC1208A385161085171178101208577C49
:10A1E000097D00EE240212A2AC1208A37418120A10
:10A1F000EF129D59850A82850B83E0C0E0EE240FA3
:10A20000128ADFD0E012A2DCC0E0EE2411128ADF55
:10A21000D0E012A2D7C0E0EE2410128ADFD0E01204
:10A220009852E51312A301E4F0A3F012A2BB780C3C
:10A23000120AB0EE2417128ADFE514129825F8A34B
:10A24000E0F9EE240D128ADF12A2FB12B8DB12B97C
:10A25000896025EE242612A6EB242DF812A2F31213
:10A26000B8C2129CE012085712B8D9129D6C8A82AB
:10A270008B8312A2C81208A3EE241912B9865403C4
:10A28000601D90031812A0FB600CEEFAEFFB129811
:10A29000B3121D6D8013EEFAEFFB121396800AEED7
:10A2A000FAEFFB90030112A35202B8F0FAEF12A2E8
:10A2B000B2223400FB121366740322EE241312A39D
:10A2C0000922E0242B12987712A2D112136674038C
:10A2D00022E0FAA3E0FB2212A2EAE02212A2E1E0CD
:10A2E0002212A2E52212A2EAA322F0850A82850B9D
:10A2F00083A322EF3400F98A828B8312A038E50809
:10A3000022F0EE242612A30922F582EF3400F58311
:10A310002212981FA3A3A322A3A3A3A3A312A32142
:10A320002212981BA3A3E022F085088285098322CC
:10A3300012A33422129880F8A3E0F98E828F83A3AF
:10A34000A3227B001213908A0A8B0BAE0AAF0BEE8E
:10A350004F22E0F912139C2212A35C2212A36E1268
:10A36000A36322E0F8A3E0F922A312A36E22F08EE9
:10A37000828F8322C082C083E9900C97F0900314EF
:10A380007418F0A3741CF0900316747EF0A3741379
:10A39000F090031874C6F0A3741C0297F174F712BE
:10A3A0000374EAFEEBFF8908EE4F70031217AA90C0
:10A3B000032612A0FB7008900326802212AD0988A4
:10A3C000828983A3A3A3A3A3A3A3A3A312A3F48813
:10A3D000828983A3A3A3A3A3A3A3A3A370DEEEF008
:10A3E000A3EF12A3FAA3A3A3E4F0A312A3FAE50830
:10A3F000F0029CCE12A2D1EA4B2212A3FE2212A49A
:10A40000022212B3A4A3A3A32274F712037490032D
:10A4100026800D8E828F83A3A3A3A3A3A3A3A3A3AC
:10A4200012B89FEE4F60348E828F83A3A3A3A3A3A1
:10A43000A3A3E06970DD8E828F83A3A3A3A3E06A48
:10A440007003A3E06B70CC8E828F83A3A3A3A3A31E
:10A45000A3E06C70BEEEFAEFFB80047A007B000292
:10A460009CCE74F712037490032612B89F900326B3
:10A47000128F9D687002EB69701712A4C812AD09A3
:10A48000900326129D6590032612B89F803012B863
:10A4900092EE4F60298E828F83A3A3A3A3A3128F72
:10A4A00099687002EB6970E68A828B83A3A3A3A3E9
:10A4B000A3A3A3A3A312A4D5A3A3A3129D651214BF
:10A4C00032EEFAEFFB029CCE1298BFA3A3A3A3A384
:10A4D000A3A3A3A32212A714A3A32274F0120374AC
:10A4E00074FA12091D8A088B098A828B83A3A3A39D
:10A4F000A3A3A3A3A3E0600D640160098A828B83F8
:10A5000012A0616005790202A6E6850882850983AA
:10A51000A3A3A3A3A3A3A3A3E064037015740412CD
:10A520000AEFAC82AD83AA08AB09121CD2E9701302
:10A5300080D385088285098312AD097404120AEF5D
:10A54000129D6512B8AC12B989243212A6FF1214FA
:10A550002C8A0A8B0BAE0AAF0BEE4F700302A6E4F7
:10A560007C327D0079001213727402120AEFAA8203
:10A57000AB83850882850983A3A3A3A3A3A3A3A375
:10A58000A3E0F912115C7402120AEFE0C0E0EE24BD
:10A590002D128ADFD0E0F0EE242CF50AEF3400F51E
:10A5A0000B7403120AEFE0850A82850B83F07901B0
:10A5B000EEFAEFFB121C2A85080C85090D750E00BA
:10A5C000780C1208577C1C7D00EE240B12A2AC12F2
:10A5D00008A3EE243012A6EB2432080812A2F324BA
:10A5E00011F8E50912B936FCE9FD8C828D83129BC6
:10A5F00019242E128ADF12A2FB12AA6B12B8E712DC
:10A6000008578C828D8312A0A68A828B8312A2C8DF
:10A610001208A37404120AEF12A710129D6590038A
:10A620000212A706F0900302E00412AA9D242A1247
:10A63000AFC7750D00850A82850B83E0780C120A7E
:10A640001E8A828B83E50CF0EE2429128ADFE50C4A
:10A6500012B741E4F0E5082415F582E50912A6F9E0
:10A6600074015007120AEF74018004120AEFE4F03B
:10A67000EE242712989F851882851983AA82AB83BE
:10A68000121144E924FE850882850983F0F50875D6
:10A690000900EE242E128ADF12A0A6ECF8EDF9AA2A
:10A6A00008AB0912022BE88E828F83A3A3A3A3A376
:10A6B000A3A3A3F0ECF8EDF9AA08AB0912022B8BC7
:10A6C00009EA4509600F8E828F83A3A3A3A3A3A3E6
:10A6D000A3A3E004F0EE242012B986440812B03996
:10A6E000790080027910740602986212B934FAE98E
:10A6F000FBEE22EE2415F582EF12AA99A2E022FACF
:10A70000A3E03400FB2212A075A3A3A3A3A3A3225A
:10A7100012A7142212A3638E828F83A3A3A3A32262
:10A7200074F4120374EAFEEBFF12A0CA900CF6E078
:10A73000F8EE242B12B986C398400302A89312AFF7
:10A74000DF7015EE242B12B9860412A8BCC0E0EE0F
:10A750002429128ADFD0E0F0EE242812B986FC7991
:10A7600000800109EE242C12911AE9C39850267535
:10A770000801750900E97808120A1E12AFDF5508B2
:10A7800060E1E92CFC750801750900E97808120AF6
:10A790001EE04508F0EE242712A8AAEE242E128A05
:10A7A000DFEC8A088AF0A4F8ABF0E42BF9E098F823
:10A7B000A3E099F9C3E89508E99400EE403924270D
:10A7C00012911A12AFDF6037EE242D128ADF12A821
:10A7D000B6A3E4F0EC7054EE242012B986442012A3
:10A7E0009D14C0E0EE2426128ADFD0E0F0EE243083
:10A7F00012A8AAA3E080592429128ADF74FFF090DE
:10A800000346E0FA900CF9E0F508EA8508F0A4ABFD
:10A81000F075F064A4FAADF075F064EBA42DFB8E36
:10A82000828F83A3A3EAF0A3EB80A8EE242012B9C1
:10A830008654DF12A301ECF08C08EE242712B986AF
:10A840008508F0A4FAABF0EE2430F582EF12A8A14F
:10A85000FBEE241E128ADFEAF0A3EB12A8C4C0E0CC
:10A86000EE2425128ADFD0E0F0EE241C128ADFE805
:10A8700012A8CA90032812A0FB600BECF91298B33F
:10A88000121D6DE97018EE240BFAEF3400FB121C58
:10A89000F6800B7BE9EE2422F582EF12AA7502897D
:10A8A0006112AA992AFAA3E03B22F582EF12A8B11D
:10A8B0002212B02BFA2212A075A3F022F0EE242A65
:10A8C00012AA962212A3FEA3E022F0A3E4F02274BF
:10A8D000F412037490032612B89F1215048A0A8B8F
:10A8E0000B7CFF7DFF8020E0C398FAA3E099FBC3B7
:10A8F000EA9CEB9D500E8E828F83A3A3E0C398FC4D
:10A90000A3E099FD12B892EE4F605912AD05E50A29
:10A91000C398F8E50B99F98E828F8312B19DC3E835
:10A920009AE99B8E828F83A3A340BCA3A3A3A3E039
:10A930006402701DEE240B12AFE2600CEE241012C4
:10A940008ADF12B19F121396EEFAEFFB121C1E80E3
:10A9500007EEFAEFFB121C127A017B00900C9712A3
:10A96000984C801474FF6C700374FF6D600A7A0158
:10A970007B00900C9712980402896174F0120374A2
:10A980008A088B09ECFAEDFB890A7C0112B8AC123B
:10A99000AFD18A0C8B0DAE0CAF0DEE4F700302AA37
:10A9A00068E50A600302AA68E50812AA6BE0F8EEFF
:10A9B000242812B98668600302AA68EE242C12A823
:10A9C000AAE82AF8E43400F98E828F83A3A3A3A314
:10A9D000A3A3A3A3E0FAE89AE99400C365D03340A7
:10A9E0001412ACF012AFE5700C7B0012B8A5E509AB
:10A9F00012AA75807312ACF012AFE57031EE242C00
:10AA000012B986F9EE2429128ADF7508FF7509004C
:10AA1000E97808120A1EE508F0EE242A128ADFE51A
:10AA20000812AA8E29F0EE242B1298448022E50801
:10AA30002414F8E5093400F9E0C0E0EE242A128A73
:10AA4000DFD0E012AA89C0E0EE2429128ADFD0E02C
:10AA500012AA9D242D128ADF129892A312A8CA7AF4
:10AA600001FB900C9712984C0298652413F582E52F
:10AA70000912A30C2212A8B1EE241412A30912A1E8
:10AA800058EEFAEFFB121C1E22129D29E022F0EE76
:10AA9000242812AA9622F582EF12B02B22F012B8C7
:10AAA000F5F0A3EBF0EE2274E812037474FD1209C2
:10AAB0001DE9851882851983F08A0A8B0B8C168D07
:10AAC00017741B120AEF12ACE8741D120AEF780C0F
:10AAD000120A928A828B83A3A3E0F91211388A1298
:10AAE0008B13EA451370077A007B0002ACE37A12FD
:10AAF0007B0012142C8A088B09AE08AF09EE4F7048
:10AB00000302ACDF7C127D00790012137274011213
:10AB10000AEFAA82AB83850A82850B83A3A3E0F99F
:10AB200012115CEE240FF508EF12B8C97402120A74
:10AB3000EFE0850882850983F07902EEFAEFFB12D7
:10AB40001C2A85168285178312A710E8F0A3E91244
:10AB5000AD348E828F83A3A3A3A3A3A3A3F0751404
:10AB6000FF751500850882850983E07814120A1E96
:10AB7000128ADCE514F0851282851383A3E0F812B3
:10AB80009DEEC0E0EE240B128ADFD0E012AD3EF560
:10AB900008EE240D128ADFE508F012AFEAE085081E
:10ABA000F0A42424FAE5F03400FB1213908A088BF9
:10ABB00009EE2410128ADF12A0D1EA4509700302BF
:10ABC000ACD48A828B83741A12A8CA8A828B83A31C
:10ABD000A3F0A312AD2812AD11129D65AC16AD17EE
:10ABE000EA2406FAEB3400FB121156850A82850B23
:10ABF00083A3A3A3E0C0E0E508240FF582E50912D2
:10AC00008AE2D0E0F090036312AD09E50824101247
:10AC1000ACF912AD4EA312AD09E508241212ACF93D
:10AC200012A2DCC0E012ACF0128AE2D0E0F0E50A39
:10AC300012AFC2E50B12B989C0E0E5082415F58210
:10AC4000E509128AE2D0E012AD1FC0E0E508241643
:10AC5000F582E509128AE2D0E012B98DE0C0E0E5A4
:10AC6000082417F582E509128AE2D0E012B98DA313
:10AC7000E0C0E0E5082418F582E509128AE2D0E098
:10AC800012A04AC0E0E5082419F582E509128AE21B
:10AC9000D0E0F0E508241AF582E509128AE2780C82
:10ACA000120AB0E5082424F8E5093400F9E508247F
:10ACB00022F582E509129D62E50A12B8A7E50B129A
:10ACC000B989C0E0E508241FF582E509128AE2D0BF
:10ACD000E0F0800BEEFAEFFB121C1E7E007F00EE10
:10ACE000FAEFFB740302B8EDE0F510A3E0F51122D2
:10ACF000E5082414F582E50922F582E50912A30C82
:10AD0000E8F0A3E9228E828F8312AD0D2212A36395
:10AD100022E0F8A3E0F98A828B83A3A3A3A322F005
:10AD2000851082851183E02212AD2C2212A2E5A3A8
:10AD3000A3A3A322F012B8B4E50B12AA9922F01231
:10AD4000AD4612AA9922E50A12B8E2E50B2212AD2D
:10AD50002CA3A3A32274E81203748A0A8B0B8C1011
:10AD60008D1189147418120AEFE0F516A3E0F51797
:10AD7000741A120AEF780C120A92750900EA241369
:10AD8000F582EB12B989F50890032812A0FB601137
:10AD9000A9089003281298B0121D6DE9600302AF54
:10ADA000BF7C0285108285118312B19F12B8B4E571
:10ADB0000B12AFD18A128B13AE12AF13EE4F704B42
:10ADC000850A82850B83A3E0A2E0400302AFBF782F
:10ADD0000C120853781612085BA914AC10AD11AA16
:10ADE0000AAB0B121D5C74061208A38A0C8B0DAE05
:10ADF0000CAF0DEE4F700302AFBF8E828F83A3A303
:10AE0000A3A3A3A3A3A3E50812B03985080C8E82DF
:10AE10008F83A3A3A3A3A3A3A3A3E024FFF8E434F5
:10AE2000FFF9E8650C7001E97003750901EE240B68
:10AE300012AFE2700302AF72850A82850B83A3E032
:10AE4000A2E0500375080012B00BE50C98E499C31A
:10AE500065D033401EE0F8EE240E12B98628F07556
:10AE60000CFF750D00E8780C120A1EEE12AFC2EF4F
:10AE700012AFD812B8BBE50B129CE0120857129D16
:10AE80006985080CEE240D12B986850CF0A4F8A98A
:10AE9000F0EE241012B9862422129B4128FAA3E076
:10AEA00039FB129D531208A3750C0112AFF6780CF2
:10AEB000120A1E12B983450CF0E509A2E05065EEB6
:10AEC000240C12AFC712AFF604780C120A1E8A8245
:10AED0008B83E0450C12B03185080C850CF0A4F88A
:10AEE00012AD4612B989FCE82CFCE5F03400FDEE09
:10AEF0002410128ADF12B00412B299F47026EE24E4
:10AF00000BF50CEF3400F50DEE2410128ADF12B1B0
:10AF10009F850C82850D8312A352850C82850D833B
:10AF200074FF804D12A0CA900346E0FA900CF9E03D
:10AF3000F50CEA850CF0A4FAABF0F8EBF9900CF6FE
:10AF4000E0F50CE8850CF0A4F8ACF0850CF0E9A471
:10AF50002CF9EA28F8EB39F9E875F064A4F8AAF0BE
:10AF600075F064E9A42AF98E828F83A3A3E8F0A385
:10AF7000E9F012B00B12B889E8650C7001E9600EB7
:10AF8000EE240C12AFE26006E509A2E05031EE2497
:10AF90000E12B986C0E012AFEAD0E0F012B983C059
:10AFA000E0E50A2414F582E50B128AE2D0E0F0AC69
:10AFB0000AAD0B85108285118312B19F120B0E0210
:10AFC000B8F0240CF5822212B934FAE9FB750CFFB3
:10AFD0002212B0DC121C242212A30CE50CF022EE8B
:10AFE0002429F582EF12AA99F422E50A2413F582A6
:10AFF000E50B12A30C22750D0012B021F5F0E50847
:10B0000084E5F022E024201298772285080CEE24B3
:10B010000E12AA96F812B021FAE82AF8E43400F9E0
:10B0200022EE240FF582EF12B02B223400F583E0DC
:10B0300022F0EE240D12AA9622F07A017B00900CE9
:10B0400097E0F91213C622C082C083900C9712A316
:10B05000520297F274F41203748A088B09EB54803D
:10B06000703BEAA2E05047121C0CE5086401FAAB01
:10B0700009803F8E828F83E06401701A12A2BB1296
:10B08000068E12888B12085BEE241212B0C5121CB9
:10B09000E474061208A3EEFAEFFB121396900C97D5
:10B0A00012B0B570CEAA08E5096480FB80047A006E
:10B0B0007B00028961E0F91213A28A0A8B0BAE0AA7
:10B0C000AF0BEE4F22F582EF12B0DCEE2402FCEF64
:10B0D0003400FDEE2418FAEF3400FB2212B02BF9F5
:10B0E0002274F1120374890A8A088B098A828B837D
:10B0F00012B19F121C9C8B0DEA450D600479B8803B
:10B100007F1213DE9020E2E493F8E9C398400479BB
:10B11000B2806D7A1512B1837004791080628E82CC
:10B120008F83E4F0A312B734A3E50AF085080C85F9
:10B13000090D750E00780C1208577C127D00EE2464
:10B14000030A0A0A12A2AD1208A390032A12A0FB56
:10B1500090032A7006EEF0A3EF801FE0FAA3E080D0
:10B1600003E8FAE9FB8A828B8312A0FB70F3EEF806
:10B17000EFF98A828B83E8F0A3E9F0120B027900E1
:10B1800002B9207B0012142C8A0C8B0DAE0CAF0D73
:10B19000EE4F228E828F83A3A3A3A3A3A3A3A31204
:10B1A000A2D122C082C08390032A80048C828D8326
:10B1B00012B1E560298C828D83A3A3E069600574D8
:10B1C000FF6970E88C828D83A3A3A3E06A7003A358
:10B1D000E06B70D8EC2403FAED3400FB80047A00B5
:10B1E0007B000297F212A0AAEC4D2274F7120374AE
:10B1F000E9FC74FE6C70047D0180027D0090032ADE
:10B2000080096C70027D018882898312A0FB601F17
:10B2100088828983A3A3A3E06A7003A3E06B70E72D
:10B22000EDA2E088828983A3A3E050D6F980027959
:10B23000FE029CCE74F7120374E9FE90032A12AD4D
:10B24000097C007D00800BE8FCE9FD88828983127F
:10B25000AD09E849603E88828983A3A3E06E70E768
:10B2600088828983A3A3A3E06A7003A3E06B70D7ED
:10B27000EC4D88828983700812B19F90032A800365
:10B2800012B7F412A0D1E8FAE9FB121432120B0241
:10B29000790180027900029CCEECF0A3EDF08A8265
:10B2A0008B83E022C082C083790090032A80010949
:10B2B00012B19F8A828B83E582458370F20297F2F6
:10B2C00074F512037474EB12091D851882851983B5
:10B2D000E4F0A3F090032AE0FEA3E0807D8E828F4D
:10B2E00083A3A3E0C0E07402120AEFD0E012B39887
:10B2F000A982AA8389088A09750A00780812085762
:10B300007C127D007406120AEF129D4F1208A3747E
:10B3100002120AEF858208858309780812085B7596
:10B320000813750900780812085B7404120AEF12FA
:10B330009B1E75F013A4F8AAF075F013E912B388F8
:10B3400012B9061208A3851882851983E02401F03A
:10B35000A3E0340012A358E8FEE9FFEE4F600302B9
:10B36000B2DD85188285198385820885830978086E
:10B3700012085B750802750900780812085B12B89C
:10B38000FE1208A374158027A42AF9E82402FCE918
:10B390003400FD7A427B002212B39C2212B3A02219
:10B3A00012B3A422F08E828F83A3A3A322740D1262
:10B3B00008A37F0302058D74F61203748C828D83BB
:10B3C000A3A312B5B5F0EA2417F582EB12B989C030
:10B3D000E0EC12B8E2ED128AE2D0E0F0EA241DF5CA
:10B3E00082EB128AE212AD09EC12B926ED128AE262
:10B3F00012B5B5A3F0A3F012B925EB128AE212B58B
:10B40000A7A3A3A3A3A3A3EEF0A3EF12AA89FE8C84
:10B41000828D8312B5D474035EFEC39403400FEC97
:10B42000240D129CB6EC2410129CB602B58FEE606F
:10B430000574026E70748C828D83E0540CFE740C63
:10B440006E700302B52CE0A2E4400D88828983E08F
:10B450008C828D83A312B5FE74086E600302B52C36
:10B46000EC12AFC2ED12990BF08A828B83A3A3A3D7
:10B4700012B6FF70148C828D83E0440C12B5C3A306
:10B48000A312B5A7EEF0A3EFF08C828D83E0A2E4C7
:10B49000401812B59212B5E112B59BA3A312B5E103
:10B4A0008C828D83A3A3A312B5D488828983E0C044
:10B4B000E0EC12B8B6ED128AE2D0E012B5D48C827C
:10B4C0008D83E0A2E7507C88828983E0FE8C828DA8
:10B4D0008312B5FE74FC5E600302B41F8C828D8300
:10B4E000A3E054036403700302B41F8C828D83A312
:10B4F000E05403605188828983E0C0E0EC2413F5B6
:10B5000082ED128AE2D0E012B5FF8C828D83E05486
:10B51000036402703188828983E0C0E0EC2414F572
:10B5200082ED128AE2D0E012B5FF801AEC240C12F0
:10B530009CB6740C6E600302B46912B59212B5EC3D
:10B5400002B489A3E4F0EC12B8BDED129D62EC24C4
:10B5500010FEED3400FFEA241DF582EB12B989F5E7
:10B56000088E828F83E0C3982508F508F0EA241737
:10B57000F8EB12989BC39508C0E0EC12B926ED12C7
:10B580008AE2D0E012AA89C39508500302B41F02D0
:10B59000983088828983E012B59B22F508A3E0FFEA
:10B5A000E5088C828D8322E0FEA3E0FF8C828D83F0
:10B5B000A3A3A3A322E412B5BA22F08C828D83A3A5
:10B5C000A3A32212B5CBA3A3A3A322F08A828B83C9
:10B5D000A3A3A32212B5DCA882A98322129D29A3CA
:10B5E00022A3A312B5EC88828983E022A3A3A3A39C
:10B5F000F0A3EFF0E824020808E93400F922A312CE
:10B60000B5DC08A9832274F512037474F312091DC2
:10B610008A088B09ECFEEDFF8E828F83E0540CF5D7
:10B620000AE0A2E75006E50AD2E7F50AE50AD2E108
:10B63000F50A12B7017006E50AD2E4F50AE0A2E5C0
:10B640005006E50AD2E5F50A7C087D0079008518E8
:10B6500082851983AA82AB831213727402120AEFD5
:10B66000E50A12B734E0C0E07403120AEFD0E0122A
:10B67000B7411296537405120AEF129CEC120AEFAE
:10B68000E070797408120AEFE0241212987312A085
:10B69000B0C0E07408120AEF12B71CD0E012B75421
:10B6A000C0E07408120AEF12964AD0E0F074081253
:10B6B0000AEF12A4D512B723129D1412B70712A0D5
:10B6C000D1EE241112B986C0E0E8242EF582E912E9
:10B6D0008AE2D0E0F0EE241412B986C0E0740812B9
:10B6E0000AEFE02431129873D0E012B739C0E07449
:10B6F00008120AEF12B715D0E012B74D02B3ADA38E
:10B70000A3E05403640122FAA3E0FBE82428F582B5
:10B71000E912A30C22E0243012987722E0242212AE
:10B7200098772212A2D1E82426F582E912A30CEA26
:10B73000F0A3EB2212A36AA322F0EE241312AA961E
:10B740002212B74522F085188285198322129D4363
:10B75000121C542212B39CE02274F71203747E0070
:10B760008A828B83A3A3A3A3A3A3A3A3A3E06402BE
:10B77000607B129CD312B989707312A12D128AE2D8
:10B7800012A0FB606888828983E05403705FA3A3E2
:10B79000A3A3A312B7F0E06A7003A3E06B704E8816
:10B7A00082898312B7F0A3A3E0FFA3E0F5838F8221
:10B7B000A3A3A3A3A3A3E06A7003A3E06B702E88E6
:10B7C000828983A3A3E0F88C828D83A3A3E0F9A3ED
:10B7D000E0F5838982A3A3E06860118C828D83A346
:10B7E000A3E0F8129DEE540C640470010E02968FD3
:10B7F000A3A3A3A312A2D18C828D832274F6120379
:10B800007474FC12091DEAFEEBFFECFAEDFB8A8270
:10B810008B83A3E05403601690031612A0FB605CB8
:10B820007900EEFCEFFD1298B3121D6D804E851865
:10B8300082851983EEF0A3EFF07402120AEFEAF0AA
:10B84000A3EB12B741AC82AD837A147B0B120D6C63
:10B850008A088B09A808A909E84960208882898399
:10B86000A3A3A3A3A3A3A3A3A37406F07A0088822F
:10B870008983E0240C12B881F9120CC47404029874
:10B880002D12B8852212A06922E824FF18E934FF9E
:10B89000F9228E828F83A3A3A3A3A3A3A3A3A3E0D0
:10B8A000FEA3E0FF22E5082412F58222E50812B883
:10B8B000B6E50922E50A2411F58222E50A240EF5EF
:10B8C0008222240EF582E509223400F50922E8F0EF
:10B8D000A3E912B74574FFF022E50812B8E2E509C2
:10B8E00022EA2410F5822212B93F780C221208A312
:10B8F0007F1002058D1215048E828F83EA227C0050
:10B900007D007A427B001214B074042212B9102216
:10B9100012B918EEFAEFFB22120DC0EAFCEBFD2281
:10B920007F0702058DEA240DF582223400FF8E8206
:10B930008F83A322F8EF3400F9E82212B93F22E006
:10B94000F50CA3E0F50D2274F71203748908900337
:10B950002C12A0FB600AA9081298B3121D6D800278
:10B960007901029CCE74F7120374E9FE90032E1243
:10B97000A0FB600AEEF91298B3121D6D80027900E7
:10B98000029CCEEE240CF582EF12AA9922F08510CB
:10B9900082851183A32212CD0FF9EA22E0F508E493
:10B9A000F509F50AF50B2274091208A37F040205B4
:10B9B0008DEE2412FAEF3400FB121024E9227905EF
:10B9C000121030740422E024F5C394122212190CD0
:10B9D0008A0C8B0D8C0E8D0F221211089008761296
:10B9E000D4AB7A147B0022FB12B9F2E8F0A3E9F0A1
:10B9F000EE2212B9FA8A828B83228A828B83E02418
:10BA0000FFF8A3E034FFF922EE240E12D7017401EF
:10BA10002212BA521208A37F0802058D12BA4CA254
:10BA2000E52212D704E4F0227F0502058DE5081215
:10BA3000D04AE50912BA4C227AD57B031213BA74A4
:10BA4000022212BA4622EE2410F582EF3400F5836A
:10BA5000E0221210FC740422F582EF12BA4CF82294
:10BA6000EE240DF582EF12BA4C640122E0FEA3E051
:10BA7000FFEE4F22F582EF12BA4C22FAEF3400FBB0
:10BA800079E1121A0222F0EEFAEFFB22EE240EF513
:10BA900082EF12D70422F0A3F002C1E1F582EB128B
:10BAA000BA4CFA221208A302C63CC082C08374FEBC
:10BAB00012091D80077AD57B0312BAE89003D512CC
:10BAC000CAB570F19003D712CAB560097AD77B0363
:10BAD00012BAE880EF9003D5E4F0A3F09003DBF016
:10BAE000A3F0A3F0740280161213B485188285198E
:10BAF00083EAF0A3EB12DCA41210122274111208D4
:10BB0000A302C1E174F6120374E9FF8F08748F1267
:10BB1000CBD4742012CBD9FE8E08FA7B001213907E
:10BB2000EA4B6017EA2508F8EB3400F98A828B8328
:10BB300012D594A3A3A3A3E4F080227A027B00127F
:10BB40001390EA4B60138F08749A12CBD4742012AE
:10BB5000BECBF0A3741A12BEE07A007B0002D64F6F
:10BB6000E9FDEAFC74062DFAECA2E0501EEA75F03D
:10BB70000A84A8F0E86014740A2AC398FAE8C39407
:10BB8000054004740A2AFA740B2AFAEDC394134090
:10BB900004781480027806E82A2409F8E43400F9CD
:10BBA0007A0A7B00120223E8F902083BC082C083B4
:10BBB000900405E05402600A121BE8E96004790170
:10BBC0008002790002C1E1C082C083900405E05484
:10BBD0000260149003DBE0700A12CAB2600912BB63
:10BBE000EC500479018002790002C1E19003DEE0AB
:10BBF000241012C0BBA2E722C082C08390873CE021
:10BC0000F89003DDE0C398500512139080047A0089
:10BC10007B0002C1E1C082C083121012790002C110
:10BC2000E1C082C08374FE12091D851882851983C4
:10BC300012BD87600D14606524FE700302BCC10252
:10BC4000BD4B900856E0640F6018120FE8E97012BF
:10BC500085188285198312CD0A900C9F12C1421259
:10BC60001D6D90087EE0C0E085188285198312C79B
:10BC7000E4D0E012BD6DF812BD5B741412BD6DFC12
:10BC8000A3E0FD7AD77B031213AEE5A8F8C2AF900C
:10BC900003DD12BD7E7920120FD602BAE4120FE244
:10BCA000E9851882851983601112C142740D12BD95
:10BCB0006DFAA3E0FB121BE280E012C14274158012
:10BCC000BB12C0C1700302BD4B8518828519831257
:10BCD000D625C0E012BD60D0E012BD6D2402F8127E
:10BCE000BFB22401FAA3E03400FB8882898312BD2D
:10BCF0008714C39409502012C0C1FA85188285198F
:10BD000083A312DECBA3A3A3E0F874B828F5827452
:10BD10002012CBD96A600F12BD60E06408702C124B
:10BD2000C0C164087025851882851983E0F812C0A7
:10BD3000C71412BD8B240AC0E085188285198312AE
:10BD4000BD5BD0E012BD8B0402BC7C8518828519D6
:10BD500083AA82AB8312101202BC9AA312C14D2295
:10BD600085188285198312DED8A3A3A32212BD7180
:10BD70002212DD94E022E5A8F8C2AF9003DCE004D3
:10BD8000F0E8A2E792AF22EAF0A3EB12BD71F8123D
:10BD9000C0CCA3E022C082C0839003E012CAB56089
:10BDA0000812BD5C121D6D8002790002C1E174F7BA
:10BDB000120374EAFEEBFFEE240D12BA0BF0EE2430
:10BDC0002F12BA74C0E012BA8CD0E0F0EE24301218
:10BDD000BA74C0E0EE241212BA8FD0E012D35BC066
:10BDE000E0EE241312BA8FD0E0F0EE242B12BA8FBB
:10BDF000120692EE2422FCEF3400FDEE242D12BA3E
:10BE000074F912D1521208A3E97007EEFAEFFB128F
:10BE10000F1C02C63CC082C083120FE8E96004799F
:10BE2000208002790102C1E1C082C083EA12D041C0
:10BE3000E0D2E002BA98C082C08312D03A12BA6649
:10BE4000701112BED5400C8A828B83A3E0F9120FC9
:10BE5000DC806912BEBF12BA77A2E650128A828BCA
:10BE600083A3E0F9900CA112C142121D6D804D1206
:10BE7000D03A12BA66700D12BED550088A828B83F2
:10BE8000743080358A828B83A3E0641B8A828B8323
:10BE9000700474228023A3E0700F12D03A12BA5BB0
:10BEA000746E28F5827420800D12D03A12BA5B7439
:10BEB0009A28F582742012BECB12BEE002C1E1EADC
:10BEC00012BEC6EB22EE240FF5822212D704E493B1
:10BED0008A828B8322EA12BEC6EB12BA4CA2E322FC
:10BEE000F0900400E0F912139C2274F7120374E935
:10BEF000FE12CAB2602EEE702E9003DE12D6F2E46D
:10BF0000F09003DE12CD0A120F0A9003DEE0240E39
:10BF100012BBF2500312D7B79003DEE4F0A3F0791E
:10BF200010120FD602C63C741B6E701012BFB6649E
:10BF30000570C69003DE12D6F2EE80C474E96E700E
:10BF4000509003DEE02411F812BFB260E69003DEE9
:10BF5000E0240E18181812BFB2A2E29003DEE040EF
:10BF60000C241112BFAF14F0121B3A80B7240F1229
:10BF7000BFB1C2E7F012BFB66403700C9003DEE0FD
:10BF8000241012BFAFD2E2F012BFC0121D6D02BF6B
:10BF90000A741C6E709D9003DE12CD0A900CA712DD
:10BFA000C142121D6D9003DEE4F0A3F002BF24082D
:10BFB000080812C0BC229003DEE0240D12C0BB2290
:10BFC0009003DE12CD0FFB900C9D12C1462274F43B
:10BFD000120374750A00750B00A2AFE433FEC2AF02
:10BFE00012CAB26008EEA2E092AF02C093900CA514
:10BFF00012C142121D6DE94410F89003D5800985E5
:10C00000080A85090B12C09B12C0AC60D812BA2D69
:10C01000586870EB780A12085BAC08AD0912BA38A0
:10C020001208A39003DEE508F0A3E509F012BBECCB
:10C0300040649003DCE014F0EEA2E092AF9003DEE7
:10C04000E0240E181812DDC5FEE9FF8E828F83E012
:10C05000FA9003DEE0F812C0C7F9120ECEE99003A1
:10C06000D9F0A3E412D4B1E0A2E750189003DEE0C7
:10C07000241212C0A7121A3E9003DEE0241312C04D
:10C08000A7121A329003DE12C0B4A2E1B3E433F96E
:10C09000121B2202B9AC9003DB809AE50824FBF561
:10C0A00082E50912DDA92212C0BBF92212DC98E553
:10C0B00008450922E0240F12C0BB22F812DD85E0FA
:10C0C0002285188285198312C0CCE02212C14CA3AC
:10C0D000A3A3A32274F7120374EAFEEBFF12100C61
:10C0E00012BEC5EF12BEDA400A12BA607005908720
:10C0F0003A800390873BE0F9EEFCEFFD7AD57B03B5
:10C100001213C0E9602FEEFAEFFB900CA312C142AC
:10C11000121D6DEE240EF582EF12C1CB400812BD48
:10C1200076120F168019EEFAEFFB900C9B12C142AB
:10C13000121D6D800A8E828F83A374F112C1530287
:10C14000C63C12C1462212C14A22E0F8A3E0F583A0
:10C1500088822212BA86120F0A22C082C083120F6E
:10C160001602C1E1C082C0837900900405E0540248
:10C17000700712C1C5500279E8900405E054607060
:10C180000FEA242FF582EB12BA77A2E1500279E888
:10C190008A828B83A3A3A3A3E0C39475400279E8AA
:10C1A000EA242DF582EB12BA777012EA242AF5827E
:10C1B000EB12BA77700779F5120FDC8024E970F87A
:10C1C000120EF880F6EA242FF582EB12BA4CA2E2A6
:10C1D00022C082C0838A828B83740DF0121BE2809E
:10C1E00000D083D08202083BC082C0838A828B83C6
:10C1F000E4F0A3F012C1C590873AE0F8400F900335
:10C20000DCE0C398400F79F1120FDC80D49003DB9F
:10C21000E0C39850F112CB3580F174F6120374E943
:10C22000FE244AFAE43400FB121390EA4B601DEE40
:10C230008A828B83A3A3A3A3F0EA244AF8EB3400F9
:10C24000F98A828B83A3A312CDD480047A007B0069
:10C2500002D64FC082C0839003FCE4F09003FFF04D
:10C260009003E812C2747402F09003F112C2747465
:10C270000102BA9874D6F0A3740FF0A32274F512D9
:10C28000037474F112091D8518828519837402F0F4
:10C290007401120AEFE9F060047AFF7BFF74021266
:10C2A0000AEF12DDD17508F4750903750A007808E4
:10C2B0001208577C0B7D007407120AEF12D969121D
:10C2C00008A3851882851983AA82AB83121BE274A6
:10C2D0000F800312D96D1208A37F0302058D74F736
:10C2E00012037474FE12091D851882851983740A5D
:10C2F000F07401120AEF12DD2F740202BAA474F076
:10C3000012037412DAEB120A927808790C12028482
:10C3100078081208537AEB7B0302BA1174F4120303
:10C320007474CB12091D900856E0640F600D8518D7
:10C3300082851983742E12CD2480227AE27B031227
:10C34000B9D912022B88088909E4F50AF50B780897
:10C350001208537AE27B0312BA521208A374350210
:10C36000B9A974F112037474F712091DEAFEEBFF08
:10C37000780012C4656007E06403600278E8EE2488
:10C380001712BA8F12B9C65022E87021EE24171284
:10C39000BA7BEE242212C45A12C4657022EE24190C
:10C3A00012DD4090086512CDD4802678E8E88E82B0
:10C3B0008F83A312D4B17417F0120FEE02DDBB907D
:10C3C000086574FEF0A30412C4767A5C7B08121B25
:10C3D00094EE2425F508EF340085080CF50D750E54
:10C3E00000780C1208577C0B7D007AF47B0312D97D
:10C3F0006D1208A312BA0812C480740212C47685A2
:10C400001882851983AA82AB83121B88EE2422F539
:10C4100082EF340012C46E12085712CBDF1208A349
:10C42000EE2402F8EF12DDC7FAE912B9E72424126C
:10C43000D161780812085B7402120AEFAC82AD83F6
:10C4400079831A1A12D1501208A3E9600302C3BCFF
:10C45000EEFAEFFB120F1C02C3BCFAEF3400FB79BB
:10C4600050121A0222EE242112BA49640222F583E4
:10C4700012DC98780C22F0EE2419FCEF3400FD2237
:10C48000F0EE240D12D7012274F612037474F71221
:10C49000091D9003FFE070387401F0F9121AEC8561
:10C4A0001882851983AA82AB831210187508F47557
:10C4B0000903780812085B90086B1206927B0174DE
:10C4C00004120AEFAC82AD837A0312B9BE1208A33C
:10C4D000740902D64C74F712037412C6B37004A325
:10C4E00074EBF09003FFE0A2E25003C2E2F0E0A29E
:10C4F000E1500512C6C480098E828F83742A12D53A
:10C500002602C63C74F412037474FE12091D12C58F
:10C51000C3EE2402F8EF3400F912C7F085188285C3
:10C52000198312C80AE0F50B7012851882851983E9
:10C53000AA82AB837953121A0212DC8612D97312C3
:10C5400008577C0B7D007AF47B0312D96D1208A387
:10C5500085188285198312CD0AA90B120F46900304
:10C56000FFE0A2E1500A8E828F83A3E0F9120F4C04
:10C570009003FFE4F0740202B9A974F7120374EA9D
:10C58000FEEBFF8E828F83A374EBF09003FFE0A29B
:10C59000E1500579EB120F4CEEFAEFFB120F7C0223
:10C5A000C63C74F712037412C5C39003FCE4F09008
:10C5B00003FFF07AFF7BFF8E828F83A3E0F9120FD7
:10C5C000468079EAFEEBFF7901121AF27AE27B03E8
:10C5D0001211087AEB7B031211082274F71203740C
:10C5E000EAFEEBFF120F76804C74F712037412C749
:10C5F0001CA3A3A3E06003E4800274EB12C62850DE
:10C6000003C2E2F0E0A2E1500512C6C48011A2E02C
:10C61000500D8E828F83742AF0A374EB12D526EE10
:10C62000FAEFFB120F2E80148E828F83A3F09003FB
:10C63000FFE0A2E222EEFAEFFB1210787F01020582
:10C640008D74F6120374EAFEEBFF9003FFE0D2E173
:10C65000F07901121AECEE240D12C68712085BEE77
:10C66000240B12BA8F120692EE2402EF3400FF0E52
:10C670000E7401C0E012101EE9FAD0E0FBEEFCEFF0
:10C68000FD12B9BE02D64CF508EF12DD7378082210
:10C6900074F712037412C6B37004A374EBF0900322
:10C6A000FFE0A2E25003C2E2F0E0A2E1500312C6B2
:10C6B000C48089EAFEEBFF7901121AF28E828F8321
:10C6C000E0642022C2E112D36BE0F9120F4C227415
:10C6D000F7120374EAFEEBFF7901121AF27AE27B99
:10C6E0000312DF58E06003E4800274EB12C62850A6
:10C6F00003C2E2F0E0A2E1500312C6C402C61F74F6
:10C70000F712037412C71C74EB12C62D5003C2E259
:10C71000F0E0A2E1500312C6C402C63CEAFEEBFF01
:10C720007901121AF28E828F83A32274F712037496
:10C7300012C74102C63574F712037412C74102C60C
:10C740003CEAFEEBFF7AE27B03121108EEFAEFFB04
:10C75000120FA02274F712037474EF12091DEAFE7F
:10C76000EBFF12D32B7A5C7B08121B82E9605B859E
:10C7700018828519837409F07401120AEF74EF129C
:10C78000DD9C12C7F0F87402120AEFE812C80AA37F
:10C79000A3E0C0E07404120AEFD0E012C806E0641F
:10C7A0000870168E828F83A3A312C7E4A3E0C0E0B3
:10C7B0007405120AEFD0E080067405120AEFE41245
:10C7C000D3877406120AEF12C7CF741102BAA4AA53
:10C7D00082AB83121042851882851983AA82AB83AB
:10C7E000121BE22212C7E82212DEDCA3A3A3A322BB
:10C7F000E8FAE9FB8A828B8312D4AB88828983E0D2
:10C80000FCA3E0F9EC2212D37C22F0A3E9F08A82A7
:10C810008B8312DED822C082C08312108402C1E151
:10C82000C082C08390041C7407F0A37420F0A3742A
:10C83000AFF0A37420F0900CAB7425F0A3741FF03C
:10C84000A37461F0A3741EF09004087440F0A37404
:10C850000FF0900405E0440102BA98C082C083EA58
:10C86000FCEBFDEA241612BA9C7902120FFA02C1FF
:10C87000E1C082C083790602D7CE74F612037474C5
:10C88000FE12091D90040112CAB560077A017B04EB
:10C89000121012900407E4F09004B012CAB5602C94
:10C8A000800D851882851983AA82AB83121012909D
:10C8B0000400E0F91213A28A088B09A808A90985C7
:10C8C000188285198312CDD4E84970D602D64A74ED
:10C8D000F6120374E9FA7B00900400E0F91213C623
:10C8E00002D64F74F712037474F012091DEAFEEBBE
:10C8F000FF89088E828F83E0F8746328F5827420A4
:10C9000012CBD9C0E07401120AEFD0E0F0640B70D2
:10C910000D8E828F83A3E9F012106602C9ECE070DD
:10C920000302C9EC640C600302C9D8741A6508706C
:10C930000B7404120AEFE4F0A302C9D77404120ABC
:10C94000EFEEF0A3EF12D353C0E07403120AEFD05E
:10C95000E012C806A3120ACC7406120AEF120AD813
:10C960008E828F83A3A3A3A3A3A3A3A3A312DD47B4
:10C97000740A120AEF12B9EB240E12BA74A2E45030
:10C9800009851882851983E48012EE241112BA58A1
:10C99000900878E0C398851882851983F0E0C0E09C
:10C9A000740C120AEFD0E0F0EE241412BA74C0E056
:10C9B000740D120AEFD0E0F0EE241512BA74C0E044
:10C9C000740E120AEFD0E0F0EE241612BA74C0E032
:10C9D000740F120AEFD0E0F07402120AEFE508F0CB
:10C9E0007401120AEFAA82AB83121BE2741002BA1E
:10C9F000A4C082C083900407E070047901800279AA
:10CA00000002C1E1C082C083900407E064037004A7
:10CA100079018002790002C1E174F6120374900476
:10CA200007E0C333F8E433F974A928F582740C39AC
:10CA3000F58312CE28C2E7F0C333FCE82CF582E977
:10CA400012BA92A3E493FEC333FCE433FD74A92C21
:10CA5000F582740C3D12E1A4EC4D6005EE900407E4
:10CA6000F08A828B83E0C333FCE433FDE82CF5824B
:10CA7000E93DF583E493F508131313541F54FEF8AE
:10CA8000741628F582740412BA9212CAB57005128F
:10CA90001054801BE508540FC333FCE82CF582E9E1
:10CAA00012CBD9C0E0740193F583D082121D6D02C0
:10CAB000D64F9003DE12D4ABE8492274F01203740F
:10CAC00074FE12091D890FEAFEEBFF8908748412B7
:10CAD000CBD4742012CBD912CB27603B8A828B83B4
:10CAE000E50FF0A3E4F08E0C8F0DF50E780C120814
:10CAF00057850F0A7479250AF582742012CBD9FC68
:10CB00007D00EA24020A0AEB12CBE81208A3AA0865
:10CB1000AB0912CB35800B851882851983E50F127E
:10CB2000CBF1740202BA14FA7B001213908A088BBC
:10CB300009EA450922900400E0F912139C2274EEE0
:10CB400012037474FE12091D890C8C088D09890E5C
:10CB50007484250EF582742012CBD9F50EEA600696
:10CB60007405250EF50E850E10AA107B0012139089
:10CB70008A108B11AE10AF11EE4F60418E828F8301
:10CB8000E50CF0A3E4F0EE250EF8EF3400F98E8208
:10CB90008F8312D372E4F0F50A7808120857850CD7
:10CBA00008747912CBD4742012CBD9FC12CBE112C9
:10CBB00008A3EEFAEFFB12CB357900800D851882C1
:10CBC000851983E50C12CBF1791A74021208A37F40
:10CBD0000A02058D2508F5822212D704E493227CEF
:10CBE0000B7D00EE2417FAEF3400FB12136674037A
:10CBF00022F0791AAA82AB83120FDC22C082C08392
:10CC0000E990040002BA9874F612037474FE1209D3
:10CC10001DEAFEEBFFEE54207031803AE5A8F8C221
:10CC2000AF9003DDE01412BD808A828B8312DDAEEB
:10CC300090040312DDD1120FEE851882851983E06E
:10CC4000641560077A037B041210127AD77B0312F3
:10CC500013B4EA4B70C6EF5480700880129004033E
:10CC600012CD14900400E0F91213A2EA4B70EEEE1C
:10CC70005410600B851882851983742D12CD24EE13
:10CC8000A2E0500B851882851983742412CD24EEFE
:10CC90005402600B851882851983742512CD24EE09
:10CCA0005404600B851882851983742612CD24EEF6
:10CCB0005408600B851882851983742812CD24EEE0
:10CCC0005440600D7401120AEF12DD8F742C12CDE6
:10CCD00024EE5480600D7401120AEF12DD8F742F60
:10CCE00012CD2490040112CAB56018E5A8F8C2AFAD
:10CCF00090040112CD0A900401E4F0A312BD80A3B8
:10CD000012CD147A007B0002D64A12CD0FFB22E02E
:10CD1000FAA3E022EAF0A3EBF0120FEE7A037B0411
:10CD200012101222F0AA82AB83120FEE22C082C030
:10CD30008390040312DD47EA687002EB6970079084
:10CD40000403E4F0A3F002C1E174F7120374EAFEF5
:10CD5000EBFFEE4F70031217AAA2AFE433F508C23F
:10CD6000AF8E828F8312CAB56028E824FBFAE934BB
:10CD7000FFFB90040312E1A6E86C7002E96D7007F6
:10CD8000900403E4F0A3F08E828F83E4F0A3F0120A
:10CD90001432E508A2E092AF02C63CC082C0839084
:10CDA0000865E064FE7003A3E0F470097C5C7D0814
:10CDB000121B88801C8A828B83A3A3A3A3A3A3A393
:10CDC000A37402F090086512DD478A828B8312CD2E
:10CDD000D402C1E1E8F0A3E9F022C082C083900848
:10CDE0006F12DD5B400479038002790202C1E1C069
:10CDF00082C0838A828B83A3A3A3A3A3A3A3A3E05C
:10CE00006402701690086512CE28687003A3E0696A
:10CE100070047901800F7900800BEAFCEBFD7A5CED
:10CE20007B08121B8202C1E112D4AB8A828B83E0A1
:10CE30002274EA1203748A088B098C128D137416FB
:10CE4000120AEF12DD78750A008C828D83A3A3A3EA
:10CE5000A3A3A3A3A3E0F510E9A2E75008750CFF74
:10CE6000750DFF800690086B12D04FE9C2E7F511EF
:10CE7000EA240EF582EB12BA1CEA500A12BEC01266
:10CE8000BA927408800712BEC012BA92E412D05748
:10CE9000A2E2EA500712D0417480800512D041749A
:10CEA0001012D057A2E4500CEA2411F582EB12BA0A
:10CEB00092E48011900878E0C0E0EA2411F582EB5A
:10CEC00012BA92D0E012D057A2E05003750A20A205
:10CED000E350067410450AF50A8A828B83A3A3E007
:10CEE00024FFFEA3E034FFFF12D03A12BA77C394B6
:10CEF00002E040061412D0647403450AF50A851155
:10CF000014751500740E7814120A1EE515F50B74CD
:10CF1000026511701290087012D06390086F12D8D9
:10CF20005DF012D031801A74036511701012D02890
:10CF30007C7F7D08EEFAEFFB121B9480E5E5116023
:10CF400026E5106014E50E650C7004E50F650D70A4
:10CF5000087440450AF50A800E8E828F83E50D1213
:10CF6000D076E50C12D06885100C750D00740A7827
:10CF70000C120A1EE50D450BF50B740265107018B6
:10CF800085128285138312D06285128285138312E3
:10CF9000D85DF012D031801A74036510701012D071
:10CFA00028AC12AD13EEFAEFFB121B9480E5E510EE
:10CFB000600E8E828F83E50F12D076E50E12D06858
:10CFC000EEF8EFF9E824FF1EE934FFFFE508240D31
:10CFD000F582E50912BA77700590085B8003900826
:10CFE00067E0FA04F0EA8882898312D4B1E50B1273
:10CFF000D076E50AF0E5082404F8E5093400F9E5FF
:10D00000082402FAE5093400FBEEFC8A828B83E0F7
:10D01000F50888828983E02508C39C12D59AEEF032
:10D02000A3EFF0790002DD56EE24F9FEEF34FFFFA6
:10D0300022EE24FF1EEF34FFFF22EA240DF582EBDF
:10D040002212D04AEB12D70422E82410F58222E003
:10D05000F50CA3E0F50D22F0EA240EF582EB12BAEE
:10D060004C22A3E08E828F8312D06C22F0EE24FF3C
:10D070001EEF34FFFF2212D06C8E828F832274EC5D
:10D08000120374890A8A0F8C108D118B0B74141281
:10D090000AEF12DC947416120AEF12D04FAA0B1288
:10D0A0000EC88A128B13A812A913E8FEE9FFE849FB
:10D0B000604312BA8CE50B12C480E50AF0750E00CD
:10D0C000780C12085712CBDF1208A3780812085BFD
:10D0D000AC10AD11A90F12D14E1208A3E97016E5DC
:10D0E0000A24F9600314700612BA42D2E5F0EEFA8F
:10D0F000EFFB120F1C80007F0C02058D74F71203EA
:10D1000074EAFEEBFF7801EE242312BA7460027811
:10D110000512BA8CE812C4807404F0EE2402EF34D5
:10D12000000A0A12B9E7242212D161EE242012BAB1
:10D130008F12069212D15879031A1A12D15012087E
:10D14000A3E97007EEFAEFFB120F1C02C63CEEFAE1
:10D15000EFFB12102A740222EE2417FCEF3400FDBC
:10D160002212BA498882898312D37C7401F0227416
:10D17000F31203748A088B09ECFEEDFF8A828B831D
:10D18000740512D35B8A828B83A3A3F0EA2403F590
:10D190000AEB3400F50B850A8212DD45EE242412D9
:10D1A000BA8F120ACCE82411F582E912BA92120A57
:10D1B000D812D32BE8FAE9FB121B88850A82850B6B
:10D1C0008312D6F712CD0A88828983A3A3A3A3A3CF
:10D1D000A3A3A3A3EAF0A3EB12D353C0E012D04958
:10D1E000E912BA92D0E012D342241512D33D12D3E1
:10D1F00042240E12D33D12D387850A82850B83E029
:10D200002416FAA3E03400FB1210428E828F83A30F
:10D21000A3A3A3A3A3E0C0E0850A82850B83E02437
:10D220000D12DD80D0E012D363850A82850B831254
:10D23000CD0AEA240BFCEB3400FD88828983E08C64
:10D24000828D83F0A3E412D34BE08C828D83A312F2
:10D25000DD51FCA30808A983A2E7E433C0E012BEB5
:10D26000BF12BA92D0E0F074075C60047A018002C9
:10D270007A0075F00374075CA42AFAE82AF8E93406
:10D2800000F9E5082405FAE5093400FB8882898362
:10D29000E08A828B8312D34B850882850983A3A3FE
:10D2A000A3A312D594E0FC5407C333FAEC1354380B
:10D2B000FCEA2CFAE82AF8E912D321A3A3A3A3A33A
:10D2C000A3A312D37212D334E02AFAA3E03400FBF2
:10D2D000C3EA98EB99402B8E828F83A3A3E0F88555
:10D2E0000882850983A3A3A3A3A3A3A3A3A312D303
:10D2F00034A3A3E0C39A28850882850983A3A3A346
:10D300008016850882850983A3A3A3A3A3A3A3A34F
:10D31000E4F0850882850983A3A3A3A3A3F002BA3E
:10D32000283400F985088285098322EE2412FCEF57
:10D330003400FD22E0FA8E828F83A3A32212DD80C7
:10D34000E422F0850A82850B83E02212DD68A88240
:10D35000A98322F0EE242E12BA4922F0EE243112D3
:10D36000BA492212D36BA312D4AB22F08E828F83E0
:10D37000A322A3A3E8F0A3E912D37C2212D3802234
:10D3800012D36BA3A3A322F0EE2407FCEF3400FD1D
:10D390002274F51203748C088D09750A007808123E
:10D3A00008577C0B7D0002C2D302083BC082C083B9
:10D3B0007918120FDC02C1E1C082C0838A828B839C
:10D3C000E0C3940B500312104E02C1E1C082C0832F
:10D3D000791980DE74F7120374EAFEEBFF90040102
:10D3E00012CAB5601090040112CD0A12105A7A01C7
:10D3F0007B04121012EEFAEFFB12100C900401EEF7
:10D40000F0A3EFF002C63C74F712037474DE120945
:10D410001DEAFEEBFF8E828F83E024FD601124FE67
:10D42000604E24ED600924FA6046146043804A741B
:10D4300016120AEFE4F012D158740B120AEFAA8206
:10D44000AB83121B947413120AEF7403F090086FED
:10D4500012DD477402120AEF12CDD4740A120AEFD9
:10D46000740212D4A37414120AEFE8F0A3E9801036
:10D470007416120AEF740180BC7416120AEF74025B
:10D4800012DD90740B12D4B1A3E0C0E07401120A53
:10D49000EFD0E012D3877417120AEF12C7CF7422AD
:10D4A00002BAA4F090086B12D4AB22E0F8A3E0F922
:10D4B00022F08E828F832274F7120374EAFEEBFF50
:10D4C000750800EE242012D5147003A3E0696003F0
:10D4D0007508E8EE241712B9B46016EE2423F5821D
:10D4E000EF12BA22E508701AEEFAEFFB121036803E
:10D4F00020EE242312BA7460EB900428E070E575E6
:10D5000008E88E828F83A3E50812D4B1741912D56E
:10D510002602C63C12D70112D4AB90086BE06822F9
:10D520008E828F83742912BA86120FEE22C082C0B7
:10D530008374F112091D7402120AEF740412D59A51
:10D54000A3E0C0E07403120AEFD0E0F0EA2420F573
:10D5500082EB12DD43740D120AEF12CDD4EA2417C8
:10D56000FCEB3400FD7404120AEFAA82AB83121B99
:10D57000887404120AEFAA82AB83121024E96003B4
:10D5800012D62F7402120AEFAA82AB83121BE27426
:10D590000F02BAFEA3A3E8F0A3E9F08A828B8322EC
:10D5A00074F612037474E812091D8A088B09740258
:10D5B000120AEF7403F0EA2412FEEB3400FFEEFCD3
:10D5C000EFFD7404120AEFAA82AB83121B94850844
:10D5D0008285098312D628C0E0740C120AEFD0E0CD
:10D5E000F012D618120AEFAA82AB83121042EEFA9A
:10D5F000EFFB121024E9600312D62F12D618120A7C
:10D60000EFAA82AB831210427402120AEFAA82AB15
:10D6100083121BE274188034E5082407FCE5093402
:10D6200000FD740D2212BD5BA3A312C146E022854A
:10D63000188285198374FFF0A312DCA47953121A9F
:10D640000290086574FFF0A3F02274021208A37F11
:10D650000202058D74F612037474D412091DEAFED9
:10D66000EBFF12D6ECE0A2E6501890086B12D6F74A
:10D67000E0687003A3E0697009900429E06041123A
:10D680001084740B120AEFA882A9837403120AEFA4
:10D6900012DBF9851882851983742B12CD2490082A
:10D6A00050E060087408120AEFE060108518828567
:10D6B00019837405F0AA82AB83121BE2742C808C50
:10D6C000900874E060BC12B9B170B7EE240712C6BE
:10D6D0008712085B90086B1206927B017C5C7D08C8
:10D6E0007A03790612B9C01208A380D08E828F8384
:10D6F000A3A312C146A32212D4ABEE242A12D7014F
:10D7000022F582EF3400F58322C082C08374EF12C9
:10D71000091D8518828519837409F07401120AEFB6
:10D7200074EE12DD3002BAFC74F7120374E9FFA242
:10D73000AFE433F508C2AFEF60031219F012198499
:10D7400012D7B7900429E0F9121A1A90086B12CD7B
:10D750000A121A2090086F12CD0A121A267A7F7BBD
:10D7600008121A2C7E0012D7A512CAB5600912D76A
:10D77000A512C142121D6D0EEEC3940740E81210AF
:10D78000D8120FD090042AE4F0120EC2900429E4BB
:10D79000F07A6E7B087952121A02E508A2E092AF85
:10D7A000790002C63CEEC333F8E433F9740828F577
:10D7B00082740439F5832290087EE0F9121A3E90B3
:10D7C000087DE0F9121A3222C082C0837909120F53
:10D7D000F402C1E1C082C0839004167449F0A374BE
:10D7E00020F0A374A5F0A37420F0A37457F0A374E1
:10D7F00020F0900405E4F0A3F012197E02C1E102CA
:10D80000083B74F7120374EAFEEBFFECF8EDF98EB7
:10D81000828F83740712D86312D85DA3A312D863D2
:10D82000A3A312D85DA3A3A312DD64A3120ACC8E16
:10D83000828F83A3A3A3A3120AD88E828F83A3A36C
:10D84000A3A3A3A3A3A3E4F0E82415F582E912BAE5
:10D850005B12DF64A3A3A312CDD402C63CE08E8288
:10D860008F832212DD68A3A3A3A3A32274F412035F
:10D8700074EAFEEBFF90042CE412D982E0C3940416
:10D88000400690042C74E8F08E828F83A3A3A3A398
:10D89000A3A3A3E0C3940F40158E828F83A3A3A3F9
:10D8A000A3A3A3E06403601590042C74E8F08E82B7
:10D8B0008F83A3A3A3A3A3A3E06403700E90040526
:10D8C000E0A2E0400690042C74E8F0EEFCEFFD7A54
:10D8D0002B7B041210A28E828F83A3A37808120AD6
:10D8E00092740A78081208D690043F7808120AB099
:10D8F0008E828F83A3A3A3A3A3A3A3E090044312C8
:10D90000D98C900444F0A3740AF090087EE090044F
:10D9100046F090043C12C2747404F0EE240A12D94A
:10D92000761208577C0B7D007A477B0412D96D1262
:10D9300008A390042CE07020A3E0600690042C74EF
:10D94000EAF090042DE0F9121A4A8E828F83742631
:10D95000F07904121AE680078E828F837429F0EE24
:10D96000FAEFFB120FEE02B9ACAA82AB8312136678
:10D97000740322EE2407F508EF12DD73750A0078B0
:10D98000082212D9862212D380A3A32212D986A3F9
:10D99000A3A3E02274F412037474F712091DEAFEC3
:10D9A000EBFF90042DE0702A900445E0640A6022A9
:10D9B000121A5CE9C0E0900445E0F8900434E028D5
:10D9C000F812DDC524F512DDA6D0E0F0900433E0B6
:10D9D00004F090043F7808120A9274017808120843
:10D9E000D690043F7808120AB0900445E004F0E5B0
:10D9F00008A2E04006E0C3941D40D7E0641D6066C5
:10DA00007A457B0479E1121A0290042DE0600464E7
:10DA1000027009EEFAEFFB1210B4804D7408120A7E
:10DA2000EF740212DD9074FFF0A3F090042DE06417
:10DA300001700679087A80800479077A837508472F
:10DA4000750904780812085B7508FF7509FF7808E6
:10DA500012085B7B007404120AEFAC82AD8312B92A
:10DA6000C01208A3800312D52002B9A774F01203D4
:10DA700074750801750900750A00750B009004455E
:10DA8000E078081207D87808120A5290042F780814
:10DA9000120A0B90042DE06403700F12DAEB120AE5
:10DAA000927808790C120284803575080175090096
:10DAB000750A00750B00900443E078081207D890AF
:10DAC000878078081209AC908744780C120A927803
:10DAD00008790C12028490042DE07003121A567813
:10DAE000081208537A367B0402BA1190087912B9E9
:10DAF0009C908744780C2274F512037474D4120934
:10DB00001DEAFEEBFF90042DE064026008E0640172
:10DB1000600302DBF490042CE4F0740B120AEFA80B
:10DB200082A9837403120AEF12DBF9900444E0F82F
:10DB3000900433E0C398400302DBBEA312DC949050
:10DB40000433E0F50A803C850882850983A3A3A3FA
:10DB5000A3A3A3A3A3A312DD477414120AEFE068E2
:10DB60007003A3E0697013740B120AEFAC82AD83EB
:10DB7000AA08AB09121B82E97044150AE5082421A2
:10DB800012DD6FE50A70C0740B120AEFA982AA8336
:10DB900089088A09750A0078081208577C217D00D7
:10DBA000900433E08CF0A4F8A9F0A3E028FAA3E0F5
:10DBB00039FB12D96D1208A3900433E004F09008E9
:10DBC00050E0600E7408120AEFE07006900444E022
:10DBD000700D851882851983AA82AB83121BE2908F
:10DBE0000444E0600F900433E0F8900444E068706F
:10DBF0000312D520742C02C2D6E8F0A3E9F0EEFCA3
:10DC0000EFFD851882851983AA82AB8312103C220E
:10DC100074F612037474FE12091DEAFEEBFFEE2483
:10DC20001A12BA7464037051EE242312BA74640396
:10DC3000704712DC868E828F83A3A312DC94850842
:10DC400082F58312DCAC795012DC7C12DCAC794BAF
:10DC5000121A02AA08AB0979E112DC7CA312B99668
:10DC6000851882851983F0A3E912DCA07953121A72
:10DC70000290042CE4F012D52002D64A121A028532
:10DC8000088285098322EE2412FAEF3400FB794AD8
:10DC9000121A022212DC9822E0F508A3E0F509220C
:10DCA00012DCA42212DD94AA82AB832212CD0FF9DA
:10DCB000EA851882851983F0A3E9F0E508240212A9
:10DCC000DD6F851882851983AA82AB8322C082C04A
:10DCD0008390042CE064E860267A367B04121108F5
:10DCE000121A507904121AF290042DE0640370069F
:10DCF00090042CE060097A467B0479E1121A027ADA
:10DD00002B7B0402C1DCC082C08374F512091DEABA
:10DD1000FCEBFD851882851983AA82AB831210A2C1
:10DD20007401120AEF74FC12DD30740B02BAFEE9C2
:10DD300012DCA4121BE222C082C083790702D7CE74
:10DD4000F582EF3400F58312D4AB22E0FEA3E0FFAE
:10DD50002212DD68E0227F0E02058DC3E094FEA34F
:10DD6000E094FF2212DD6822F088828983A322F5E5
:10DD700008E5093400F50922E0F50EA3E0F50F22CD
:10DD8000F812DD8522A3E03400F98882898322E439
:10DD900012DD9422F085188285198322F0EE240288
:10DDA000F8EF3400F922F582E934FFF5832212DD21
:10DDB000B222E0851882851983F02274091208A323
:10DDC0007F0702058DA3E03400F9E822FB888289F1
:10DDD00083EAF0A3EBF022C082C083900452E4F007
:10DDE000A3F0900454F0A3F090876C120ACC900C2E
:10DDF000B3120AD890876C120ACC900CB7120AD8CA
:10DE0000900456E402BA9674F4120374900456E433
:10DE1000F0A3F090045212CAB5603412DECBC08277
:10DE2000C083900CB37808120A92D083D08278080D
:10DE300012095D501A12DEB812DF7212095D500627
:10DE400012DF72120AB090045212DEC412CDD490C6
:10DE5000045412CAB5900456602E12CAB5601E90C2
:10DE6000045412DED4C082C08390045612DF7512AF
:10DE70000A92D083D082780812095D501090045421
:10DE800012DEC412CDD4800512CAB5602512DED1CF
:10DE9000C082C083900CB37808120A92D083D082DB
:10DEA000780812095D500B12DED1120ACC12191833
:10DEB000800312191E02B9AC12190C8A088B098C46
:10DEC0000A8D0B2212D4AB9004562212BD5CA3A380
:10DED0002290045612DED82212DEDC2212C14AA39E
:10DEE000A32274F412037490045612CAB560661229
:10DEF000DECB7808120A9275830C7582B37808120B
:10DF0000095D500B1217AA90045612CAB56046124A
:10DF1000DEB890045612DF751207F7503812DED1C2
:10DF2000C082C0839087487808120A92D083D0823A
:10DF3000780812095D50031217AA90045612DD4B9F
:10DF4000EEFAEFFB12DF58A3A3A312DF6412C14263
:10DF5000121D6D80B202B9AC1211088E828F83A39C
:10DF6000A3A3A322A3E0F98E828F83A3A3A3A3A3D9
:10DF7000A32290045212DED878082274F01203749F
:10DF80008A088B098C0A8D0B7410120AEF80248E7C
:10DF9000828F83A3A3C082C083908748780C120A23
:10DFA00092D083D082780C12095D50031217AA8E8A
:10DFB000828F8312BA6C60428E828F83A3A378080B
:10DFC00012098612DFFD7002EF6970C38E828F83A3
:10DFD000A3A3C082C083908748780C120A92D08392
:10DFE000D082780C12095D50A6908748120ACC8E18
:10DFF000828F83A3A3120AD880B502BA1790045661
:10E0000012D4ABEE682274F0120374A2AFE433F5BD
:10E0100008C2AF90045412DD4B9004521206929045
:10E020000CB3780C120A92780C120A31AA0CAB0DC0
:10E03000AC0EAD0F1210EA74021208A3803B8E8260
:10E040008F83A3A3C082C083900CB3780C120A9272
:10E05000D083D082780C12095D4013900CB3780CF9
:10E06000120A928E828F83A3A3780C1209728E8279
:10E070008F8312DD47E8FEE9FFEE4F70C1900CB3CD
:10E08000C082900CB7780C120A9275830CD08278FB
:10E090000C1209486015900CB7120ACC900CB31200
:10E0A0000AD8900CB3120ACC1219061210DEE50839
:10E0B000A2E092AF02BA1774F0120374EAFEEBFF0B
:10E0C000A2AFE433F50CC2AFECFAEDFB8C828D838A
:10E0D0008008AA0EAB0F8A828B8312DD78E50E458D
:10E0E0000F60228E828F83A3A3C082C083850E829D
:10E0F000850F83A3A37808120A92D083D082780870
:10E1000012095D50CD8A828B83EEF0A3EF12D4B159
:10E11000E50EF0A3E50F12E12912E0007002EF69AD
:10E1200070031210DEE50C8087F08C828D8322EE66
:10E13000FAEFFB1210F602BA1774F0120374EAFE3B
:10E14000EBFF7410120AEF7808120A9212E16312C0
:10E1500009998E828F83A3A37808120AB07C527D1E
:10E160000480CC12B9CD7808790C2274F7120374AC
:10E17000ECF8EDF98C828D838004A882A98312E1EA
:10E18000A68C828D83E58245836014EA65827003E4
:10E19000EB658370E512CD0F12DDCC790180027939
:10E1A0000002C63CF583E0FCA3E0FD2274F71203F5
:10E1B00074EAFEEBFFA2AFE433F508C2AF7C527DF8
:10E1C00004121102E9700B7C547D04EEFAEFFB128D
:10E1D000110212DFFD7002EF6970031210DE02CD32
:10E1E0009274F412037474F812091D7E008E089064
:10E1F000049EE4F07F79750A08750B00780A12080E
:10E200005B7402120AEFAC82AD837A007B00EFF9F7
:10E2100012EB3F1208A3851882851983E0F470037E
:10E22000A3E0F4701390049EE07004EFF080197A7C
:10E2300001EFF912143E80107404120AEFE0F4703A
:10E2400003A3E0F46002EFFE0FEFC3947F40A7EE5C
:10E2500090049E601EE0600FF912144A7A007B0061
:10E26000EEF91214508013EEF912144AEE90049E47
:10E27000F08007E06004F912144A7F79AC087A0054
:10E280007B00EFF91214448B0BEA450B600575080F
:10E29000017F780FEFC3947F40E2E508A2E05014BD
:10E2A0007F797C007A007B00EFF91214440FEFC3F2
:10E2B000947F40EE90049EE0704A7F007A0012E363
:10E2C0000964F87004A3E064077004EAFF802AEF91
:10E2D000C333F8E433F912E315C082C08312E309B3
:10E2E000F8A3E0F9D083D082C3E098A3E09950026C
:10E2F000EAFF0AEAC3940640C574792F90049EF0A1
:10E30000F912144A790102EB7DEAC333F8E433F9D8
:10E3100012E315E022749228F582740439F5832201
:10E3200074F712037474F812091DEAFF85188285C8
:10E330001983E4F0A3F0EF60087402120AEFE4809E
:10E34000077402120AEF74FF12E99E7A007B001232
:10E35000147474081208A37F0102058D74EE120371
:10E360007474F812091D890C8A0E8B0F8C0D750AB6
:10E3700008750B007E007F00750808750900780895
:10E3800012085B7402120AEFAC82AD83AA0AAB0BCF
:10E39000A90C12EB3F1208A3851882851983E0F4BB
:10E3A0007003A3E0F4700302E4EA7402120AEF12AD
:10E3B000E7B040087508FC7509FF800D7402120A69
:10E3C000EF12E7B9F508E9F50974F8C3950AF8748E
:10E3D00007950BF9C3E89508E99509501AEE240052
:10E3E000F8EF3408F9E8C3950AFEE9950BFF750AC2
:10E3F00000750B0802E4EA12F0A312E505E8497083
:10E400000302E4C0E50E450F604AA80EE50F547FF5
:10E41000F9851882851983E0687003A3E0696003B9
:10E4200002E4D0E50F548070137406120AEFE0F492
:10E430007003A3E0F4600302E4D080117406120AB2
:10E44000EFE0F47003A3E0F4700302E4D0AA0AAB97
:10E450000B02E5017402120AEF12F50CA90C12E787
:10E46000867404120AEFE0687003A3E0697046E561
:10E470000D602E7406120AEFE0F47003A3E0F4704E
:10E480004F851882851983E0FAA3E04480FB1214BB
:10E4900056EA4B603B7C0190049FE0F912146280C5
:10E4A0002F7406120AEFE0F47003A3E0F460217AFF
:10E4B000FF7BFF804C7C01AA0AAB0BA90C121462F3
:10E4C000E5082408F8E5093400F9EE28FEEF39FFE5
:10E4D000E50A2508F50AE50B3509F50BC3E50A94AD
:10E4E000F8E50B9407500302E378E50C12E792E598
:10E4F0000AF0A3E50B12E538EEF0A3EFF07A007B0B
:10E50000007408800E851882851983E0F8A3E0F96D
:10E510002274041208A37F0A02058D74F712037493
:10E52000E9FE1217E0EE12E7927408F0A3E412E598
:10E5300038E4F0A3F002E357F074A028F5827403E6
:10E5400039F5832274EE12037474F712091D8908D9
:10E550008A0A8B0B7E007F00750C01750D00780C0C
:10E5600012085B7402120AEFAC82AD83EEFAEFFB85
:10E5700090049EE0F912EB3F1208A38518828519DA
:10E5800083E0F4600812E7A7790002E77BEE24013C
:10E590000EEF3400FFC3940840BE7E087F00740174
:10E5A000F090049EE012E792E0F50CA3E0F50D7503
:10E5B0000E08750F00780E12085B7403120AEFAC98
:10E5C00082AD83EEFAEFFBA90812EB3F1208A374A9
:10E5D00001120AEFE0F47003A3E0F4700302E751C4
:10E5E0007403120AEF12E7B04008750EFC750FFFB6
:10E5F000800D7403120AEF12E7B9F50EE9F50F74F6
:10E60000F8C39EF874079FF9C3E8950EE9950F507B
:10E610000302E75174F8C3950CF87407950DF9C31C
:10E62000E8950EE9950F500B851882851983E4F063
:10E6300002E75AEE2408FEEF3400FF7401120AEFDD
:10E6400012E50BE849700302E73D7401120AEFE09E
:10E65000650A7004A3E0650B700302E73D740312C2
:10E660000AEF12F4E9EEFAEFFBA90812E780120AAA
:10E67000EFE0687003A3E069600302E73D740712EE
:10E680000AEFE0F47003A3E0F4700B7C00EEFAEF05
:10E69000FBA908121462750900780912085FE4F5F5
:10E6A00010F511781012085B7406120AEF12F4E9E3
:10E6B0007404120AEF12EA9E90049EE0F912148C80
:10E6C00074031208A3E9700302E628E50C2408F598
:10E6D0000CE50D3400F50D780E12085B780C12086D
:10E6E0005B90049EE0FCEEFAEFFBA908121486741E
:10E6F000041208A37403120AEF12E7CA12E7801289
:10E700000AEFE0687003A3E069600302E62874057D
:10E71000120AEF12E7CA1214688A108B11A810A906
:10E72000117405120AEFE0687003A3E06960030248
:10E73000E6287401120AEF12E7CA121498EE250EA9
:10E74000FEEF350FFFC3EE94F8EF9407500302E598
:10E75000A1851882851983E0700512E7A78014E56A
:10E760000A450B700E12E982A90812144AE50890B6
:10E77000049EF0851882851983E0F9740902E51377
:10E7800012E78674052212146E8A108B11A810A944
:10E79000112212E79622C333F8E433F9749428F572
:10E7A00082740339F5832290049EE0F912144A2200
:10E7B000C3E094FCA3E094FF2212E7BD22E024030F
:10E7C000F8A3E03400F9E854FC2212F4E9AA0CABF7
:10E7D0000D90049EE0F92274F4120374EAFEEB80BB
:10E7E0000374804FFF7508797C00EEFAEFFBA908EF
:10E7F0001214448B0BA90BEA496008E50890049FAA
:10E80000F080150508E508C3947F40DCEF54806074
:10E81000D090049FE4F0FAFB02EB8274EE120374D2
:10E8200074F612091D890A8A0C8B0D8C088D0974E7
:10E830001C120AEF12F0B8C3EC94F4ED94FF400EF2
:10E8400085188285198374FCF0A374FF801CEC2466
:10E8500003F8ED3400F9E854FC2408F8E93400F931
:10E86000851882851983E8F0A3E9F07F007C069083
:10E87000049EE004FEEEC3947F40027E7990049EE5
:10E88000E06E602B74872EC333F8E433F974862866
:10E89000F582740439F58312EA9EE4C39AFA740887
:10E8A0009BFB12E3102AFAA3E03B12E98D50080EFD
:10E8B0001CEC70C102E97BEC700302E97BEE12F004
:10E8C000C2FA74089912E98D400302E958751008DC
:10E8D0008F11781012085B7404120AEFAC82AD83BA
:10E8E0007A007B00EEF912EB3F1208A37406120ABD
:10E8F000EFE0F47003A3E0F4700B12E9977A04FBE5
:10E90000EEF912147AAA0CAB0DEEF9121450E9606C
:10E910006AE50AF50B780B12085F780E12085BACFB
:10E9200008AD09AA0CAB0D90049EE0F912148C748A
:10E93000031208A3E9600590049EE0FFE50A700A4F
:10E94000EE850E82850F83F0803112E982EEF91296
:10E95000144AEE90049E80EFE50AF50B780B12083E
:10E960005F780E12085BAC08AA0CAB0DEEF912141E
:10E970008C74031208A3E96002EEFFEFF9740A0237
:10E98000E5137A0190049EE0F912143E22FB12E591
:10E9900005C3EA98EB9922851882851983E4F0A3D0
:10E9A00012F0DB2274F212037474F812091D890943
:10E9B0008C08EA24F8F50AEB34FFF50B750C0875A2
:10E9C0000D00780C12085B7402120AEFAC82AD8362
:10E9D000AA0AAB0B12EB3F1208A3E50870237406DA
:10E9E000120AEFE4F0A3F07404120AEFAC82AD83D4
:10E9F000E50A2404FAE50B3400FBA909121474801B
:10EA0000197402120AEF12F0CC12E997AA0AAB0BA2
:10EA1000A909121474E50912EA2474081208A37FE4
:10EA20000602058DC333F8E433F974A028F5827427
:10EA30000339F583E02EF0A3E03FF02274F41203D3
:10EA40007474FE12091D851882851983ECF0A3EDFC
:10EA5000F08908EAFEEBFFEE24FCFEEF34FFFF85B1
:10EA60001882851983AC82AD83EEFAEFFB12147A1B
:10EA7000750A02750B00780A12085B7402120AEF1D
:10EA8000AC82AD83EEFAEFFBA90812EB3F1208A3AC
:10EA900085188285198312EA9E740202EB7FE0FAE0
:10EAA000A3E0FB2274F012037474FC12091D890C9C
:10EAB0008A0A8B0BECFEEDFF750800750900EE2449
:10EAC00003F50EEF3400F50F7402780E120AA1AEB2
:10EAD0000EAF0F12EE866049750E04750F00780EAA
:10EAE00012085B7402120AEFAC82AD83AA0AAB0B68
:10EAF000A90C12EB3F1208A3E50A2404F50AE50B62
:10EB00003400F50B7800880E12ED30E0FAE5082AA3
:10EB1000F508E5093400F50908E8C3940450B48009
:10EB2000E5AA08AB0974041208A37F0802058DE565
:10EB3000822510FCE5833400FDAA0CAB0DA90E1252
:10EB400017D474022274F4120374E9FE7508017577
:10EB50000900780812085B8A088B09740278081289
:10EB60000AA18E0AF50B7409780A120A1EE5082418
:10EB700000FAE509350BFB1217DA02EA997408125C
:10EB800008A37F0402058D74F712037474FC120944
:10EB90001D8C828D83E0851882851983F08C828D8F
:10EBA00083A3E0C0E07401120AEFD0E0F074021217
:10EBB0000AEF74FFF07403120AEF74FF12F0D71219
:10EBC0001474740402E35474EE12037474FC120996
:10EBD0001D8909EAFEEBFF8C0C8D0D7416120AEFED
:10EBE00012F0B0EE5403F508606A74FC5EFE750E18
:10EBF00004750F00780E12085B7402120AEFAC82E3
:10EC0000AD83EEFA12EB3F1208A3E50C450D602927
:10EC1000850A82850B83E0C0E085080E12ED30D0B6
:10EC2000E012ED430508E50C24FFF50CE50D34FF7B
:10EC3000F50DE508C3940440D1851882851983AC8D
:10EC400082AD83EEFAEFFBA909121474EE2404FEE0
:10EC5000EF3400FFE50C5403F508850C0E850D0F0D
:10EC60007402780E120AA1850E0C850F0DE50C4575
:10EC70000D604D780C12085BAC0AAD0B8E0E8F0F39
:10EC80007402780E120AA1850910F5117409781022
:10EC9000120A1EE50E2400FAE50F3511FB1217DAF1
:10ECA00074021208A37402780C120A1EA80CA90D93
:10ECB000EE28FEEF39FFE50A28F50AE50B39F50BDA
:10ECC000E5086069750E00750C04750D00780C126E
:10ECD000085B7402120AEFAC82AD83EEFAEFFBA977
:10ECE0000912EB3F1208A38025850A82850B83E079
:10ECF000C0E0850E0C851882851983E582250CF508
:10ED000082E5833400F583D0E012ED43050E8508DB
:10ED10000C74FF250CF5080470CF851882851983C3
:10ED2000AC82AD83EEFAEFFBA90912147402E5116F
:10ED3000851882851983E582250EF582E5833400E6
:10ED4000F58322F0850A82850B83A385820A858359
:10ED50000B2274EE12037474FC12091D890E8A0CC6
:10ED60008B0D8C0B7416120AEFE0F508A3E0F50981
:10ED70007418120AEFE0FEA3E0FFE5085403F50A59
:10ED80006060F510C3E5089510F508E5099400F5F5
:10ED900009751004751100781012085B7402120ACC
:10EDA000EFAC82AD83AA08AB09A90B12EB3F1208A6
:10EDB000A3EE4F602A751001781012085B850A10C7
:10EDC0007402120AEF12EB2F1208A312EE95050A35
:10EDD000EE24FF1EEF34FFFFE50AC3940440D21275
:10EDE000EEA2EE5403F50A8E108F11740278101201
:10EDF0000AA1AE10AF1180297510047511007810AA
:10EE000012085B7402120AEFAC82AD8312EB391266
:10EE100008A3E50C2404F50CE50D3400F50D12EE05
:10EE2000A212EE8670D2E50A60597E007510048E3B
:10EE300011781012085B7402120AEFAC82AD83AA3B
:10EE400008AB09A90B12EB3F1208A380197510013A
:10EE5000781012085B8E107402120AEF12EB2F1258
:10EE600008A312EE950EAF0A74FF2FF50A0470DDA9
:10EE7000851882851983AC82AD83AA08AB09A90BDA
:10EE800012147402E511EEF8EFF9E824FF1EE934DC
:10EE9000FFFFE84922E50C2401F50CE50D3400F5EF
:10EEA0000D22851882851983AC82AD83AA08AB092F
:10EEB000A90B121474E5082404F508E5093400F5DB
:10EEC000092274EC12037474F812091D89088A105F
:10EED0008B11ECFEEDFF741C120AEF12F0B8741ED9
:10EEE000120AEFE0F50CE912E79212F0B075090092
:10EEF000851882851983EAF0A3EBF07402120AEFF9
:10EF0000EEF0A3EF12F0D7AA0AAB0BA90812147403
:10EF1000751208751300781212085B7402120AEF5A
:10EF2000AC82AD83AA0AAB0BA90812EB3F1208A36F
:10EF3000851882851983E065107004A3E06511606F
:10EF40000302F04C7402120AEFE06E7003A3E06F4C
:10EF5000600302F04CE50C700302F02A850E8285F6
:10EF60000F83EEF8EFF9E85403F50CE58245837062
:10EF700015E875F0FFA4F8AAF075F0FFE9A42AF9E6
:10EF8000E8FAE9FB80207A007B00800AE0FCEA2CAA
:10EF9000FAEB3400FBA3E8FCE9FDEC24FF18ED34A8
:10EFA000FFF9EC4D70E6E50C601E7404C3950CF897
:10EFB00095E0F9E875F0FFA4F8ACF075F0FFE9A46E
:10EFC0002CF9EA28FAEB39FB7404120AEFEAF0A3F1
:10EFD000EBF012F0A3E50E450F6017780E12085BF8
:10EFE000EEFCEFFDAA0AAB0BA90812148074021202
:10EFF00008A3EEFCEFFDAA0AAB0B12F4FE74041298
:10F000000AEFE0687003A3E06970227404120AEF4B
:10F0100012F5367404120AEFE0687003A3E0697019
:10F020000C85188285198312F52F75090174021257
:10F030000AEFC3E094F4A3E094FF40067EFC7FFF58
:10F0400080437402120AEF12F0CC80397402120A63
:10F05000EFC3E094F4A3E094FF40067EFC7FFF80C2
:10F06000087402120AEF12F0CC12F0C0F87408997A
:10F07000F9C3E89EE99F500812F0C0FE740899FF9A
:10F08000E50812EA24E508C333F8E433F974942858
:10F09000F582740312EA31A90974081208A37F0CDF
:10F0A00002058DE50A2408F50AE50B3400F50B226C
:10F0B000E0F50AA3E0F50B22E0F50EA3E0F50F2240
:10F0C000E50812E79612E50BE4C3982212E7BD2487
:10F0D00008FEE93400FF2212F0DB22F08518828559
:10F0E0001983AC82AD8322C082C0837900E9C33327
:10F0F000FCE433FD742F2CF58274873DF583E06AC0
:10F100007003A3E06B600709E9C3940340DFD08379
:10F11000D08202083B74F6120374E9FE8A088B0958
:10F12000ECFAEDFB12F207500E12F210EE12F21C86
:10F13000E508F0A3E509F07F0202058DC082C083D7
:10F1400012143880C974F2120374EAFEEBFF8C08C3
:10F150008D09740E120AEF12F0B0794E1217A4E95D
:10F160007004790A8037EEFAEFFB121456EA4B600E
:10F1700010EEFCEFFD90049FE0F9121498790080E6
:10F180001C780A12085BAC08AD09EEFAEFFB7901B6
:10F1900012145C74021208A3E960C7790902EA1F1D
:10F1A00074F412037474F812091DEAFEEBFF12F2F4
:10F1B00007503F12F210E090049F12F21C12EA9ED8
:10F1C000750A08750B00780A12085B7402120AEFC0
:10F1D000AC82AD83EA24F8FAEB34FFFB90049FE0A5
:10F1E000F912EB3F1208A37402120AEF12EA9E0210
:10F1F000EB7DEEFAEFFB1214568B0BA90BEA49706C
:10F20000BF7A007B0080E8121492E9F8C3940322CD
:10F2100074A028F58274043400F58322F0E812F219
:10F220002222C333F8E433F974A328F58274043935
:10F23000F5832274E812037474F512091D8A168B83
:10F24000178C0C8D0D7423120AEFE0F512A3E0F574
:10F2500013751100794E1217A4E97005790A02F4AA
:10F26000DFE5124513700302F4DDAA16AB17121482
:10F27000568A088B09A808A909880A890B74011203
:10F280000AEFE8F0A3E9F090049FE0F510E8450BE1
:10F290007005790902F4DF7508087509007808120D
:10F2A000085B7405120AEFAC82AD83EA24F8FAE930
:10F2B00034FFFBA91012EB3F1208A37405120AEFEA
:10F2C000E50C2512F8E50D3513F9C3E098A3E09994
:10F2D000408A12F4EF120AEF12F0B8AE12AF1375B3
:10F2E00008008071751401751500781412085B749C
:10F2F00002120AEFAC82AD83AA0AAB0BA91012EB83
:10F300003F1208A3851882851983E0F8850E82854F
:10F310000F83E06860267508017407120AEFC3E0E6
:10F3200098F0A3E09400F0850E82850F83E0F874D6
:10F3300007120AEFE028F0A3E03400F0E50A240108
:10F34000F50AE50B3400F50B850E82850F83A38546
:10F35000820E85830F12EE86708AE508A2E04003D4
:10F3600002F4DD851882851983E4F085820885839F
:10F3700009780812085B7407120AEF12F4E9AA165A
:10F38000AB17790012145C74021208A3E9F5087037
:10F390000302F4877405120AEF12E7B040067EFC00
:10F3A0007FFF800B7405120AEF12E7B9FEE9FF1226
:10F3B000F5147409120AEFE0F47003A3E0F4700A84
:10F3C0007C007401120AEF12F524780C12085B78A5
:10F3D0000A12085BAC087405120AEF12EA9EA91023
:10F3E00012148674041208A312F4EF120AEF120624
:10F3F00092AC12AD13AA0AAB0BA9081214807402C6
:10F400001208A37405120AEFE0C3950CF8A3E09567
:10F410000DF9E8C39512F50EE99513F50F780E1264
:10F42000085BE50A2512F50AE50B3513F50B780A9A
:10F4300012085BAC087405120AEFE0250CF8A3E093
:10F44000350DF9E82512FAE93513FBA910121486D7
:10F4500074041208A312F5147405120AEF12F50CC5
:10F4600012F4FE7407120AEFE0687003A3E06970FB
:10F47000167407120AEF12F5367407120AEFE068E5
:10F480007003A3E069600575110A80087403120A0D
:10F49000EF12F52F851882851983E06026651070BC
:10F4A0000B740A6511700512E7A7801712E98285AF
:10F4B000188285198312E7AA851882851983E0903E
:10F4C000049EF0851882851983E06510600F740A28
:10F4D000651160097C01EC120AEF12F524A9117480
:10F4E0000B1208A37F1002058DE0FCA3E0FD22E5CE
:10F4F0000A250CF50AE50B350DF50B742522A90834
:10F5000012146E8A0C8B0DA80CA90D2212F4E9AA14
:10F510000AAB0B22E50812E796E0C39EF50AA3E0CA
:10F520009FF50B22E0FAA3E0FBA91012146222124D
:10F53000F5451214982212F5451214688A0C8B0DA9
:10F54000A80CA90D22E0FCA3E0FDAA0AAB0BA908B8
:10F550002274F0120374EAFEEBFF8C0A8D0B741018
:10F56000120AEFE0F50CA3E0F50D7412120AEFE0B9
:10F57000F508A3E0F50912F20750278882AE8278D9
:10F580000C12085BAC08AD09EE12F222E0250AFA73
:10F59000A3E0350BFB74A02EF58274043400F583D0
:10F5A0008023EEFAEFFB121456EA4B7004790A80BE
:10F5B0001E780C12085BAC08AD09EA250AFAEB3597
:10F5C0000BFB90049FE0F912EB3F1208A3790002B5
:10F5D000EB2A74F2120374EAFEEBFF8C0A8D0B1215
:10F5E00014568A088B09EA450970047909803DEEB2
:10F5F000FAEFFB1214AA8A0C8B0DE50A650C700455
:10F60000E50B650D6004790C80227C01AA08AB092A
:10F6100090049FE0F9121462EEFAEFFB1214568B7D
:10F6200009EA45096004790A8002790002EA1FC0EC
:10F6300082C083121C0602FAED74F5120374EAFE0E
:10F64000EBFF740B120AEFE0F508A3E0F509A3E065
:10F65000A908AA09FB8E828F83800D120889F0E920
:10F66000240109EA3400FAA312F67670EEAA82ABFE
:10F67000837F0302058DECFEEDFFEE24FF1CEF34CB
:10F68000FFFDEE4F2274ED1203747413120AEFE0C3
:10F69000F510A3E0F511A3E0F51289088A098B0A99
:10F6A00085100C85110DECF8EDF9E824FF1CE93408
:10F6B000FFFDE8496036A908AA09AB0AE92401F56B
:10F6C00008EA3400F509850C10850D11E50C2401BC
:10F6D000F50CE50D3400F50D120889F8A910AA11F2
:10F6E000AB121208896860BE7900800279017F0B35
:10F6F00002058D74F6120374E9FE8C088D097808F2
:10F7000012085B8E08AC087D00121BF4740212080C
:10F71000A302FCD2C082C0838A828B83E0FCA3E078
:10F72000F9EC2400FAE439FB02FAED74F0120374E8
:10F73000E9FE74026E701D8A828B8312F7C3780C07
:10F740001207D87808790C120999AA08AB09AC0AF3
:10F75000AD0B805774036E70168A828B8312F7BDCF
:10F760001207D87808790C12099912F7AE80CF7475
:10F77000046E8A828B83702D12F7BD1207D8780829
:10F78000790C12099912F7AE780C1207D87808791B
:10F790000C1209998A828B83A3A3A3E0F50CE4F5EC
:10F7A0000E74188099E0FAE4FBFCFD02FF588A828F
:10F7B0008B83A3A3E0F50CE4F50D74102212F7C3BC
:10F7C000780C22E0F508E4F509F50AF50BA3E0F55D
:10F7D0000CE4F50DF50EF50F74082274E8120374AD
:10F7E00074E112091DE9851882851983F08A108B4E
:10F7F000118C128D137401120AEFAC82AD837583E4
:10F80000867582C2740A1207B77583867582B874CA
:10F810000A1207B77583867582AE740A1207B77429
:10F8200037120AEF12FF00E4F0851882851983E091
:10F83000640A600302F9828A088B0985120A85131B
:10F840000B908778780C120A927808790C120304CE
:10F85000850C08850D098A0C8B0D85120E85130FFA
:10F860009087787814120A92780C79141203049015
:10F8700087787814120A92780C7914120304AE1463
:10F88000AF15908760780C120A927810790C1203E9
:10F890000485100A85110BE50A450B6012790A747C
:10F8A00015120AEFAC82AD83AA0AAB0B121522EE39
:10F8B0004F6012790A740B120AEFAC82AD83EEFA34
:10F8C000EFFB121522E50845096012790A7401124E
:10F8D0000AEFAC82AD83AA08AB09121522E50A45EE
:10F8E0000B602C7415120AEFAC82AD837437120AC8
:10F8F000EF12FA34800C7C887D877437120AEF127D
:10F90000FA46850C0E740B120AEF12FA5340E77494
:10F910000B120AEFAC82AD837437120AEF12FA3E73
:10F920007004EE4F601E750C00800C7C887D87741F
:10F9300037120AEF12FA46850C0E7401120AEF1202
:10F94000FA5340E77401120AEFAC82AD83743712A8
:10F950000AEF12FA3E7019EE4F7015E5084509706E
:10F960000F7C887D877437120AEF12FD4E121C003F
:10F970007437120AEF12FD4E741F1208A37F100293
:10F98000058DE06410600302FA2D8A088B0974105B
:10F9900078101208D6AE10AF11EE4F6012791074C5
:10F9A0000B120AEFAC82AD83EEFAEFFB121522E5E3
:10F9B000084509601279107401120AEFAC82AD8318
:10F9C000AA08AB09121522EE4F6044740B120AEF1D
:10F9D000AC82AD837437120AEF12FA34800C7C8843
:10F9E0007D877437120AEF12FA46850C0A740112E9
:10F9F0000AEFAA82AB83121C068A0E8B0F7404C313
:10FA0000950EF8E4950FF9C3E50A98E49940CF7490
:10FA100001120AEFAC82AD837437120AEF12FD4E69
:10FA2000121BFAEE4F600302F97002F95B7A007B59
:10FA30000002F97812FD52121C00750C002212FA15
:10FA40004CE50A450B2212FA4C050C2212FD52120B
:10FA50001BFA22AA82AB83121C068A108B11740433
:10FA6000C39510F8E49511F9C3E50E98E49922C006
:10FA700082C083121528807574F6120374EAFEEBB7
:10FA8000FFEE4F70067A007B00803DEE2405FAEF12
:10FA90003400FB12142C8A088B09A808A909E8492C
:10FAA00060E388828983E4F0A3F088828983A3A33A
:10FAB000EEF0A3EFF088828983A3A3A3A374FFF0E1
:10FAC000E82405FAE93400FB02FCD2C082C083EAD4
:10FAD0004B70047905801612FB4560047904800D93
:10FAE000EA24FBFAEB34FFFB1214327900D083D006
:10FAF0008202083B74F7120374E9FEEA4B70047942
:10FB000005804090878AE0F8EEC39840071213966C
:10FB10007903802FEA12FC29EB12FD3A12FC707077
:10FB20000512FB45600512139680D4EEF0EAFCEB5B
:10FB3000FD7A777B041213AE7A007B80EEF9121304
:10FB4000C679008011EA24FFF582EB34FFF583E0EB
:10FB5000F422A2E092AF7F0102058D74F2120374C9
:10FB6000890B750C00750D007E007F00A2AFE43399
:10FB7000F50AC2AF9004778014EE4F700685080C2A
:10FB800085090DE50812FC29E50912FD3AE0F508A2
:10FB9000A3E0F509E50845096023E50824FFF5829F
:10FBA000E50912FD3AE0650B70CFEE4F7006AE0826
:10FBB000AF0980CF7A007B801213C6800B7A007B5E
:10FBC000801213CCEE4F6015780C12085BEEFCEF40
:10FBD000FD7A777B041213BA74021208A3E50AA215
:10FBE000E092AFEEFAEFFB7F0602058DC082C08384
:10FBF000EAF8A2AFE433FCC2AF9004778008EA12BF
:10FC0000FC29EB12FD3A12FC666015EA24FFF5822E
:10FC1000EB12FD3AE06970E68A828B83E06870DE61
:10FC2000ECA2E092AF02FAEDEC24FBF5822274F72D
:10FC3000120374A2AFE433FEC2AF12FD3F12FC6C9C
:10FC400070098A828B83800B12FD5812FC5C70F85D
:10FC500012FD34ECF0A3EDF0EE02FB52E824FBF5CC
:10FC600082E934FFF58312FD52EA4B228A828B83AC
:10FC7000E0F8A3E0F9E8492274F6120374780079F9
:10FC800000A2AFE433F508C2AF8A828B83E0FCA305
:10FC9000E0FDEC4D60328A828B8312FD62E824FB2A
:10FCA000FCE934FFFD8C828D83E0FEA3E0FF8A82B5
:10FCB0008B83EEF0A3EFF08C828D83E4F0A3F0E869
:10FCC00024FF12FD3774FFF0E508A2E092AFE8FAD6
:10FCD000E9FB7F0202058D74F71203747409120A9E
:10FCE000EF12FD62A2AFE433F508C2AF8A828B83C4
:10FCF000E0FEA3E0FFEC6E7002ED6F701112FC28C5
:10FD0000ED12FD5E8A828B83E8F0A3E9801112FC7C
:10FD100028ED12FD3A12FD4E12FD34EAF0A3EBF08D
:10FD200012FD3FEC24FFF582ED12FD3A74FFF0E581
:10FD30000802FB52E824FBF582E934FFF58322EC4C
:10FD400024FBF582ED34FFF583E4F0A3F02212FDED
:10FD50005222E0FAA3E0FB22E824FBF582E934FF1B
:10FD6000F583E0F8A3E0F92274F7120374E9FE7F4B
:10FD700000A2AFE433F508C2AF12FC6C700C8A82AB
:10FD80008B838012EE601512FD581E12FC5C70F41D
:10FD9000EE600912FD34ECF0A3EDF00FE508A2E0EF
:10FDA00092AFEFF902FB5674F7120374E9FD9087E6
:10FDB0008AE0F8EDC3985029E5A8FEC2AFEDC33341
:10FDC000F8E433F99004B0E028FCA3E0398C82F524
:10FDD00083E04AF0A3E04BF0EEA2E792AF79008017
:10FDE00002790302FB5674F7120374E9FE90878AC6
:10FDF000E0F8EEC398501FE5A8FFC2AFEAF4FCEBB1
:10FE0000F4FDEE12FF09E05CF0A3E05DF0EFA2E785
:10FE100092AF79008002790302FB56E9F874FF681B
:10FE20007006D2AF79008002790702083BE9F874C6
:10FE3000FF687006C2AF79008002790702083BC0F4
:10FE400082C083121420900477E4F0A3F01214CE41
:10FE50001214C21214C8121426790002FAEDC082DC
:10FE6000C0831213EA80FB74F61203747508001243
:10FE700013FC1217CEE50812FF0912FC70700D0575
:10FE80000890878AE0F8E508C39840E990878AE0FF
:10FE9000F8E508C3985066E5A8FCC2AFE508C3338F
:10FEA000FEE433FF9004B0E02EF8A3E03FF988822F
:10FEB000898312FD4E88828983E4F0A3F0ECA2E7E7
:10FEC00092AFE508900CD2F0F974112EF582748689
:10FED0003FF58312FF00121D6D900CD274FFF0E508
:10FEE000A8F9C2AF9004B0E02EF8A3E03F8882F5F5
:10FEF00083E04AF0A3E04BF0E9A2E792AF02FCD224
:10FF0000E0F8A3E0F583888222C333F8E433F99064
:10FF100004B0E028FAA3E0398A82F5832274F01253
:10FF200003747410120AEF780C120A928A828B837F
:10FF3000E50C12FF7C850C08850E0A850F0B7410EA
:10FF400078081208D6E508F0A37418780C1208D6C1
:10FF5000E50CF0A3AA82AB837F0802058D74F01232
:10FF600003747410120AEF780C120A92850C088A36
:10FF7000828B83E50812FF7C741080CFF0A3850D7F
:10FF800009E509F0A322C082C0839061A5E0D2E216
:10FF9000F090083DE0C39412502D90086BE0906102
:10FFA00072F090086CE0906173F090086FE09061DF
:10FFB00074F0900870E0906175F079087C7F7D089E
:10FFC0007A6A7B611219D8906180E4F0E04405F010
:10FFD000D083D08202083B74F7120374EAF8EBF97D
:10FFE0008C828D83E0A3AC82AD838A828B83F0A365
:0FFFF000AA82AB8370EAE8FAE9FB7F0102058D74
:020000040001F9
:1000000074F012037474F412091D8A0A8B0BECFE4F
:10001000EDFF890E741C120AEF128D057C0C7D0019
:100020007900851882851983AA82AB8312137274B2
:1000300009120AEFE4F08E828F83A3A3A3A3A3A3E4
:10004000A3A3E0C0E07408120AEFD0E0F08E828F24
:10005000831281A7F0900CDDE024FFF50CA3E034BF
:10006000FFF50D850A82850B83E0850C82850D8363
:10007000F0750F1E780F12085F780A12085B780C73
:1000800012085B850E0AE50A2401F50AE43400F53E
:100090000B780A12085B780812085B9005B4E0F947
:1000A0007CD77D0C7409120AEFAA82AB8312112C43
:1000B00074091208A3740C0288AB74F2120374E979
:1000C000FE740E120AEF128CF07410120AEF1289ED
:1000D0006D7412120AEFE0F509128310FF801F857C
:1000E0000C82850D8312867F850C82850D83A38506
:1000F000820C85830D88828983A3A882A9838F08B7
:1001000074FF25081F0470D7E5099005B4600474D6
:10011000408001E4F0780A12085BEEF9128D8F122C
:1001200008A39005B4E4F07F0602058D74F612036F
:1001300074E9FE1283498E0802820774F212037476
:1001400074F712091DEAFEEBFF890A8C0B128D026F
:10015000EEFCEFFD7AC57B03121B8EE9700A740872
:10016000120AEF128489800E7408120AEF7402F0EA
:100170009004F41281A7F0EEFCEFFDAA08AB09127F
:100180008CAAE50AF0A3E50BF0E4F508F509780878
:1001900012085B790A7402120AEF128D871208A303
:1001A00074091208A38080128967851882851983D3
:1001B000E8F0A3E92274F612037474F712091DE93A
:1001C000FEECFF900CDD1289637408120AEF7402D2
:1001D000F0851882851983EAF0A3EBF0EA8882891A
:1001E00083F0A3EBF0A3EEF0A3EFF075080175091F
:1001F00000780812085B79047402120AEF128D87E6
:100200001208A374098015750900780812085B7933
:1002100002EAFCEBFD7A637B05128D8F1208A37F47
:100220000202058D74EE120374E9FE7412120AEFD5
:10023000128D057414120AEF128963880A890B74EF
:1002400016120AEFE0FF7417120AEF128963880E84
:10025000890F1283102FC3332406F50CC3944F402B
:1002600005791002830D8A828B83A3A3A3A3A3A382
:10027000A3A3E0640F60118A828B83A3A3A3A3A32B
:10028000A3A3A3E0640270188A828B83E0F4700356
:10029000A3E0F4700B8A828B8374FDF0A374FFF0EB
:1002A00074FF6C700374FF6D70047CFD7DFFEC883F
:1002B000828983F0A3EDF0A3128E32A3EE128D2E6D
:1002C0006017750800E508C333FCE433FDE50A2C2C
:1002D000FCE50B1283189E40ECEF128D2A60177517
:1002E0000800E508C333FCE433FDE50E2CFCE50F04
:1002F0001283189F40EC75080675090078081208EB
:100300005BA90CEAFCEBFD128D8B1208A3028CE1B9
:10031000900CDD128967EE223DFD8C828D83128860
:100320009F8C828D83128D470508E508C32274F6E1
:10033000120374128349128ACF7508047509007874
:100340000812085B7903028211900CDD128CD1EC4B
:10035000F012849EEDF02274ED1203748A088B096A
:100360007413120AEF128963E8FAE9FB900CDD12AC
:100370008CF08A828B83E0C394105005E0F50E80E8
:1003800003750E10EC850A82850B83F0A3EDF0A3B4
:10039000E50EF0A385820A85830BF50C7410C395D6
:1003A0000CFC95E0FD7920E9C0E0ECFEEDFF8A82CF
:1003B0008B83A3A982AA8389108A117512007810F1
:1003C000120857AC0E7D00AA0AAB0B12895912080D
:1003D000A3EEFCEFFDD0E0F9121372750A14750B51
:1003E00000780A12085B7913AC08AD09128D8B12E4
:1003F00008A37F0B02058D74F612037474F71209BB
:100400001DE9FE900CDD1289637408120AEF128454
:1004100084EA88828983F0A3EBF0EE9005B460044F
:1004200074408001E4F07508157509007808120819
:100430005B7902E9120AEF128D871208A39005B4C6
:10044000E4F002820374F612037474F712091DE9D2
:10045000FE7408120AEF128484128CCAEA1284997C
:10046000EBF0900CDDE02402FAA3E034001284A645
:10047000A3A3EEF0750813750900780812085B79DC
:100480000B0281F8128489F022740FF0851882859E
:10049000198374FDF0A374FF22F012849E22900C45
:1004A000DD128CD5A322FB121B9412849EA3A3A35E
:1004B000A3A3A3A32274F3120374EAFEEBFF75084F
:1004C000FE7509FF750A00750B001285D970047856
:1004D0000880027802EE2413F582EF1290B828FA11
:1004E000A3E034008A82F583E0F50CEE240CF5825B
:1004F000EF1290B849701EEE2413F582EF128CECC7
:10050000AC0AFD7AC57B03121B8EE960429004F4AD
:10051000128D05802812866C128677E0FAA3E0F926
:10052000EA2400F508E439F5099004F4E065087060
:1005300004A3E065097006750AC5750B0374FE65B2
:1005400008700474FF65096006E50A450B700BEE40
:10055000240BF582EF1290B8707A12872D74FE6525
:1005600008700474FF65096018E50A450B6012E520
:100570000C60067401650C70047C0080197C80801E
:10058000157C811285D970089004F4128D058006BF
:10059000750AC5750B03EC8A828B83128D57AC0AE2
:1005A000AD0B121B94128E2E9005B47410F0EE2435
:1005B0000CF582EF1290B8F508A3E04480F50978B5
:1005C0000812085B790B1287171288581208A3903B
:1005D00005B4E4F07F0502058DEE240CF582EF34BE
:1005E00000F583128967E8492274F6120374740ACD
:1005F000120AEF128CE6900CDD1286771287251214
:100600008D2E8E828F83E0541F12868D12886E8EFF
:10061000828F83A3A3128686128686A31286A512D2
:1006200086A5A31286B21286A02408FCEF3400FD32
:100630001286B81286B2A3A3A31286A0240B128638
:100640006F1286A0240C12866F12867F75080275C1
:100650000980780812085B7910EA2402FCEB340068
:10066000FDEA240FFAEB3400FB028219EE2413F5A5
:1006700082EF3400F583221289678882898322E021
:1006800088828983F022E012868DA3A322128691AC
:100690002288828983F0A308A9838E828F83A32274
:1006A000128D48EE221286A922E0128691A3A3A3FE
:1006B000A3221286A9A3A3228C828D83128D488C3B
:1006C000828D83A32274F6120374EAFEEBFF740A90
:1006D000120AEF12896312872D8A828B8312872573
:1006E000128D5788828983128CBC88828983128DEF
:1006F00005540FF9740C7808120AA1E508C4498A58
:10070000828B83F0750803750980780812085B797D
:1007100005128717028666EE2402FCEF3400FDEE18
:10072000240FFAEF22E4F0A3ECF0A3ED22900CDD0D
:10073000E0FAA3E0FB2274F01203748A088B09E943
:10074000FE1283107036EC4D60328C828D83A3A331
:10075000A3A3A3A3A3A3A3C082C0838C828D83A3DE
:10076000A3A3A3A3A3E0D083D082FAE02AC33324B7
:100770000CFAC3944F400779100288567A04EE129F
:100780008D2A9004F412886E9004F512867FA3EAF5
:10079000C39405500302883074FC2AF0A30808A90A
:1007A000831286B885820A85830B128D3C12886E6F
:1007B000EC2403128861128D3C1286BCA3A3A3A370
:1007C000E0C454F0128D49EC240612886112886E40
:1007D000850A82850B83E060247B00800FEBC333A6
:1007E000F50AE433F50BEC24071288728C828D83B2
:1007F000A3A3A3A3A3A3E0FFEBC39F40E0EC2409C2
:10080000128861128D32E060297B008C828D83A377
:10081000A3A3A3A3A3A3A3A3E0FFEBC39F5013EB46
:10082000C333F50AE433F50BEC240A12887280DB3B
:10083000E4F0750A04750B80780A12085BEAF9E5A2
:10084000082402FCE5093400FDE508240FFAE50957
:100850001288581208A380563400FB1216AE740298
:1008600022F50AED3400F50B850A82F58322128DFC
:100870004822F50CED3400F50D850C82F5831288C5
:100880009212889F850C82850D83128892128D4763
:100890000B22E0250AFFA3E0350B8F82F58322E0CF
:1008A00088828983F0A3A882A983221208A37F08E3
:1008B00002058D74EE12037474FF12091DE9851888
:1008C00082851983F0EAFEEBFF8C0A8D0B741312FC
:1008D0000AEFE0FC7414120AEF1289637416120A0C
:1008E000EFE0F5107417120AEF12896D12872D755B
:1008F000080474066E700374806F700575091080AB
:1009000003750900EC8A828B83F0A3E8F0A3E91257
:100910008D53601674042510F508750E00780C12BE
:100920000857AC101289571208A3E5099005B4F0D6
:100930008E0C8F0D780C12085BA908AC0AAD0B74F5
:1009400002120AEFAA82AB83128D8F1208A39005C0
:10095000B4E4F004028CDE7D00121366740322A35B
:10096000A3A3A312896722E0F8A3E0F922E0F50C23
:10097000A3E0F50D2274EE12037474FF12091DE951
:10098000851882851983F0EAFEEBFF7413120AEFD3
:1009900012896388108911128D0288828983E0246C
:1009A00004F50A850882850983128725128A03E0E7
:1009B000850882850983128A03A3A982AA83890CE8
:1009C0008A0D750E00780C120857851082851183E8
:1009D000E0FC7D00AA08AB091289591208A375082A
:1009E00011750980780812085BA90AEEFCEFFD7406
:1009F00002120AEFAA82AB83128D8F1208A3740130
:100A0000028CDEF0A385820885830988828983228F
:100A100074F612037474FF12091DE9851882851992
:100A200083F0ECFE740D120AEF128963900CDD1254
:100A30008D958C828D83EEF0A3128D249005B47475
:100A400010F0750815750980780812085B7903EABB
:100A5000FCEBFD7402120AEFAA82AB83128D8F1297
:100A600008A39005B4E4F00402821C74F612037427
:100A700074FF12091DE9851882851983F0ECFE7454
:100A80000B120AEF128963740D120AEF128D051210
:100A90008AC3EEF0128AC3A3E8F0128ACF12849AB6
:100AA000A3A3E4F0780812085B7904EAFCEBFD7478
:100AB00002120AEFAA82AB83128D8F1208A374016F
:100AC00002821C900CDDE0FCA3E0F5838C822212F4
:100AD000849EA3E9F02274E81203748A168B178CA3
:100AE0000C8D0D890F7418120AEF128CB2120AEFD6
:100AF000E0F50A741B120AEFE0F514A3E0F5157493
:100B00001D120AEFE0F50B741E120AEFE0F512A3B6
:100B1000E0F513900CDD128CE6E50A250BC33324B7
:100B20000FF50EC3944F40057910028BBC120DC611
:100B3000EA650C7003EB650D60047902807E8E829D
:100B40008F83128CF8120DC0EAFCEBFDEEFAEFFB7E
:100B5000121B948A0C8B0DAE0CAF0D8E828F83E529
:100B60000FF0A3128E32A3E50A128BC18010EAC3E4
:100B700033F8E433F9E51428F8E515128BC7EAC316
:100B8000950A40EA8E828F83E50B128BC18010EAB2
:100B9000C333F8E433F9E51228F8E513128BC7EAFA
:100BA000C3950B40EA750820750900780812085BA8
:100BB000A90EAC16AD17128D8B1208A37F1002057B
:100BC0008D128D127A002239F988828983128D0D57
:100BD00088828983A3128D190A2274EC1203748A05
:100BE0000A8B0B8C108D11890E7414120AEF128D62
:100BF000957416120AEF128CE67418120AEF128C12
:100C0000B2120AEFE0F50D12872D750C0C850882E3
:100C1000850983A3A3A3A3A3A3A3A3E064037005EF
:100C2000750C158016850882850983A3A3A3A3A349
:100C3000A3A3A3E064017003750C0E128CAAE50E49
:100C4000F0A3EEF0A3EF128D57E5082408F8E509AC
:100C5000128D5E700BAC08AD09128CAAE50D8028D0
:100C6000850882850983A3A3A3A3A3A3A3A3E06408
:100C7000017016850882850983128CBC85088285DF
:100C80000983A3E08A828B83F09005B47410F07816
:100C90000A12085BA90CAC10AD11128D8B1208A3BF
:100CA0009005B4E4F07F0C02058D121B948A828BB0
:100CB0008322E0F508A3E0F509741A22128D65ABD2
:100CC00083221208A37F0402058D900CDD128CD1C3
:100CD00022128CD522E0F8A3E0F583888222120844
:100CE000A37F0A02058DE0FEA3E0FF223400F58316
:100CF000E0F50AA3E0F50B22E50CF0A3E50D128D5B
:100D00001222900CDDE0F508A3E0F50922E08E82C6
:100D10008F83F0A3AE82AF8322E08E828F83F0A315
:100D20000EAF8322E8F0A3E9F0228882898312883B
:100D3000A42212889F850A82850B8322128D488502
:100D40000A82850B83A322A3E088828983F0A3080B
:100D5000A98322F0A3E510F0A3AA82AB8322128D0F
:100D600072E0640322128D6922E08A828B83F0A3F1
:100D70000A22128D7F128D69AB8388828983223487
:100D800000F98882898322AC82AD837A637B051265
:100D900016AE740222E0FCA3E0FD2274F21203748A
:100DA000890A8A088B099005B5128CE6EEF8EF8067
:100DB0000CE8FEE9FF88828983E0F8A3E0F9E849BE
:100DC000602188828983A3A3E0650A70E488828910
:100DD00083A3A3A3E065087004A3E0650970D2793A
:100DE0000080487A057B0012142C8A0C8B0DA80C0D
:100DF000A90DE849603388828983A3A3E50AF088B6
:100E0000828983A3A3A3128E3288828983E4F0A30C
:100E1000F09005B5128730EA4B60098E828F8312FD
:100E20008D2480BB9005B580F679100281278A82D7
:100E30008B83E508F0A3E509F02274F7120374E947
:100E4000FEEAFCEBFD780079009005B58008EAF831
:100E5000EBF98A828B83128730EA4B60488A828B57
:100E600083A3A3E06E70E78A828B83A3A3A3E06CC5
:100E70007003A3E06D70D7E8498A828B83600D12FE
:100E80008D9588828983ECF0A3ED80111285E39023
:100E900005B56006E8F0A3E98003E4F0A3F01214BE
:100EA000327900800279017F0102058D74F012030E
:100EB000748A0A8B0B750C009005B5028F58850853
:100EC00082850983128960E50A240C1290B4687047
:100ED00003A3E069707C1290B02415FAE43400FB9F
:100EE0001213908A0E8B0FAE0EAF0FEE4F6063851C
:100EF0000A0C850B0D750E00780C1208577C151224
:100F000089571208A31290B0602DEE2415FAEF3421
:100F100000FB12866CEAF0A3EBF0E50A2413F582DD
:100F2000E50B12867212896D780C1208571290B078
:100F3000FC1289571208A38E828F8374D3F0EEFAC5
:100F4000EFFB850882850983A3A3E0F912139C7542
:100F50000C01850882850983128D05E50845096025
:100F600003028EBEA90C0288AE74F412037474EBF3
:100F700012091D750A00740A120AEF7402F08A82BF
:100F80008B83A3A312895F7402120AEF128D24EAE5
:100F90002415F582EB1290B8C0E0740B120AEFD062
:100FA000E0F08A828B8312895F740C120AEF128D33
:100FB00024EA2419F582EB1290B8C0E0740E120AEC
:100FC000EFD0E0F0EA2420F582EB1290B814C0E0F4
:100FD0007410120AEFD0E0F0EA2422F8EB128D7FB1
:100FE000E02401FCA3E03400FD7413120AEFECF0DE
:100FF000A3EDF088828983128CCDE0C0E0740F12DB
:101000000AEFD0E0F0EA2412F582EB128672128920
:10101000637411120AEF128D24851882851983AA30
:1010200082AB83121732E9FA8002050A850A087535
:10103000090074027808120A1E74C32508F5827428
:101040001F3509F583E493F8740193F974FF687010
:101050000374FF696045E493F8740193F9740C120A
:101060000AEFE0687003A3E06970BF8518828519F4
:1010700083AA82AB83750B007402780A120A1E746D
:10108000C5250AF582741F350BF583E493C0E0741F
:101090000193F583D082121D6D8010EA700D8518C2
:1010A00082851983AA82AB831216067415028CC23C
:1010B000E50A2410F582E50B3400F583E022C082B6
:1010C000C083900560E4F0A3F07C037D037AFE7B8F
:1010D00004121B94900CFEE07004790080027901E8
:1010E000121D50120BA4029DB474F712037474F510
:1010F00012091DE9FEEAFF74016E600574026E704C
:101100003BEF600574036F704B900CD67402129124
:10111000AB120ACC120BB6E9F874036F701B900582
:1011200062E0F9740129F0E9C39405400C908770DE
:10113000120ACC900CE9120AD8E860107CE87D0312
:101140007A017B00900514E0F91214E6740B120882
:10115000A3029FAF74016F704574016E900CD6703E
:101160002E740AF07401120AEFE4F07402120AEF0E
:101170007403F0908748120ACC7404120AEF120A22
:10118000D87408120AEFE4129B5E120D0080BD7441
:101190000A1291AB120ACC120BC8E9F8809B7C5C56
:1011A0007D867A217B861218108091F0900CEDE0FC
:1011B000F9900CE92274F41203748909900458E040
:1011C000FEA3E0800F8A828B83A3E509F08E828FD5
:1011D0008312A050FFEE4F604B8E828F83A3A31229
:1011E0009BBD60E98E828F83A3A3129913F5087AC1
:1011F000D1F91213A8EA4B70CC7A027B001213903B
:10120000EA4B700E7A107B00900514E0F91213C6B9
:1012100080BB8A828B8374D1F0A3E509F0A9081200
:10122000139C80A9120DC69004F4129AF3120DC0FB
:1012300080031208A37F0402058D74F412037489DD
:101240000B740C120AEF129B54750A008002050AF7
:10125000E50AC3950B502F7D0080010DEDC39C5016
:10126000EDE50AC333FEE433FFEA2EF582EB3F12CD
:10127000929BF509ED12928B65087004A3E0650955
:1012800070D9790180027900029235C333FEE433CC
:10129000FFE82EF582E93FF583E022F583E0F508CB
:1012A000A3E02274F61203741293317003A3E06D6D
:1012B0007017750819750905780812085BEEFA129F
:1012C00016F074021208A3801A7508027509807856
:1012D0000812085B8C088D09780812085B12935A73
:1012E0001208A3800574021208A37F0202058D7400
:1012F000F61203741293317003A3E06D7017750832
:1013000026750905780812085BEEFA1216F67402C3
:101310001208A3801A750803750980780812085B03
:101320008C088D09780812085B12935A1208A38062
:10133000B9EAFEEBFF129349FAA3E0F9EA2400FCB4
:10134000E439FD9004F4E06C22129BB6129B4FE04E
:10135000F8A3E0F988828983E022EE129F8DEF12D4
:10136000A011FD7C80129C6312171474042274F681
:1013700012037474FE12091DEAFEEBFF85188285C4
:101380001983E4F0A3F0129DA2FA88828983A3A3B3
:10139000E0F97509007508006005C394F140057512
:1013A0000882802F9004F4E06A7003A3E06B702041
:1013B000851882851983AA82AB8312113EE9F5094B
:1013C000851882851983129DB07008750883800383
:1013D0007508808518828519831298F0A908EEFA9D
:1013E000EFFB1216FCE5096014851882851983123B
:1013F0009DB06009851882851983129DBB0292E514
:1014000074F2120374EAFEEBFF750A00750B00120A
:101410009473120DC6EA65087003EB650970121229
:10142000114AE914F50A79017A2C7B0512115080D2
:1014300003750B80129F6EF50C780C12085F750C0B
:101440002C750D05780C12085B780A12085F780875
:1014500012085BE50BF508780812085F129B80F50F
:1014600082EF129B6E7A057B8012170274071208B6
:10147000A38014129B44129B588882898312A06C0B
:10148000F508E439F509227F0602058D74F612038A
:1014900074E9FE7F00802F8A828B8312929DF9E58A
:1014A000082400E439F509EF33F8E433F9EC28F5C2
:1014B00082ED39F583E508F0A3E509F0EA24020A94
:1014C0000AEB3400FB0FEFC39E40CC0292EA74E8B3
:1014D00012037474FB12091D8A168B1785188285F6
:1014E0001983E4F07403120AEFE4F0A3F004120A83
:1014F000EFE4F0129E10F50AA3E0F50B850A82F5E1
:101500008312A068FEE439FF850A82850B83A3A3BA
:10151000E0FA850A82850B83A3A3A3E0F9EAF50824
:10152000E439F509E50A2404F50AE50B3400F50B66
:10153000EEFAEFFB120E20E96401702C129DD1121D
:10154000085FE4F508F509780812085B78081208C6
:101550005F9004F4120692750880780812085F12F2
:10156000991C1208A30298D1EEFAEFFB120E20E9A3
:10157000700C9004F4E06E7003A3E06F70BE1298DC
:10158000F68814602EC333FAE433FB12142C740370
:10159000120AEF129AF37403120AEF129DB060134D
:1015A0007403120AEF1298E8A9141216788A0A8BAB
:1015B0000B80037514001298F6880F602AC333FA63
:1015C000E433FB12142C7401120AEF129AF3740123
:1015D000120AEF129DB0600F7401120AEF1298E820
:1015E000A90F1216788003750F00900458805C854F
:1015F0000A82850B83A3A3A3A3A3A3A3A3E4F0A3BD
:10160000F0AA0AAB0B851282851383A3A3E0F8121C
:101610009913F912139C851082851183E0C0E0852F
:101620001882851983E0F8742C28F5827405129DC0
:10163000F4D0E0129DAB04F0E515A2E05007AA102B
:10164000AB11121432851282851383E0F512A3E0E8
:10165000F513E5124513700302982685128285134F
:1016600083A3A3129BBD60DD851282851383A3A390
:10167000A3A3A3A3A3A3E0A2E050CA85128285136B
:1016800083A3A3A3A3129DB0851282851383A3A372
:10169000601F129BBDFA7901851282851383A3A373
:1016A000A3A31298DB121D6D8A108B117515018092
:1016B000101298DBA3A3A3E0F510A3E0F5117515B4
:1016C00000E510451170030296388510828511835C
:1016D000A3E065087004A3E06509600302963885FD
:1016E0001082851183A3A3A3A3A3A3A312069285AB
:1016F0001082851183A3A3A3A3A3A3E0FC74051206
:101700000AEF129B8CA91412165A74021208A3E94C
:10171000703C851082851183A3A3A3A3A3A3A3A3D5
:10172000A3A3120692851082851183A3A3A3A3A36A
:10173000A3A3A3A3E0FC7403120AEF129B8CA90FCE
:1017400012165A74021208A3E97003029638E50FC4
:101750002514C333240AFA7B001213908A0A8B0BD8
:10176000EA450B70030296168A828B8374D2F08549
:101770001682851783A3A3129B548A828B83129BA4
:10178000668A828B83A3A3A3A3E51412A072E50F3C
:10179000F0E5146038EA2405FAEB3400FBE50A248E
:1017A0000AF8E50B3400F98A828B83129B68740374
:1017B000120AEF129906120857E514C333FCE433FA
:1017C000FD8A828B83129DC21208A3800D8A828BB0
:1017D00083A3A3A3A3A3E4F0A3F0E50F70030295F2
:1017E000EFE514C333F8E433F9E50A28F8E50B39DB
:1017F000F9E8240AFAE93400FB850A82850B83A301
:10180000A3A3A3A3A3A3A3129AF37401120AEF1232
:101810009906120857E50FC333FCE433FD129FB459
:101820001208A3029601851882851983E060391297
:101830009DD112085F75082C750905780812085BA0
:101840007403120AEF129DDB12085F9004F4120673
:1018500092750800780812085F12991C1208A3E913
:10186000704B7CDF7D86803EEEFAEFFB120E20E9A6
:101870007030129DD112085F75082C750905780823
:1018800012085B750800780812085F9004F41206CD
:1018900092780812085F12991C1208A37C017D86B9
:1018A00080047C817D867A407B8612181074031236
:1018B0000AEF129DB060087403120AEF129DBB7408
:1018C00001120AEF129DB060087401120AEF129D16
:1018D000BB74051208A37F1002058D1298DF22E069
:1018E000F8A3E0F5838882221298F0AA0AAB0B22B3
:1018F000E0FCA3E0FD22850A82850B83E0F8A38546
:10190000820A85830B22E0F50CA3E0F50D750E002D
:10191000780C221298E1A31298DFE022E516240247
:10192000FCE5173400FDE516129B72E517129C705A
:101930007A067B8012170274072274F412037474FF
:10194000F412091D8A088B09ECFEEDFF740B120AD4
:10195000EF7403F0120AEFAA82AB83121B94120DEC
:10196000C0EAFCEBFD7403120AEFAA82AB83121BE0
:101970008EE9600A129A8C6010E06401600B851891
:10198000828519837484029A3F8E828F83A3A3A3D6
:10199000A3A3A3A3A3E06017C394F15012129A8CDF
:1019A0007018EE2414129F716005C394F1400B85EA
:1019B00018828519837482029A3FE508240CF58207
:1019C000E509129F7464217002A3E0704F851882AC
:1019D000851983748CF0129A7E12085F129A931202
:1019E0001CDE74011208A3E97056851882851983DC
:1019F000E4F012161E129A8C70467401120AEFACB3
:101A000082AD8312A02EFB121CD2E970337D007CC4
:101A100000790012A02EFB1216C08024129A7E12AA
:101A2000085F129A93121CD874011208A3E9851852
:101A3000828519837007E4F012161E80037488F003
:101A4000129F8BE509129A8412085F7401120AEF43
:101A500085820A85830B780A12085BE508240CF559
:101A600082E509129F74F50AA3E04480F50B780A19
:101A700012085B129B961208A3740C029232EE2499
:101A800014F582EF12A011F50A780A22129B44E0A5
:101A9000640322EE240BFCEF3400FD8E828F83A3BF
:101AA000A3A3A3A3A3A3A3A3129B908E828F83A31C
:101AB000A3A3A3A3A3A3A3E0F922C082C08374F3CA
:101AC00012091D851882851983E4F004120AEF12A9
:101AD0009AF37403120AEFAA82AB83120B50851893
:101AE00082851983AA82AB83120B86740D1208A318
:101AF000029DB4EAF0A3EBF02274F6120374129B79
:101B00003C129B5488828983129EA4900521E05840
:101B1000F508A3E059F509E5084509601C780812A5
:101B2000085B9004F4120692129F6EFD7C00129CDA
:101B30005F12170E74041208A30292EAEAFEEBFF8A
:101B4000129B4422129BB6129B4F22129B4F2234AF
:101B500000F58322129B5822E0F8A3E0F922129D9F
:101B60009AAA82AB8322A3A3E8F0A3E9F022129CF5
:101B70007022240FF58222129B80FAEF129BAD2275
:101B8000EE2402FCEF3400FDEE240F22129B902283
:101B9000E0FAA3E0FB227901E5082402FCE5093420
:101BA00000FDE508240FFAE509129BAD223400FB85
:101BB0001216B4740522EE2413F582EF221298DF78
:101BC000E02274F412037474EF12091DEAFEEBFFB5
:101BD0001294739004F4E065087004A3E065097042
:101BE0005885188285198385820A85830B780A12A5
:101BF000085B750A11750B00780A12085B7C007D82
:101C0000007A817B001214B674041208A3E97029CB
:101C1000750A00780A12085F7401120AEF85820AB9
:101C200085830B780A12085BAC08AD09129C5F1221
:101C3000170874031208A38021750A11750B8078A8
:101C40000A12085B780812085B129F6EFD7C8412F2
:101C50009C5F12171474041208A3741102923212BA
